:100000000C9420080C9448080C9448080C94480858
:100010000C9448080C9448080C9448080C94480820
:100020000C9448080C9448080C94CE0C0C943D0D8C
:100030000C9448080C9448080C9448080C94480800
:100040000C9448080C9448080C9448080C944808F0
:100050000C9448080C9448080C9448080C946F0FB2
:100060000C9448080C9448080C9448080C944808D0
:100070000C9448080C9448080C9448080C944808C0
:100080000C9448080C9448080C9448080C944808B0
:100090000C9448080C9448080C9448080C944808A0
:1000A0000C9448080C9448080C94480805A84CCDBA
:1000B000B2D44EB93836A9020C50B9918688083CA2
:1000C000A6AAAA2ABE000000803FFFFFFFFFFF7F15
:1000D0005555FF3F3333AA2A9224FF1F711C9919EB
:1000E00045175515B11349121111FF0F0F0F380E97
:1000F000790DCC0C300CA20B210BAA0A3D0AD809B1
:100100007B092409D30888084208FF07C10787072D
:1001100050071C07EB06BC06900666063E0618064E
:10012000F405D105B00590057205550539051E0584
:100130000505EC04D404BD04A70492047D046904FD
:1001400056044404320421041004FF03F003E003C6
:10015000D203C303B503A8039B038E038103750376
:1001600069035E03530348033D03330329031F035D
:1001700015030C030303FA02F102E802E002D802BD
:10018000D002C802C002B902B102AA02A3029C02B4
:1001900095028F02880282027C02760270026A0255
:1001A00064025E02590253024E02490243023E02B9
:1001B0003902340230022B02260222021D021902E9
:1001C000140210020C0208020402FF01FC01F801F3
:1001D000F401F001EC01E901E501E101DE01DA01E0
:1001E000D701D401D001CD01CA01C701C301C001AB
:1001F000BD01BA01B701B401B201AF01AC01A9015F
:10020000A601A401A1019E019C01990197019401FD
:1002100092018F018D018A0188018601830181018C
:100220007F017D017A01780176017401720170010C
:100230006E016C016A01680166016401620160017E
:100240005E015C015A0158015701550153015101EA
:1002500050014E014C014A01490147014601440148
:10026000420141013F013E013C013B01390138019E
:10027000360135013301320130012F012E012C01ED
:100280002B01290128012701250124012301210136
:1002900020011F011E011C011B011A011901180177
:1002A0001601150114011301120111010F010E01B4
:1002B0000D010C010B010A010901080107010601EA
:1002C0000501040103010201010100000000003EDC
:1002D0005B4F5B3E3E6B4F6B3E1C3E7C3E1C183CB6
:1002E0007E3C181C577D571C1C5E7F5E1C00183C12
:1002F0001800FFE7C3E7FF0018241800FFE7DBE75B
:10030000FF30483A060E2629792926407F05050741
:10031000407F05253F5A3CE73C5A7F3E1C1C08089D
:100320001C1C3E7F14227F22145F5F005F5F060962
:100330007F017F006689956A606060606094A2FFBB
:10034000A29408047E040810207E201008082A1CAD
:1003500008081C2A08081E101010100C1E0C1E0C79
:1003600030383E3830060E3E0E0600000000000019
:10037000005F00000007000700147F147F14242A88
:100380007F2A12231308646236495620500008075A
:100390000300001C2241000041221C002A1C7F1C7B
:1003A0002A08083E0808008070300008080808087D
:1003B000000060600020100804023E5149453E00E4
:1003C000427F400072494949462141494D33181442
:1003D000127F1027454545393C4A49493141211191
:1003E00009073649494936464949291E0000140083
:1003F00000004034000000081422411414141414A6
:10040000004122140802015909063E415D594E7C03
:100410001211127C7F494949363E414141227F41B8
:1004200041413E7F494949417F090909013E414116
:1004300051737F0808087F00417F41002040413F01
:10044000017F081422417F404040407F021C027F10
:100450007F0408107F3E4141413E7F090909063E65
:100460004151215E7F091929462649494932030134
:100470007F01033F4040403F1F2040201F3F403846
:10048000403F631408146303047804036159494D21
:1004900043007F4141410204081020004141417F57
:1004A00004020102044040404040000307080020CD
:1004B000545478407F2844443838444444283844CD
:1004C00044287F385454541800087E090218A4A404
:1004D0009C787F0804047800447D40002040403D23
:1004E000007F1028440000417F40007C047804789D
:1004F0007C080404783844444438FC182424181830
:10050000242418FC7C08040408485454542404048B
:100510003F44243C4040207C1C2040201C3C403078
:10052000403C44281028444C9090907C4464544CA7
:100530004400083641000000770000004136080002
:1005400002010204023C2623263C1EA1A161123AAC
:100550004040207A385454555921555579412154F9
:10056000547841215554784020545579400C1E52FE
:1005700072123955555559395454545939555454A2
:10058000580000457C410002457D420001457C4009
:10059000F0292429F0F0282528F07C545545002026
:1005A00054547C547C0A097F4932494949323248C3
:1005B000484832324A4848303A4141217A3A42402A
:1005C0002078009DA0A07D39444444393D404040FE
:1005D0003D3C24FF2424487E4943662B2FFC2F2BCF
:1005E000FF0929F620C0887E090320545479410070
:1005F00000447D413048484A32384040227A007AEF
:100600000A0A727D0D19317D2629292F28262929CC
:10061000292630484D4020380808080808080808EE
:10062000382F10C8ACBA2F102834FA00007B000015
:1006300008142A142222142A14089500220095AACC
:10064000005500AAAA55AA55AA000000FF001010E4
:1006500010FF00141414FF001010FF00FF1010F022
:1006600010F0141414FC001414F700FF0000FF0035
:10067000FF1414F404FC141417101F10101F101F83
:100680001414141F00101010F0000000001F1010B0
:1006900010101F10101010F010000000FF101010AC
:1006A000101010101010FF10000000FF140000FFC9
:1006B00000FF00001F10170000FC04F414141710B2
:1006C000171414F404F40000FF00F71414141414A5
:1006D0001414F700F7141414171410101F101F141B
:1006E0001414F4141010F010F000001F101F00007C
:1006F000001F14000000FC140000F010F01010FFA8
:1007000010FF141414FF141010101F00000000F04C
:1007100010FFFFFFFFFFF0F0F0F0F0FFFFFF000021
:10072000000000FFFF0F0F0F0F0F38444438447CC8
:100730002A2A3E147E02020606027E027E026355CB
:100740004941633844443C04407E201E2006027E1A
:10075000020299A5E7A5991C2A492A1C4C7201722C
:100760004C304A4D4D303048784830BC625A463D96
:100770003E494949007E0101017E2A2A2A2A2A444B
:10078000445F444440514A444040444A5140000080
:10079000FF0103E080FF000008086B6B083612368B
:1007A0002436060F090F060000181800000010106C
:1007B000003040FF0101001F01011E00191D17122A
:1007C000003C3C3C3C0000000000F0F89C8E87831D
:1007D000878E9CF8F00000FEFF0303030303070E5F
:1007E000FCF80000FEFF0303030303070EFCF80000
:1007F00000FFFF00000000000000FFFF0000FEFF00
:100800008383838383C7EE7C380000F8FC0E0703E4
:100810000303070EFCF800003F7FE0C08080C0E0CB
:100820007F3FFFFF01010101010101FFFF0000FF08
:10083000FF0C0C0C0C1C3E77E3C100007FFFC0C016
:10084000C0C0C0E0703F1F00001F3F70E0C0C0C0CC
:10085000E0703F1F00007FFFC1C1C1C1C1E3773E0F
:100860001C00001F3F70E0C0C0C0E0703F1F0000D0
:1008700000000001FFFF01000000D5F08D14A1C8A9
:1008800081CFD9F1AF200001010101010101010176
:10089000010101010101010100000000000001004F
:1008A0000000000000000101000200000200010041
:1008B0000000000000000101000000000000010035
:1008C0000000000000000101000000000000030023
:1008D0000000000000000101000000000000010015
:1008E0000000000000000101000200000200010001
:1008F00000000000000001010000000000000100F5
:1009000000000000000001010101010101010100DE
:1009100000000000000001010000000000000000D5
:1009200000000000000001010000000000000000C5
:1009300000000000000001010000000000000000B5
:1009400000000000000001010000000000000000A5
:100950000000000000000101000000000000000095
:100960000000000000000101000000000000000085
:10097000000000000000010101010101010101016D
:1009800001010101010101FFFFFFFFEEFFFFFFEE8B
:10099000FFBBFFEEFFAAFFAAFFAAFFAADDAAFFAADC
:1009A000DDAA77AADDAA55AA55AA55AA44AA55AA2E
:1009B00044AA11AA44AA00AA00AA004400AA00441A
:1009C000002200440000008040FFFFFFFFFFFFFF08
:1009D000FFFFFFFFFFFFFFFFFFFFFFFFFFFFFFFF27
:1009E000FFFFFFFFFFFFFFFFFFFFFFFFFFFFFFFF17
:1009F000FFFFFFFFFFFFFFFFFFFFFFFFFFFFFFFF07
:100A0000FFFFFFFFFFFFFFFFFFFFFFFFFFFFFFFFF6
:100A1000FFFFFFFFFFFFFFFFFFFFFFFFFFFFFFFFE6
:100A2000FFFFFFFFFFFFFFFFFFFFFFFFFFFFFFFFD6
:100A3000FFFFFFFFFFFFFFFFFFFFFFFFFFFFFFFFC6
:100A4000FFFFFFFFFFFFFFFFFFFFFFFFFFFFFFFFB6
:100A5000FFFFFFFFFFFFFFFFFFFFFFFFFFFFFFFFA6
:100A6000FFFFFFFFFFFFFFFFFFFFFFFFFFFFFFFF96
:100A7000FFFFFFFFFFFFFFFFFFFFFFFFFFFFFFFF86
:100A8000FFFFFFFFFFFFFFFFFFFFFFFFFFFFFFFF76
:100A9000FFFFFFFFFFFFFFFFFFFFFFFFFFFFFFFF66
:100AA000FFFFFFFFFFFFFFFFFFFFFFFFFFFFFFFF56
:100AB000FFFFFFFFFFFFFFFFFFFFFFFFFFFFFFFF46
:100AC000FFFFFFFFFFFFFFFFFFFFFFFFFFFFFFFF36
:100AD000FFFFFFFFFFFFFFFFFFFFFFFFFFFFFFFF26
:100AE000FFFFFFFFFFFFFFFFFFFFFFFFFFFFFFFF16
:100AF000FFFFFFFFFFFFFFFFFFFFFFFFFFFFFFFF06
:100B0000FFFFFFFFFFFFFFFFFFFFFFFFFFFFFFFFF5
:100B1000FFFFFFFFFFFFFFFFFFFFFFFFFFFFFFFFE5
:100B2000FFFFFFFFFFFFFFFFFFFFFFFFFFFFFFFFD5
:100B3000FFFFFFFFFFFFFFFFFFFFFFFFFFFFFFFFC5
:100B4000FFFFFFFFFFFFFFFFFF0F0F0F0F0F0F0F45
:100B50000F0F0F0F0F0F0F0F0F0F0F0F0F0F0F0FA5
:100B60000F0F0F0F0F0F0F0F0F0F0F0F0F0F0F0F95
:100B70000F0F0F0F0F0F0F0F0F0F0F0F0F0F0F0F85
:100B80000F0F0F0F0F0F0F0F0F0F0F0F0F0F0F0F75
:100B90000F0F0F0F0F0F0F0F0F0F0F0F0F0F0F0F65
:100BA0000F0F0F0F0F0F0F0F0F0F0F0F0F0F0F0F55
:100BB0000F0F0F0F0F0F0F0F0F0F0F0F0F0F0F0F45
:100BC0000F0F0F0F0F0F0F0F0FA050A050A040A03E
:100BD00050A050A050A040A050A050A050A040A0B5
:100BE00050A050A050A040A050A050A050A040A0A5
:100BF00050A050A050A040A050A050A050A040A095
:100C000050A050A050A040A050A050A050A040A084
:100C100050A050A050A040A050A050A050A040A074
:100C200050A050A050A040A050A050A050A040A064
:100C300050A050A050A040A050A050A050A040A054
:100C400050A050A050A040A050AA54AA55AA45AA0E
:100C500055AA54AA55AA45AA55AA54AA55AA45AABE
:100C600055AA54AA55AA45AA55AA54AA55AA45AAAE
:100C700055AA54AA55AA45AA55AA54AA55AA45AA9E
:100C800055AA54AA55AA45AA55AA54AA55AA45AA8E
:100C900055AA54AA55AA45AA55AA54AA55AA45AA7E
:100CA00055AA54AA55AA45AA55AA54AA55AA45AA6E
:100CB00055AA54AA55AA45AA55AA54AA55AA45AA5E
:100CC00055AA54AA55AA45AA55AA54AA55AA44AA4F
:100CD00055AA54AA55AA45AA55AA54AA55AA44AA3F
:100CE00055AA54AA55AA45AA55AA54AA55AA44AA2F
:100CF00055AA54AA55AA45AA55AA54AA55AA44AA1F
:100D000055AA54AA55AA45AA55AA54AA55AA44AA0E
:100D100055AA54AA55AA45AA55AA54AA55AA44AAFE
:100D200055AA54AA55AA45AA55AA54AA55AA44AAEE
:100D300055AA54AA55AA45AA55AA54AA55AA44AADE
:100D400055AA54AA55AA45AA55AA54AA55AA45AACD
:100D500055AA54AA55AA45AA55AA54AA55AA45AABD
:100D600055AA54AA55AA45AA55AA54AA55AA45AAAD
:100D700055AA54AA55AA45AA55AA54AA55AA45AA9D
:100D800055AA54AA55AA45AA55AA54AA55AA45AA8D
:100D900055AA54AA55AA45AA55AA54AA55AA45AA7D
:100DA00055AA54AA55AA45AA55AA54AA55AA45AA6D
:100DB00055AA54AA55AA45AA55AA54AA55AA45AA5D
:100DC00055AA54AA55AA45AA55080B0002020200CA
:100DD00000090400000102020000052400100105C2
:100DE00024010101042402060524060001070581EF
:100DF0000310004009040100020A00000007050278
:100E000002400000070583024000000403090412A9
:100E1000010002EF0201404123368000010102037C
:100E20000141726475696E6F204C4C4300417264DD
:100E300075696E6F204C656F6E6172646F0000E0C3
:100E4000FCFEFFFEFFFFFE7FFFFEFCF00000000047
:100E5000011079F9FBFFFFFEF87811000000C0C017
:100E600000F0F00001FF0100F0F000C0C000031F1F
:100E7000041F040F3E033E0F041F041F0300000065
:100E8000000000000000000000000000000000C0A2
:100E9000E0F0F8F8F8F8F8F0E0E0E0C000002058E2
:100EA000E8F8F0F0F0F0F0F0F0F0F8E8582000008A
:100EB000031F7F7FFFFFFFFF7F7F1F03000080C0B6
:100EC000C0E0E0E0E0E0E0E0E0E0E0C0C0800001A1
:100ED00001030383C3FFFFC3830303010100000079
:100EE0000000000000000000000000000000000002
:100EF00000000000000000000000000000000000F2
:100F0000603CCE7C3E7E5C3E6E3C6000000000009B
:100F10000000106061636E60601000000000C0009F
:100F2000007000000000000000700000C000010818
:100F3000000800071000100700080008010000006A
:100F400000000000000000000000000000000000A1
:100F50000040203050604000404000000000000091
:100F60000080404040404040404080000000000081
:100F700000010B155B555B551B050100000000804F
:100F800080C0C0C0C0C0C0C0C0C0C0808000000061
:100F90000001010101010101010101000000000047
:100FA0000000000000000000000000000000000041
:100FB0000000000000000000000000000000FEFE35
:100FC000FEFEFEFEFEFEFEFEFEFEFEFEFEFE5F4F8F
:100FD0004F5F5F4F4F5F5F4F4F5F5F4F4F5FFEFA57
:100FE000FEFAFEFAFEFAFEFAFEFAFEFAFEFA5F4F8B
:100FF0004F5F5F4F4F5F5F4F4F5F5F4F4F5FFE022F
:10100000FEFE02FEFE02FEFEFE02FEFE02FE7F402D
:101010007F7F407F7F407F7F7F407F7F407FFEFAE2
:1010200006F6F6F6F6F6F6F6F6F6F606FEFA5F7F42
:1010300000FFFFFFFFFFFFFFFFFBFF007F5FEC0FE5
:1010400011241FBECFEFDAE0DEBFCDBF11E0A0E07C
:10105000B1E0EAE5F1E402C005900D92A236B107D5
:10106000D9F728E0A2E6B1E001C01D92A538B20789
:10107000E1F718E0C0E2D8E004C02197FE010E9429
:101080009C20CF31D107C9F70E94AD100C94AB2042
:101090000C9400008F929F92AF92BF92CF92DF92FA
:1010A000EF920F931F93CF93DF93F091E306A090FD
:1010B000DD06B090DE06A0E0FA1709F443C0E501B2
:1010C000E7E0AE0EB11CEB81E0FD3AC049015A01E8
:1010D00020E030E040E851E40E94871F0E94671E34
:1010E000688320E030E040E851E4C501B4010E948B
:1010F000871F0E94671E69830A838C2D8078816018
:10110000EE0CE82A0C2C000CDD08D7FE03C0D194AD
:10111000C194D10883E0CC0CDD1C8A95E1F7CE2880
:10112000CB821D821C82CE01DF91CF911F910F9146
:10113000EF90DF90CF90BF90AF909F908F900895E9
:10114000AF5FBACFD0E0C0E0EECF4F925F926F9228
:101150007F928F929F92AF92BF92CF92DF92EF9247
:10116000FF920F931F93CF93DF938C018091E4063E
:101170002091E1063091E20690E0891709F47EC0E3
:10118000E9012B5F3F4FEC81E0FD76C0CB01BA0156
:1011900020E030E040E05FE30E94871F6B017C01AC
:1011A000F801618170E090E080E00E94981E20E0EC
:1011B00030E040E85DE30E94871F4B015C01F801CD
:1011C000608170E090E080E00E94981E20E030E0B6
:1011D00040E85DE30E94871F2B013C01A7019601B7
:1011E0000E94771D20E030E040E851E40E94871F14
:1011F0000E94671E6883A3019201C701B6010E9485
:10120000781D20E030E040E851E40E94871F0E94F2
:10121000671E6A83A7019601C501B4010E94771D6C
:1012200020E030E040E851E40E94871F0E94671EE2
:101230006983A5019401C701B6010E94781D20E0D1
:1012400030E040E851E40E94871F0E94671E6B83D4
:1012500081E08C83CE01DF91CF911F910F91FF90A0
:10126000EF90DF90CF90BF90AF909F908F907F9046
:101270006F905F904F9008959F5F7FCFD0E0C0E068
:10128000E9CFE9E8F1E0A0E0B8E000800EBC811110
:10129000012C1197A0FDFDCF0192B9F70DB408956F
:1012A000FC0180918801882311F13FB7F89482E016
:1012B0008093E9002091F200822F90E01816190621
:1012C00014F481E090E0882339F0289844E64093B4
:1012D00087014091F1004083222339F02091F200F0
:1012E000211103C02BE62093E8003FBF08958FEF44
:1012F0009FEF08952FB7F89483E08093E9009091D1
:10130000E800892F807295FF04C09091F20080E47C
:10131000891B2FBF089580917F0181110DC082E04C
:1013200080937B0184E080937C0110927E01109277
:101330007D0181E080937F018BE791E00895CF9359
:10134000DF931F92CDB7DEB76983DC01ED91FC918D
:101350000280F381E02D41E050E0BE016F5F7F4FDE
:1013600009950F90DF91CF91089583E08093E90074
:101370008091F200882319F08AE38093E8000895B1
:101380000E947A0990E00895CF93DF931F92CDB722
:10139000DEB7FC018485958597FD08C02FEF3FEFF0
:1013A000358724870F90DF91CF910895CE01019664
:1013B0000E945009019719F4898190E0F3CF8FEFD3
:1013C0009FEFF0CF0F931F93CF93DF931F92CDB773
:1013D000DEB78C01FC018485958597FF0BC0CE019B
:1013E00001960E945009019771F4898190E0F801FB
:1013F00095878487F801848595850F90DF91CF913B
:101400001F910F9108958FEF9FEFF1CFFC0184851D
:10141000958597FD0BC09FB7F89482E08093E90013
:101420008091F2009FBF90E0019608959FB7F894D5
:1014300082E08093E9008091F2009FBF90E00895E0
:1014400040917501509176012091730130917401A2
:1014500042175307B4F49091E8009570E1F390912E
:10146000E80092FD19C08093F10080917501909180
:10147000760101968F739927892B19F48EEF80934B
:10148000E800809175019091760101969093760124
:101490008093750181E0089580E00895DF92EF92D6
:1014A000FF920F931F93CF93DF93D82E8A01EB0106
:1014B0007B01E40EF51ECE15DF0559F0D7FE12C0F4
:1014C000FE0184910E94200A21968111F4CF0FEF32
:1014D0001FEFC801DF91CF911F910F91FF90EF9007
:1014E000DF9008958881EECF0F931F93CF93DF9302
:1014F0001F92CDB7DEB782E0898342E450E069EC09
:101500007DE080E80E944E0A0E948B09DC01129661
:101510000D911C910115110589F0D801ED91FC91F7
:101520000280F381E02DBE016F5F7F4FC8010995F6
:1015300097FD04C0F80100851185ECCF89810F90DB
:10154000DF91CF911F910F910895615030F020915C
:10155000F100FC0120830196F8CF289884E680935F
:10156000870108953FB7F89480916F0190917001C1
:10157000A0917101B091720126B5A89B05C02F3FC3
:1015800019F00196A11DB11D3FBFBA2FA92F982FA9
:101590008827BC01CD01620F711D811D911D42E0A4
:1015A000660F771F881F991F4A95D1F708958F926C
:1015B0009F92AF92BF92CF92DF92EF92FF926B0118
:1015C0007C010E94B20A4B015C01C114D104E10408
:1015D000F104B9F00E94B20A681979098A099B09D5
:1015E000683E73408105910580F321E0C21AD1085D
:1015F000E108F10888EE880E83E0981EA11CB11C5A
:10160000E4CFFF90EF90DF90CF90BF90AF909F908E
:101610008F9008958F929F92AF92BF92CF92DF9258
:10162000EF92FF920F931F93CF93DF936C017B0197
:101630008A0180910C01882309F45CC080918801A3
:10164000882309F457C080917A0180FF05C08091FA
:10165000E00082608093E000E801B12C8AEFA82EC0
:1016600093E0892E2AE3922E209711F4BB20D9F122
:101670000E947A0981110AC0AA94AA20D9F161E0D6
:1016800070E080E090E00E94D70AEECF8C171D0634
:1016900011F00CF08C2F9FB7F8948092E900209104
:1016A000E80025FD02C09FBFDFCF282F30E0C21B1E
:1016B000D30BF701815020F041914093F100FACF14
:1016C000E20EF31EBB2021F09092E800B12CEBCF8C
:1016D0008091E80085FDE7CF9092E800BB24B394A9
:1016E000209709F3F3CF5D9884E680937901101673
:1016F00011063CF081E090E0F6019383828310E0D4
:1017000000E0C801DF91CF911F910F91FF90EF9002
:10171000DF90CF90BF90AF909F908F900895AF9241
:10172000BF92CF92DF92EF92FF920F931F93CF93CE
:10173000DF936C017B018B01040F151FEB015E0130
:10174000AE18BF08C017D10759F06991D601ED91C5
:10175000FC910190F081E02DC6010995892B79F764
:10176000C501DF91CF911F910F91FF90EF90DF9016
:10177000CF90BF90AF9008952D9A0895BC0190E04E
:1017800080E00C94D70A8FB18095807F669B88603B
:101790001C9B84600895AF92BF92CF92DF92EF922C
:1017A000FF920F931F93CF93DF936D3079F0C09129
:1017B0006201D09163016A30B1F410926501109218
:1017C00064012896D0936301C093620181E090E0A8
:1017D000DF91CF911F910F91FF90EF90DF90CF900D
:1017E000BF90AF900895409164015091650185E0EC
:1017F000689FF0011124E653FD4F9A01C12C80E14E
:10180000E82EA5E070E0CA1621F0CF010196749190
:10181000FC0110E000E0B72FB170DB2E203831055D
:10182000D0F4CE01800F911F80349105A0F461E0C7
:1018300081FD64E080FD660F82FD6295887FE89EF1
:10184000D0011124A20FF62EA757BE4F8C91DD2098
:10185000A9F0862B8C9376950F5F1F4F08301105EA
:10186000D1F6C3942F5F3F4F86E0C812CACF4A5FBC
:101870005F4F5093650140936401A8CFF0948F218E
:10188000E9CFCF93C82F0E94C30B982F9C2381E0F0
:101890009C1380E0CF91089580E00C9441099C0155
:1018A0008091F307E32F879FE00D11248091F107CA
:1018B0009091F207E80FF92FF11D9081911133C03B
:1018C0008091E406E091E106F091E206891731F19A
:1018D000448140FF25C04081A0E14A9FA00111241E
:1018E00042175307E8F44281A0E14A9FA001112466
:1018F00024173507A8F44181A0E14A9FA0011124D3
:101900004617570768F44381A0E14A9FA0011124BC
:101910006417750728F481E0EF2B09F480E008953F
:101920009F5F3596D3CF81E008959923B1F0B0E061
:10193000A0E0B695A79597958795FC01FF27EE0F38
:10194000FF1FE653FF4F4591549170E060E076959C
:10195000679557954795CA010895FC01FF27EE0F3B
:10196000FF1FE653FF4F85919491089520E2629FF7
:10197000F0011124E40FF11DE80FF91F8491709616
:10198000E491F0E0FE2FEE278E0F9F2F911D08951A
:10199000089590E080E008950C94471D1F920F92E7
:1019A0000FB60F9211248F939F938091E100909135
:1019B000E100937F9093E10083FF0FC01092E90054
:1019C00091E09093EB001092EC0092E39093ED0085
:1019D0001092880198E09093F00082FF22C093E07B
:1019E0009093E9009091F200992319F09AE3909373
:1019F000E80090917901992341F0909179019150FB
:101A000090937901911101C05D9A9091870199237A
:101A100041F090918701915090938701911101C0FD
:101A2000289A84FF18C08091E2008E7E81608093A6
:101A3000E2008091E1008F7E8093E10080917A0145
:101A40008E7E806180937A019F918F910F900FBE5F
:101A50000F901F90189580FFF7CF8091E2008E7E47
:101A600080618093E2008091E1008E7E8093E100AE
:101A700080917A018E7E8160E5CF1F920F920FB622
:101A80000F921124CF92DF92EF92FF920F931F9348
:101A90002F933F934F935F936F937F938F939F9376
:101AA000AF93BF93EF93FF93CF93DF93CDB7DEB7A1
:101AB0006C97DEBFCDBF1092E9008091E80083FFF4
:101AC00025C068E0CE0145960E94A50A82EF80936A
:101AD000E8008D8987FF39C09091E80090FFFCCF26
:101AE000982F907609F034C19E894F89588D2F899F
:101AF000F88C911131C0803861F580917801809324
:101B0000F1001092F1008EEF8093E8006C960FB612
:101B1000F894DEBF0FBECDBFDF91CF91FF91EF9163
:101B2000BF91AF919F918F917F916F915F914F91F5
:101B30003F912F911F910F91FF90EF90DF90CF90E9
:101B40000F900FBE0F901F9018959EEF9093E80096
:101B5000C7CF1092F100D5CF913059F48111D3CF76
:101B60004130510581F6809178018D7F8093780115
:101B7000CACF933049F48111C6CF4130510519F6CF
:101B8000809178018260F2CF953041F48091E80035
:101B900080FFFCCF20682093E300B5CF963009F09A
:101BA000A9C00B8D1C8D22E01092E90010927601E5
:101BB00010927501F2122EC01092740110927301EE
:101BC0000E94740A1F8299E09983FA8291E09E83B1
:101BD00090EA98879AEF9987209175013091760164
:101BE000275F3F4F3C832B838D831092E900109237
:101BF000760110927501109374010093730149E00E
:101C000050E0BE016F5F7F4F80E00E944E0A0E944D
:101C1000740A79CF10937401009373010E948B09A9
:101C2000DC0112960D911C910115110509F451C1A9
:101C3000D801ED91FC910480F581E02DBE016B5E31
:101C40007F4FC8010995009709F03EC1F801008552
:101C50001185EACFF3E0FF120EC08F89882309F4C3
:101C600040C0823061F440E860E18DE29EE00E9475
:101C7000B90F811148CF81E28093EB0047CF8130CB
:101C800029F440E86BE081E29EE0F1CF833099F7E0
:101C90000E948B09DC011296ED90FC908E010F5F83
:101CA0001F4F6801E114F10479F0D701ED91FC9127
:101CB0000680F781E02DB801C7010995080F111DB5
:101CC000F701E084F184EECFD8011C92F601019077
:101CD0000020E9F73197BF016C197D0940E0C6018A
:101CE000C6CF6BE07EE0FB01449150E080E80E94AB
:101CF0004E0A09CF973009F4BECF983021F481E025
:101D00008093F10000CF993009F0FDCE837009F087
:101D1000B2CFEDE3F1E081E031E096E321912223BF
:101D200071F08093E9003093EB00DF0111972C9163
:101D30002093EC009093ED008F5F873079F78EE76A
:101D40008093EA001092EA008F8980938801DBCEAD
:101D50008B8D9C8D1092E900109276011092750186
:101D60009093740180937301898D811192C08E8943
:101D70009D89913A49F4813209F07DCF47E050E0E6
:101D800065E071E080E0B3CF913209F074CF833227
:101D900069F48F89988DB0E0A0E080930101909361
:101DA0000201A0930301B0930401ADCE803269F427
:101DB0008091E80082FFFCCF67E085E091E00E941F
:101DC000A50A8BEF8093E8009ECE823209F09BCE6D
:101DD0008F8980930C01EEEFFFE7859194918B3F03
:101DE0009C4D51F1E0E0F8E08091050190910601F1
:101DF000A0910701B0910801803B9440A105B10575
:101E0000F1F480910C0180FD1AC0EE3F8AE0F807E2
:101E100089F587E797E791838083809160008093BD
:101E2000770188E19BE00FB6F894A8958093600055
:101E30000FBE9093600067CEEEEFFAE0D5CF8081C1
:101E400091818737974709F05ECEA8958091600011
:101E50008861809360008091770180936000EE3FFD
:101E60002AE0F20789F08091FE0A9091FF0A91839F
:101E7000808349CE808191818737980751F2909372
:101E8000FF0A8093FE0AC5CF1092FF0A1092FE0A45
:101E90003ACE0E948B09DC0112960D911C9101151E
:101EA000110509F4E8CED801ED91FC910190F08183
:101EB000E02DBE016B5E7F4FC8010995811123CED5
:101EC000F80100851185EBCF181619060CF41BCE0E
:101ED000D2CEF1E0FF12BECE6FE07EE004CF1F92C3
:101EE0000F920FB60F9211242F933F938F939F93CE
:101EF000AF93BF9380916B0190916C01A0916D01A4
:101F0000B0916E0130916A0123E0230F2D3758F50F
:101F10000196A11DB11D20936A0180936B019093DE
:101F20006C01A0936D01B0936E0180916F0190914F
:101F30007001A0917101B09172010196A11DB11DB6
:101F400080936F0190937001A0937101B09372011F
:101F5000BF91AF919F918F913F912F910F900FBEA5
:101F60000F901F90189526E8230F0296A11DB11D12
:101F7000D2CFEF92FF920F931F93CF93DF93F82E60
:101F8000192FE62E042F81E0860F880F0E94200A69
:101F900083E00E94200ACF2DD12FEC0EFD2EF11CE4
:101FA000CE15DF05B9F007FF13C0FE0184910E9432
:101FB000200A182F80E00E94200A81232196811197
:101FC000EFCFDF91CF911F910F91FF90EF90089588
:101FD0008881EDCF81E0F5CF10928C0510928B05B2
:101FE00088EE93E0A0E0B0E080938D0590938E059D
:101FF000A0938F05B093900587E491E090938A05B4
:10200000809389058FEF9FEF9093960580939505B8
:10201000EDEDF5E010821182128213821582148296
:10202000379686E0ED34F807A9F7EDE4F6E08DE8A1
:1020300096E01382128234968E179F07D1F7EDE84F
:10204000F6E010821182128213823596A6E0ED3DF1
:10205000FA07B9F780E091E09093F6078093F507CF
:1020600040910D0150910E0160910F01709110018E
:102070004093FD075093FE076093FF07709300089D
:1020800020E034E030930208209301089093040884
:1020900080930308E5E0F8E080E8DF011D928A956F
:1020A000E9F78DED95E09093DE068093DD068DE4F3
:1020B00096E09093E0068093DF068DE896E090939B
:1020C000E2068093E10680E18093E4068093E306D4
:1020D00025EE36E03093F2072093F1078093F30763
:1020E0008093F40780E891E09093E6078093E507FA
:1020F0009093E8078093E7071092E9071092EA07A8
:102100001092EB071092EC0780E090E0A0E8BFE3AC
:102110008093ED079093EE07A093EF07B093F0073D
:102120008EEB9FE09093F8078093F7078EEF9EE089
:102130009093FA078093F9078EE39EE09093FC0753
:102140008093FB071092DC051092DB0589E591E096
:102150009093DA058093D9050895CF93DF93CDB797
:10216000DEB7E9970FB6F894DEBF0FBECDBF789407
:1021700084B5826084BD84B5816084BD85B582608C
:1021800085BD85B5816085BD80916E00816080933D
:102190006E001092810080918100826080938100A6
:1021A00080918100816080938100809180008160B6
:1021B0008093800080919100826080939100809153
:1021C0009100816080939100809190008160809364
:1021D00090008091C10084608093C1008091C10013
:1021E00082608093C1008091C10081608093C100B2
:1021F0008091C30081608093C3008091C0008260A1
:102200008093C0008091C20081608093C200809161
:102210007A00846080937A0080917A008260809353
:102220007A0080917A00816080937A0080917A00B0
:10223000806880937A001092880110927801109241
:102240007A018091D70081608093D70080EA8093E3
:10225000D80089B5806189BD89B5826089BD09B41E
:1022600000FEFDCF61E070E080E090E00E94D70AC0
:102270008091D8008F7C80618093D8008091E000AD
:10228000807F8093E0008091E1008E7E8093E1006A
:102290008DE08093E200559A209A81EC80937C0037
:1022A00085B1806F85B984B1877E84B984B1876E2A
:1022B00084B95E9A5F988AB1806D8AB9769A6E9871
:1022C00081B3806F81BB899880B38D7080BB80E5BE
:1022D0008CBD81E08DBD85E090E00E94BE0B5F9AD1
:1022E00085E090E00E94BE0B5E985C98EAE7F8E01B
:1022F00087E898E024912EBD00000DB407FEFDCFC5
:1023000031968E179F07B1F75C9A81E8809364003D
:10231000809165008160809365000E944C0C80E88C
:102320000E94410C8823A9F05C9885EA8EBD0000CC
:102330000DB407FEFDCF5C9A2E982F982D988091B2
:10234000640080628093640081E083BF889513BE3F
:10235000FCCF84E00E94410C882309F448C02D98EA
:1023600084E80E94410C8823E1F00E94BC0B88ECB9
:1023700090E00E94BE0B2F9882E090E00E94471DE3
:102380008F3F29F06FEF82E090E00E944F1D84EFB5
:1023900091E00E94BE0B2F9A84E80E94410C8111AB
:1023A000FBCF84E10E94410C8823E1F00E94BC0B2A
:1023B00088EC90E00E94BE0B2E9882E090E00E9494
:1023C000471D882329F060E082E090E00E944F1DC5
:1023D00084EF91E00E94BE0B2E9A84E10E94410C92
:1023E0008111FBCF88EC90E00E94BE0BB2CF0E941F
:1023F000BC0B82E090E00E94CC0C882309F459C108
:102400003E9A3F9A81E090E00E94CC0C282F2470E5
:10241000922E81FF12C021112E98E1EF4E2E5524ED
:102420005A9408E010E080E40E94410C882309F4EB
:1024300043C12E9A2F9A0E94BC0B82E390E00E9427
:10244000BE0B0E94C30B8111F8CF88E2809300017C
:102450008091F5079091F6078115944091F080E006
:1024600094E09093F6078093F50780E098E09093CE
:1024700002088093010880E490E090930408809320
:10248000030880E896E09093E6078093E50780E8EC
:1024900094E09093E8078093E70780E090E0A0E85D
:1024A000BFEB8093E9079093EA07A093EB07B09303
:1024B000EC071092ED071092EE071092EF071092C2
:1024C000F00740E051E067E878E085EE96E00E9492
:1024D0003E1D81EFC82EEE24E39401E020E030E0C1
:1024E00040E950E460E070E080E890E40E944A082F
:1024F00098E0C92E22E0E22E04E020E030E040EC3B
:102500005FE360E070E080E890E40E944A0840E009
:1025100050E060E07FE30E94A50820E030E040EF5B
:1025200050E460E070E080E890E40E944A0840E0F7
:1025300050E060E07FE30E94A50820E030E040E941
:1025400050E460E070E080EC9FE30E944A0840E0C5
:1025500050E060E07FE30E94A50832E0C32EEE2445
:10256000E39403E023E333E343EB5FE3CA01B90100
:102570000E944A0840E050E060E87FE30E94A5081E
:1025800023E333E343EF50E463E373E383EB9FE33D
:102590000E944A0840E050E060E87FE30E94A508FE
:1025A00023E333E343EB5FE363E373E383ED90E41F
:1025B0000E944A0840E050E060E87FE30E94A508DE
:1025C00023E333E343EF50E463E373E383ED90E409
:1025D0000E944A0840E050E060E87FE30E94A508BE
:1025E00048E0C42E52E0E52E00E023E333E343E568
:1025F00050E460E070E080E290E40E944A0840E02D
:1026000050E060E07FE30E94A50826E636E646EB50
:1026100050E460E070E080E290E40E944A0840E00C
:1026200050E060E07FE30E94A50823E333E343E545
:1026300050E460E070E080EB90E40E944A0840E0E3
:1026400050E060E07FE30E94A50826E636E646EB10
:1026500050E460E070E080EB90E40E944A0840E0C3
:1026600050E060E07FE30E94A50802E020E030E057
:1026700048EE50E460E070E080E090E40E944A0898
:102680008FB7F89440916B0150916C0160916D018E
:1026900070916E018FBF80916801882309F4D4C0C6
:1026A0001092680180E090E0892B51F30E940000B5
:1026B000E7CF3E983F98A6CE992031F034E04316FC
:1026C000510411F42E9A2F9881E00E944109920141
:1026D00057FE04C0222733272419350927703327D2
:1026E000C20157FC079673E0959587957A95E1F7B7
:1026F00057FE05C00197A801421B530B9A01AC017C
:102700005695542F44275795479547575E4FD12CE0
:10271000C12C3801621A730A8E3F6FEF960709F4D5
:102720003AC07A0174E9E70EF11CDA0170E060E06A
:10273000F601E653F84F5F018F3F980781F0F501EE
:10274000E60FF71FE491022E01C0EE0F0A94EAF79C
:102750005496FC915497EF2B5496EC935497211573
:10276000310581F0F501E60FF71FE491F0E01F015C
:10277000062C02C0359427940A94E2F7F701808072
:10278000282820826F5F7F4FFFEFEF1AFF0A119614
:102790006835710589F6019668E5C60ED11C40586A
:1027A0005F4F70EBC716D10409F0B6CF0E944C0CF6
:1027B0008FE090E00E94BE0B8FEF481A580A99E113
:1027C0004916510409F02FCE992011F02F9A2D9817
:1027D00080E991E00E94BE0B0E94BC0B81E090E07A
:1027E0000E94CC0C80FF29CE8AE090E00E94CC0CA5
:1027F0009FEF980F9E3F08F020CE22E330E0309309
:1028000065012093640128E330E030936301209355
:102810006201ABE0B0E0BA83A983682F89ED95E04F
:102820000E94CB0B89819A810E94CC0CE981FA81AC
:102830003196FA83E983719781F70E944C0C88EEF8
:1028400093E00E94BE0BF9CD80916901242F281BD3
:10285000822F90910001291748F48F5F891708F0A3
:1028600021CF81E083BF889513BE1CCF81E0809388
:10287000680140936901809166019091670101961A
:10288000909367018093660180E80E94410C812C3F
:10289000912C5401882339F00DEC802E0CEC902EF5
:1028A000A92C0DE3B02E80E10E94410C882339F061
:1028B0001DEC812E1CEC912EA92C1DEBB12E80E479
:1028C0000E94410CC12CD12C7601882341F0BFE835
:1028D000CB2EB2ECDB2EB5EFEB2EBDEBFB2E80E268
:1028E0000E94410C882341F0AFE8CA2EA2ECDA2EF8
:1028F000A5EFEA2EADE3FA2E0091E5071091E60769
:102900002090E7073090E8074090E9075090EA07E9
:102910006090EB077090EC074091ED075091EE0747
:102920006091EF077091F00749835A836B837C8332
:1029300020E030E0A901C501B4010E94E41D882314
:1029400009F440C0A5019401C301B2010E94871F90
:1029500020E030E040E853E40E94871F0E94671E99
:10296000D801A60FB71FBE83AD8329813A814B8161
:102970005C81C501B4010E94871F20E030E040E87F
:1029800053E40E94871F0E94671E5101A60EB71EC6
:10299000B1018D819E810E944F0C882311F01E830E
:1029A0000D83B501C8010E944F0C811101C01501B2
:1029B000ED81FE81F093E607E093E5073092E807AA
:1029C0002092E70720E030E0A901C701B6010E948C
:1029D000E41D882309F44EC0C701B6010E94E91D19
:1029E0006D837E838F839887C701B6010E94F41F91
:1029F0006B017C012D813E814F815885C301B2015D
:102A00000E94871F4B015C0129813A814B815C81C7
:102A1000C701B6010E94871F9B01AC01C501B4012B
:102A20000E94771D6093E9077093EA078093EB0794
:102A30009093EC07A7019601C301B2010E94871F82
:102A40006B017C0129813A814B815C816D817E81A2
:102A50008F8198850E94871F9B01AC01C701B60139
:102A60000E94781D6093ED077093EE078093EF0747
:102A70009093F007E7ECF9E08491E8ECF9E0E49159
:102A8000E82EF12CE114F10491F1EE2381F1F0E84C
:102A9000EF16F1040CF080E891E02E2F277009F476
:102AA00090E0E695E695E6959E0F993008F098E05F
:102AB00069E871E040E0A9ECB9E04917C1F030E005
:102AC00020E0281770F4FD01E20FF31F549147FD39
:102AD00005C08B01020F131FF80150832F5F3F4F7A
:102AE000F0CFAE0DBF1D4F5F60587F4FE6CF2091F6
:102AF000E5073091E6073E832D833E813F8F40916D
:102B0000E7075091E8075A8B498B5A895BA36D817F
:102B10007E8177277E8F6D8F89899A8999279C8BF3
:102B20008B8B20E030E040E853E46091E90770913E
:102B3000EA078091EB079091EC070E94871F0E94A3
:102B4000601E7C8F6B8F20E030E040E853E46091A2
:102B5000ED077091EE078091EF079091F0070E94CA
:102B6000871F0E94601E788F6F8BA091F707B0912E
:102B7000F807B8A7AFA3E0910308F0910408FCA7F9
:102B8000EBA720910108309102083AA729A71D8AD6
:102B9000612C312C212C912C812C80E091E0AC0116
:102BA0006D8D7E8D461B570B5CAB4BABDC01EB890F
:102BB000FC89AE1BBF0BBEABADAB2986F0E82F1670
:102BC000310409F4F6C2922D8827B0E0A0E046E077
:102BD000B695A795979587954A95D1F7AC015A95E3
:102BE0002F89388DDA010E944520672F782F892F91
:102BF000992787FD9A954B8C5C8C460E571E9A013F
:102C0000AB8DBC8D0E944520672F782F892F992787
:102C100087FD9A95EF88F88CE61AF70AC20157FEED
:102C200004C088279927841995096C018701F7FE4C
:102C300004C0002711270E191F0958018330910580
:102C40000CF469C10E94950C6C0157FE56C12D8D84
:102C50003E8DDC010E94681D672F782F892F9927F0
:102C60007EA76DA72FEF2D8760E07FEF30E0033068
:102C7000110584F0C8010E94950C5C01F7FE51C15A
:102C80002B893C89DC010E94681D672F782F892FD2
:102C900099273FEF8091F1079091F2075091F30748
:102CA0004BA12F8DADA5BEA5A617B70708F044C14F
:102CB000BD852B0F0DA51EA5F801EC0DFD1DFEA772
:102CC000EDA7712CE22F549FE00D1124E80FF92F8E
:102CD000F11DA081A983E9A5FAA50E171F0710F41D
:102CE000AA2301F3F985F0FD06C0F101EE7FEB5F49
:102CF000F74F118300839801ABA5BCA50E94681D06
:102D0000272F382F492F552744275527D8010E94B0
:102D10005D1D672F782F892F9927E72FFF27E03137
:102D200008F011C1EE0FFF1FEE0FFF1F2985237062
:102D3000E20FF11DE957F64F34913FAB89858721AA
:102D400009F096C64981442309F42FC2772009F47B
:102D5000FCC09801D2010E944520672F782F892F4F
:102D6000992787FD9A95AD81BE816A0F7B1F7727D2
:102D7000A4E076956795AA95E1F769877110F4C08C
:102D8000141415040CF4F2C02981261104C03985ED
:102D90004D89341749F0498569818FA198A50E9412
:102DA000B60C4C0159855D8B60E074E00131110572
:102DB000A8F0B80190E080E00E94961E20E030E08C
:102DC00040E85BE30E94871F9B01AC0160E070E07C
:102DD00080E892E40E94EE1D0E94671E8B0116950A
:102DE0000795F0E2AF2EB12CA01AB10AB7FE02C0CF
:102DF000B12CA12C09870132110514F080E28987DA
:102E00009985905E98AF90E080E00E94961E9B01AD
:102E1000AC0160E070E080E891E40E94EE1D20E0EB
:102E200030E040E857E40E94871F0E94671E6B0154
:102E30007C01B8016A0D7B1D60527109072E000CE0
:102E4000880B990BCB0177276627A70196010E9473
:102E5000542000E10E948120422E532E642E752EB4
:102E6000950153E0359527955A95E1F72987890112
:102E70001695102F002717950795A101400F511F98
:102E8000FA01E757FE4F808168ADA62FB0E0962F7C
:102E9000969596959695B50167707727611571059A
:102EA00009F477C0A9014F5F5F4F33E0440F551F0E
:102EB0003A95E1F7A417B5070CF4AD016D5C7E4FB0
:102EC000DB015C91A41608F059C06FA9652309F4D1
:102ED00051C0D301AA0FBB1FAF5EBE4F6D917C9155
:102EE00068217921672B09F445C0852B550FA394E0
:102EF0004C0C5D1C6E1C7F1CE5CF2BA93CA9DC0192
:102F00000E94681D672F782F892F99277EA76DA7AC
:102F100031E03D87A9CE40E05FEF5EA74DA71D865B
:102F2000A3CE2DA93EA9DC010E94681D672F782F32
:102F3000892F992731E0AECE430F8B016A0D7B1D9F
:102F400077247394BFCE1FAAF9CE9801D7010E94AF
:102F50004520672F782F892F992787FD9A95E98932
:102F6000FA896E0F7F1F03CFF7FE0ECFFFE0F61B2F
:102F7000F9870ACF652F60958623B8CF80832F5FAE
:102F800000581F4FA801420D531DFA01E757FE4F8D
:102F9000808161E0620FB0E86B9F50011124A20CA8
:102FA000B31C10E000E0EFA9E170ED87FFA9F2701B
:102FB000FDA73FA934703FA76FA9687069ABBFA98F
:102FC000B071AFA9A0723FA93074291708F0BAC038
:102FD0007D85772361F0F301EE0FFF1FEF5EFE4F5B
:102FE0006081718168217921672B09F09BC08E7FF8
:102FF0004C0C5D1C6E1C7F1CEDA5EE2361F0F301F3
:10300000EE0FFF1FEF5EFE4F608171816821792115
:10301000672B09F089C08D7F4C0C5D1C6E1C7F1CDA
:10302000FFA5FF2361F0F301EE0FFF1FEF5EFE4FE0
:103030006081718168217921672B09F077C08B7FCE
:103040004C0C5D1C6E1C7F1C69A9662361F0F301AA
:10305000EE0FFF1FEF5EFE4F6081718168217921C5
:10306000672B09F065C0877F4C0C5D1C6E1C7F1CB4
:10307000BB2361F0F301EE0FFF1FEF5EFE4F608197
:10308000718168217921672B09F054C08F7E4C0C27
:103090005D1C6E1C7F1CAA2361F0F301EE0FFF1F65
:1030A000EF5EFE4F6081718168217921672B09F005
:1030B00043C08F7D4C0C5D1C6E1C7F1C332359F06C
:1030C000F301EE0FFF1FEF5EFE4F608171816821FB
:1030D0007921672B99F58F7B4C0C5D1C6E1C7F1C36
:1030E0007FA977FF0BC0F301EE0FFF1FEF5EFE4FCE
:1030F0006081718168217921672B11F58F7747579E
:103100005E4FFA0180832F5FA501400F511FFA0126
:10311000E757FE4F80814C0C5D1C6E1C7F1C0058D5
:103120001F4F53CF816064CF826076CF846088CF99
:1031300088609ACF8061ABCF8062BCCF8064CCCFF7
:103140008068DDCF38AD377079F1F985F91761F115
:10315000220F220F220F91E068AD2617D0F46FA93D
:10316000692359F0F301EE0FFF1FEF5EFE4F608100
:10317000718168217921672B51F4692F609586232D
:10318000990F2F5F4C0C5D1C6E1C7F1CE5CF892BAB
:10319000F7CF47575E4FE32FF0E0ED5CFE4F908195
:1031A00090958923DA018C936980BFEF2B1A3B0A33
:1031B00004CD8091F7079091F807892B09F454C446
:1031C0000091E30610E01A8219820117E9F080915C
:1031D000DD069091DE06E981FA818E0F9F1FDC01EA
:1031E00013962C91139720FF08C01496ED91FC9133
:1031F000309719F069ED75E009951F5FE981FA8153
:103200003796FA83E983E1CFE090E507F090E6078F
:1032100064E0F694E7946A95E1F7C090E707D090F0
:10322000E80774E0D694C7947A95E1F78090E306B6
:10323000A090DF06B090E006912C198A10E000E023
:10324000891409F45AC02091DD063091DE06200F62
:10325000311F3A832983F901838180FF4AC040816D
:1032600050E04E195F09A181B0E0AC19BD099D0184
:103270000E9445202B013C0134E0759467945794DB
:1032800047943A95D1F79A01DA010E94452044E02B
:1032900095958795779567954A95D1F7460E571E70
:1032A00029892150E22F022E000CFF0B3196EE0FE0
:1032B000FF1FEE0FFF1FEA0DFB1D27FD11C0DF01F1
:1032C00012978D919C918415950554F4B291A29119
:1032D0009291829184839583A683B7832150EDCF09
:1032E00049815A81518340835382428259895F5F69
:1032F000598B9394095F1F4FA3CF6091F907709189
:10330000FA077C8F6B8F8091FB079091FC079E8F53
:103310008D8F6091E5077091E60790E080E00E9454
:10332000961E20E030E040E85BE30E94871F6F8F2D
:1033300078A389A39AA36091E7077091E80790E0CA
:1033400080E00E94961E20E030E040E85BE30E94AF
:10335000871F6BA37CA38DA39EA32091ED073091C3
:10336000EE074091EF075091F00729873A874B8786
:103370005C874091E9075091EA076091EB077091F3
:10338000EC074D875E876F87788B29853A854B855B
:103390005C85CA01B9010E94871F6B017C016D85A4
:1033A0007E858F85988990582D853E854F855889D3
:1033B0000E94871F9B01AC01C701B6010E94771DC7
:1033C0009B01AC0160E070E080E89FE30E94EE1D8D
:1033D0006F8B788F898F9A8F1B8A1E8A1D8A5B89D3
:1033E0006989561709F440C3E091DF06F091E006C1
:1033F0008D899E89E80FF91FA081B181BE83AD83BD
:103400006C9170E090E080E00E94981E20E030E037
:1034100040E85DE30E94871F2F8D38A149A15AA182
:103420000E94771D4B015C01ED81FE81618170E09E
:1034300090E080E00E94981E20E030E040E85DE3EC
:103440000E94871F2BA13CA14DA15EA10E94771D68
:103450006B017C01A50194016D857E858F8598891E
:103460000E94871F2B013C01A701960169857A857F
:103470008B859C850E94871F9B01AC01C301B20113
:103480000E94781D2F89388D498D5A8D0E94871F83
:1034900069837A838B839C832DEC3CEC4CE45EE364
:1034A0000E94E41D87FDD6C2AD81BE811396BC91FA
:1034B000EB2FF0E0F8A7EFA3F595E795E370FF2772
:1034C000EB50F84F608570E090E080E00E94981E1D
:1034D00020E030E040E85DE30E94871F2B013C01C3
:1034E00029813A814B815C8160E070E080E892E460
:1034F0000E94EE1D9B01AC01C301B2010E94871F17
:103500000E94671E2B018B01169507952091ED07F0
:103510003091EE074091EF075091F007C501B401DB
:103520000E94871F4B015C012091E9073091EA0757
:103530004091EB075091EC07C701B6010E94871F2D
:103540009B01AC01C501B4010E94771D2F89388D04
:10355000498D5A8D0E94871F29813A814B815C8158
:103560000E94EE1D20E030E040E85FE30E94781DFD
:1035700020E030E040E852E40E94871F0E94601E75
:103580007B01E01AF10A5701A40CB51CB7FC62C21A
:1035900021E8E216F1040CF05DC24FA158A583E0CA
:1035A000559547958A95E1F758A74FA341155105C1
:1035B00009F420C1BA016F70772744FF03C07195E9
:1035C00061957109072E000C880B990B0E94981EBB
:1035D0009B01AC010E94781D29813A814B815C815D
:1035E0000E94EE1D0E94601E78A76FA360E270E04B
:1035F000601B710B8FA198A5860F971F9EA78DA7A3
:103600008C01040D151D17FD25C2813491050CF0A8
:1036100021C26C0197FF02C0D12CC12CCFA2013472
:10362000110514F000E410E009A71701F7FE02C02D
:10363000312C212C91E8A916B1041CF0B0E8AB2E76
:10364000B12CABA6B20190E080E00E94961E9B01D7
:10365000AC0160E070E080E891E40E94EE1D4B0157
:103660005C01B1016E197F09072E000C880B990BC4
:103670000E94981EA50194010E94871F20E030E05F
:1036800040E853E40E94871F0E94671E2B01B60189
:10369000ADA5BEA56A1B7B0B072E000C880B990BF2
:1036A0000E94981EA50194010E94871F20E030E02F
:1036B00040E853E40E94871F0E94671E3B0120E000
:1036C00030E040E853E4C501B4010E94871F0E9426
:1036D000671E79AF68AF20E030E040E853E46981CD
:1036E0007A818B819C810E94871F0E94671E7EA722
:1036F0006DA7ED81FE818280960173E03595279557
:103700007A95E1F7922EA9015695542F44275795A3
:10371000479558AB4FA75801F3E0B594A794FA9595
:10372000E1F7C9010196A3E0880F991FAA95E1F777
:10373000081719070CF4C8018D83BB24B394B20E8B
:1037400080E8B89EB00111247A83698397E0C9228A
:10375000DD24D801A770BB27BCABABABF601ED5C99
:10376000FE4FFEABEDABF101EE7FEB5FF74F8081DB
:1037700091812DA53EA52817390708F060C1452D78
:10378000682D8B8D9C8D0E94B60C8C01452D682D6B
:103790008D8D9E8D0E94B60CAC01AFA5B8A9A20D6F
:1037A000B31DFD01E757FE4F90819301892DC11490
:1037B000D10489F1ADA9BEA98C91FFA0BD81FB16F2
:1037C00000F5A32FBB27AA0FBB1FAF5EBE4F6D91A5
:1037D0007C91DA01A623B723AB2B29F06023712358
:1037E000672B59F0982B880FF39468AD79AD260FAD
:1037F000371FE4CF18A61FA2F9CE682F6095962335
:10380000F2CF9083A981BA81A20DB31DFD01E757C4
:10381000FE4F90818B2D61E0680FE0E86E9FB00154
:103820001124FB01E20DF31DFAABE9ABF12CE12C05
:103830008A1508F0D6C0E32FFF27EE0FFF1FEF5EBB
:10384000FE4F60817181FA01E623F723EF2B31F0FF
:1038500060237123672B09F4B4C0916068AD79AD22
:10386000260F371FE32FFF27EE0FFF1FEF5EFE4FE0
:1038700060817181FA01E623F723EF2B31F0602399
:103880007123672B09F49FC09260E8ADF9AD2E0F4C
:103890003F1FE32FFF27EE0FFF1FEF5EFE4F6081FC
:1038A0007181FA01E623F723EF2B31F060237123B6
:1038B000672B09F48AC0946068AD79AD260F371F75
:1038C000E32FFF27EE0FFF1FEF5EFE4F6081718138
:1038D000FA01E623F723EF2B31F060237123672BE6
:1038E00009F475C09860E8ADF9AD2E0F3F1FE32FC6
:1038F000FF27EE0FFF1FEF5EFE4F60817181FA011F
:10390000E623F723EF2B31F060237123672B09F4B3
:1039100060C0906168AD79AD260F371FE32FFF2798
:10392000EE0FFF1FEF5EFE4F60817181FA01E6230B
:10393000F723EF2B31F060237123672B09F44BC081
:103940009062E8ADF9AD2E0F3F1FE32FFF27EE0F7A
:10395000FF1FEF5EFE4F60817181FA01E623F723BE
:10396000EF2B29F060237123672BB9F1906468ADC8
:1039700079AD260F371FE32FFF27EE0FFF1FEF5EF6
:10398000FE4F60817181FA01E623F723EF2B29F0C6
:1039900060237123672B19F19068A757BE4F9C9342
:1039A0008F5FA9A9BAA9AE0DBF1DFD01E757FE4F54
:1039B0009081E8ADF9AD2E0F3F1FF0E8EF0EF11C3E
:1039C00037CF9E7F4BCF9D7F60CF9B7F75CF977FFB
:1039D0008ACF9F7E9FCF9F7DB4CF9F7BC8CF9F779D
:1039E000DCCF6BA97CA9672B51F19A1441F1880FA8
:1039F000880F880FFF24F39479A58717E8F4E32F45
:103A0000FF27EE0FFF1FEF5EFE4F60817181FA010D
:103A1000E623F723EF2B29F060237123672B41F076
:103A20009F29FF0C8F5FE8ADF9AD2E0F3F1FE4CF4C
:103A30006F2D60959623F5CFA757BE4F9C9328AD69
:103A400039AD420E531E3FEF231A330A4BA52416FD
:103A500008F489CE5B895F5F5B8B6D897E896C5FC3
:103A60007F4F7E8B6D8BBBCC0E944C0C0C94521301
:103A70007981772309F499CB1FAA6BC9FB01DC017B
:103A800002C005900D9241505040D8F70895F99921
:103A9000FECF92BD81BDF89A992780B50895262F53
:103AA000F999FECF1FBA92BD81BD20BD0FB6F89423
:103AB000FA9AF99A0FBE019608950E94681DA59F73
:103AC000900DB49F900DA49F800D911D1124089519
:103AD000A29FB001B39FC001A39F700D811D11244F
:103AE000911DB29F700D811D1124911D0895505894
:103AF000BB27AA270E948F1D0C94391F0E94001F0C
:103B000038F00E94071F20F039F49F3F19F426F483
:103B10000C94FD1E0EF4E095E7FB0C94F71EE92FC4
:103B20000E945E1F58F3BA17620773078407950750
:103B300020F079F4A6F50C94801F0EF4E0950B2E7E
:103B4000BA2FA02D0B01B90190010C01CA01A001EF
:103B50001124FF27591B99F0593F50F4503E68F14A
:103B60001A16F040A22F232F342F4427585FF3CF8B
:103B7000469537952795A795F0405395C9F77EF45C
:103B80001F16BA0B620B730B840BBAF09150A1F0A5
:103B9000FF0FBB1F661F771F881FC2F70EC0BA0F2B
:103BA000621F731F841F48F4879577956795B795B3
:103BB000F7959E3F08F0B0CF9395880F08F09927AE
:103BC000EE0F9795879508950E94D31E08F481E023
:103BD00008950E94101FE3950C944A1F0E94021E34
:103BE0000C94391F0E94071F58F00E94001F40F0DC
:103BF00029F45F3F29F00C94F71E51110C94811F9A
:103C00000C94FD1E0E945E1F68F39923B1F35523A7
:103C100091F3951B550BBB27AA27621773078407DF
:103C200038F09F5F5F4F220F331F441FAA1FA9F375
:103C300035D00E2E3AF0E0E832D091505040E69563
:103C4000001CCAF72BD0FE2F29D0660F771F881FC4
:103C5000BB1F261737074807AB07B0E809F0BB0BB7
:103C6000802DBF01FF2793585F4F3AF09E3F5105CB
:103C700078F00C94F71E0C94811F5F3FE4F3983E9C
:103C8000D4F3869577956795B795F7959F5FC9F7B4
:103C9000880F911D9695879597F90895E1E0660F35
:103CA000771F881FBB1F621773078407BA0720F0AE
:103CB000621B730B840BBA0BEE1F88F7E095089517
:103CC0000E94671E6894B1110C94811F08950E9490
:103CD000661F88F09F5798F0B92F9927B751B0F019
:103CE000E1F0660F771F881F991F1AF0BA95C9F780
:103CF00014C0B13091F00E94801FB1E008950C947F
:103D0000801F672F782F8827B85F39F0B93FCCF331
:103D1000869577956795B395D9F73EF490958095FC
:103D2000709561957F4F8F4F9F4F0895E89409C01C
:103D300097FB3EF490958095709561957F4F8F4FDE
:103D40009F4F9923A9F0F92F96E9BB279395F695F4
:103D5000879577956795B795F111F8CFFAF4BB0F72
:103D600011F460FF1BC06F5F7F4F8F4F9F4F16C0D6
:103D7000882311F096E911C0772321F09EE8872F60
:103D8000762F05C0662371F096E8862F70E060E01C
:103D90002AF09A95660F771F881FDAF7880F969595
:103DA000879597F90895990F0008550FAA0BE0E839
:103DB000FEEF16161706E807F907C0F012161306ED
:103DC000E407F50798F0621B730B840B950B39F42D
:103DD0000A2661F0232B242B252B21F408950A2693
:103DE00009F4A140A6958FEF811D811D089597F9D3
:103DF0009F6780E870E060E008959FEF80EC089591
:103E000000240A94161617061806090608950024B9
:103E10000A94121613061406050608950C94FD1E46
:103E20000E94661FD8F3E894E0E0BB279F57F0F0AC
:103E30002AED3FE049EC06C0EE0FBB0F661F771F6F
:103E4000881F28F0B23A62077307840728F0B25A35
:103E5000620B730B840BE3959A9572F7803830F4FC
:103E60009A95BB0F661F771F881FD2F790480C9456
:103E7000FE1F092E0394000C11F4882352F0BB0F8F
:103E800040F4BF2B11F460FF04C06F5F7F4F8F4F72
:103E90009F4F0895EF93E0FF07C0A2EA2AED3FE0AD
:103EA00049EC5FEB0E948F1D0E94391F0F90039415
:103EB00001FC9058ECEAF0E00C940A2057FD905871
:103EC000440F551F59F05F3F71F04795880F97FBDE
:103ED000991F61F09F3F79F0879508951216130698
:103EE0001406551FF2CF4695F1DF08C016161706C7
:103EF0001806991FF1CF86957105610508940895FC
:103F0000E894BB2766277727CB0197F908950E948D
:103F10009A1F0C94391F0E94001F38F00E94071F3F
:103F200020F0952311F00C94F71E0C94FD1E112423
:103F30000C94811F0E945E1F70F3959FC1F3950F33
:103F400050E0551F629FF001729FBB27F00DB11D1D
:103F5000639FAA27F00DB11DAA1F649F6627B00DAD
:103F6000A11D661F829F2227B00DA11D621F739F96
:103F7000B00DA11D621F839FA00D611D221F749FA4
:103F80003327A00D611D231F849F600D211D822FEB
:103F9000762F6A2F11249F5750409AF0F1F0882312
:103FA0004AF0EE0FFF1FBB1F661F771F881F91503F
:103FB0005040A9F79E3F510580F00C94F71E0C94D9
:103FC000811F5F3FE4F3983ED4F38695779567951C
:103FD000B795F795E7959F5FC1F7FE2B880F911D69
:103FE0009695879597F908959F930E94101F0F90BB
:103FF00007FCEE5F0C944A1F9F3F31F0915020F474
:10400000879577956795B795880F911D96958795B4
:1040100097F908959F938F937F936F93FF93EF93F7
:104020009B01AC010E94871FEF91FF910E941E200F
:104030002F913F914F915F910C94871FDF93CF9306
:104040001F930F93FF92EF92DF927B018C01689494
:1040500006C0DA2EEF010E949A1FFE01E894A59196
:104060002591359145915591A6F3EF010E948F1D41
:10407000FE019701A801DA9469F7DF90EF90FF90B5
:104080000F911F91CF91DF9108950E94681D3323F6
:1040900012F48A1B9B0B0C944F200E94681DB7FFE3
:1040A0000895821B930B0895E894DF93CF93FC014E
:1040B000DB010E94681D7F936F93E9019A01AC01B7
:1040C000BF93AF933F932F93DF010E94681D26F4A7
:1040D0006C1B7D0B820B930B9E01EB01FC010E947C
:1040E000A220AF91BF912F913F910E94A220BE01CB
:1040F000CF01F9012F913F91CF91DF91089597FD65
:104100001094002E083098F00850232F342F452F9C
:10411000562F672F782F892F912DF4CF15949795CF
:1041200087957795679557954795379527950A957C
:10413000AAF71124002D0895EE0FFF1F0590F491AA
:10414000E02D09940E94681D460F571FC81FD91FF4
:0A41500008F431960895F894FFCFAB
:10415A0010FFFFFFFF00E100000000000018100838
:10416A000401000200040008001000200040008042
:10417A0000000100020004000800100020004000B6
:10418A0080008001020408102040808000C18081E4
:10419A00000000000000009F090A0BC009B50906CB
:1041AA000AC409E20900000000CB0B8F0BC90CC836
:0241BA000C00F7
:00000001FF
