:100000000C94CC030C94F4030C94F4030C94F403BC
:100010000C94F4030C94F4030C94F4030C94F40384
:100020000C94F4030C94F4030C941F130C948E138F
:100030000C94F4030C94F4030C94F4030C94F40364
:100040000C94F4030C94F4030C94F4030C94F40354
:100050000C94F4030C94F4030C94F4030C9407161E
:100060000C94F4030C94F4030C94F4030C94F40334
:100070000C94F4030C94F4030C94F4030C94F40324
:100080000C94C0150C94F4030C94F4030C94F40336
:100090000C94F4030C94F4030C94F4030C94F40304
:1000A0000C94F4030C94F4030C94F403000000008B
:1000B000003E5B4F5B3E3E6B4F6B3E1C3E7C3E1CEE
:1000C000183C7E3C181C577D571C1C5E7F5E1C0034
:1000D000183C1800FFE7C3E7FF0018241800FFE7EB
:1000E000DBE7FF30483A060E2629792926407F05AE
:1000F0000507407F05253F5A3CE73C5A7F3E1C1CC4
:1001000008081C1C3E7F14227F22145F5F005F5F83
:1001100006097F017F006689956A6060606060946F
:10012000A2FFA29408047E040810207E2010080874
:100130002A1C08081C2A08081E101010100C1E0C7F
:100140001E0C30383E3830060E3E0E060000000011
:100150000000005F00000007000700147F147F14F8
:10016000242A7F2A1223130864623649562050003D
:1001700008070300001C2241000041221C002A1C29
:100180007F1C2A08083E0808008070300008080814
:100190000808000060600020100804023E51494534
:1001A0003E00427F400072494949462141494D3352
:1001B0001814127F1027454545393C4A49493141B9
:1001C000211109073649494936464949291E000087
:1001D00014000000403400000008142241141414DC
:1001E0001414004122140802015909063E415D59C8
:1001F0004E7C1211127C7F494949363E41414122D1
:100200007F4141413E7F494949417F090909013EFA
:10021000414151737F0808087F00417F4100204021
:10022000413F017F081422417F404040407F021C33
:10023000027F7F0408107F3E4141413E7F0909094A
:10024000063E4151215E7F09192946264949493216
:1002500003017F01033F4040403F1F2040201F3FDC
:100260004038403F63140814630304780403615961
:10027000494D43007F4141410204081020004141A3
:10028000417F04020102044040404040000307084F
:100290000020545478407F2844443838444444284B
:1002A000384444287F385454541800087E090218F2
:1002B000A4A49C787F0804047800447D400020407A
:1002C000403D007F1028440000417F40007C0478BE
:1002D00004787C080404783844444438FC18242406
:1002E0001818242418FC7C08040408485454542486
:1002F00004043F44243C4040207C1C2040201C3C03
:100300004030403C44281028444C9090907C4464F9
:10031000544C44000836410000007700000041368C
:10032000080002010204023C2623263C1EA1A16112
:10033000123A4040207A3854545559215555794144
:100340002154547841215554784020545579400C1B
:100350001E527212395555555939545454593955FC
:100360005454580000457C410002457D420001453F
:100370007C40F0292429F0F0282528F07C545545AC
:10038000002054547C547C0A097F4932494949323F
:100390003248484832324A4848303A4141217A3A54
:1003A00042402078009DA0A07D39444444393D401E
:1003B00040403D3C24FF2424487E4943662B2FFCCB
:1003C0002F2BFF0929F620C0887E09032054547979
:1003D000410000447D413048484A32384040227A4A
:1003E000007A0A0A727D0D19317D2629292F2826C7
:1003F0002929292630484D402038080808080808CF
:100400000808382F10C8ACBA2F102834FA00007B27
:10041000000008142A142222142A1408950022002D
:1004200095AA005500AAAA55AA55AA000000FF00E7
:10043000101010FF00141414FF001010FF00FF1024
:1004400010F010F0141414FC001414F700FF000056
:10045000FF00FF1414F404FC141417101F10101FD5
:10046000101F1414141F00101010F0000000001FC3
:10047000101010101F10101010F010000000FF10CE
:100480001010101010101010FF10000000FF1400CA
:1004900000FF00FF00001F10170000FC04F41414FC
:1004A0001710171414F404F40000FF00F7141414C8
:1004B00014141414F700F7141414171410101F1048
:1004C0001F141414F4141010F010F000001F101F6B
:1004D0000000001F14000000FC140000F010F010D9
:1004E00010FF10FF141414FF141010101F00000050
:1004F00000F010FFFFFFFFFFF0F0F0F0F0FFFFFF54
:100500000000000000FFFF0F0F0F0F0F38444438AA
:10051000447C2A2A3E147E02020606027E027E02E5
:1005200063554941633844443C04407E201E200604
:10053000027E020299A5E7A5991C2A492A1C4C7241
:1005400001724C304A4D4D303048784830BC625AC8
:10055000463D3E494949007E0101017E2A2A2A2A58
:100560002A44445F444440514A444040444A514034
:100570000000FF0103E080FF000008086B6B0836F5
:1005800012362436060F090F060000181800000066
:100590001010003040FF0101001F01011E00191D55
:1005A0001712003C3C3C3C000000000000B0000082
:1005B000A170E150964F26900F1D070C0096690020
:1005C0004AE44A0048444000806810000F99FB8FBD
:1005D0009DBDBBFB77D4D4DF1F1A1AFE7F5D5DFF84
:1005E000805A0000A0A4AA0010BA3400FF5953F3A7
:1005F000FF9B9B9EFFB9B996FF9595D19FF4940FF1
:10060000FC295F91FF1838F8FF9294FFFF95D5F70A
:10061000BFB5DDD7F18F81F1F788C8F779C6467984
:1006200009FD9B090196F800828182805071620069
:100630007756560076763700A2B773010772060028
:100640007827500073347400775176007F55F70097
:1006500047711000324772007364730015A2750071
:1006600061679400009F6060F4F2F6F2F0F89C8EEF
:100670008783878E9CF8F00000FEFF0303030303CB
:10068000070EFCF80000FEFF0303030303070EFC44
:10069000F80000FFFF00000000000000FFFF000066
:1006A000FEFF8383838383C7EE7C380000F8FC0E53
:1006B00007030303070EFCF800003F7FE0C08080C3
:1006C000C0E07F3FFFFF01010101010101FFFF00C9
:1006D00000FFFF0C0C0C0C1C3E77E3C100007FFFF9
:1006E000C0C0C0C0C0E0703F1F00001F3F70E0C02E
:1006F000C0C0E0703F1F00007FFFC1C1C1C1C1E3A6
:10070000773E1C00001F3F70E0C0C0C0E0703F1F7C
:10071000000000000001FFFF01000000D5F08D1473
:10072000A1C881CFD9F1AF2000080B00020202005E
:100730000009040000010202000005240010010568
:100740002401010104240206052406000107058195
:100750000310004009040100020A0000000705021E
:100760000240000007058302400000040309041250
:10077000010002EF02014041233680000101020323
:100780000141726475696E6F204C4C430041726484
:1007900075626F790000841611241FBECFEFDAE076
:1007A000DEBFCDBF11E0A0E0B1E0E0E4F6E402C0BE
:1007B00005900D92AC36B107D9F728E0ACE6B1E070
:1007C00001C01D92A038B207E1F713E0CCECD3E0F2
:1007D00004C02197FE010E941823CB3CD107C9F722
:1007E0000E9400170C941E230C9400008091750148
:1007F0000895E8E6F4E0A0E0B8E000800EBC8111C6
:10080000012C1197A0FDFDCF0192B9F70DB4089509
:100810005E9881E00E94F9035E9A0895E1E0F0E0BD
:100820000E942304319728F068517C4F8F4F9F4FCF
:10083000F9CFAB01FC010E942304641775078E07F2
:100840009F07C8F30895ACE7B1E02FB7F8947D9106
:100850008D919C9166B52FBFA89B05C06F3F18F482
:100860007F5F8F4F9F4F22E0660F771F881F991F72
:100870002A95D1F70895FC018091AE01882311F1EA
:100880003FB7F89482E08093E9002091F200822F34
:1008900090E01816190614F481E090E0882339F0EE
:1008A000289844E64093AD014091F1004083222313
:1008B00039F02091F200211103C02BE62093E800CB
:1008C0003FBF08958FEF9FEF08952FB7F89483E00F
:1008D0008093E9009091E800892F807295FF04C011
:1008E0009091F20080E4891B2FBF08958091A501AB
:1008F00081110DC082E08093A10184E08093A20168
:100900001092A4011092A30181E08093A50181EAD5
:1009100091E008958F929F92AF92BF92CF92DF9213
:10092000EF92FF920F931F93CF93DF936C017B01A4
:100930008A0180910F01882309F458C08091AE018B
:10094000882309F453C08091A00180FF05C08091E5
:10095000E00082608093E000E801B12C8AEFA82ECD
:1009600093E0892E2AE3922E209711F4BB20B9F14F
:100970000E946504811106C0AA94AA20B9F10E94C0
:100980000E04F2CF8C171D0611F00CF08C2F9FB7C0
:10099000F8948092E9002091E80025FD02C09FBFF5
:1009A000E3CF282F30E0C21BD30BF701815020F09A
:1009B00041914093F100FACFE20EF31EBB2021F0EB
:1009C0009092E800B12CEBCF8091E80085FDE7CF55
:1009D0009092E800BB24B394209709F3F3CF5D987D
:1009E00084E680939F01101611063CF081E090E0B0
:1009F000F6019383828310E000E0C801DF91CF917C
:100A00001F910F91FF90EF90DF90CF90BF90AF902C
:100A10009F908F900895CF93DF931F92CDB7DEB74D
:100A20006983DC01ED91FC910280F381E02D41E0CE
:100A300050E0BE016F5F7F4F09950F90DF91CF911E
:100A4000089583E08093E9008091F200882319F0F3
:100A50008AE38093E80008950E94650490E0089579
:100A6000CF93DF931F92CDB7DEB7FC0184859585C8
:100A700097FD08C02FEF3FEF358724870F90DF9158
:100A8000CF910895CE0101960E943B04019719F47D
:100A9000898190E0F3CF8FEF9FEFF0CF0F931F93FB
:100AA000CF93DF931F92CDB7DEB78C01FC01848515
:100AB000958597FF0BC0CE0101960E943B040197DC
:100AC00071F4898190E0F80195878487F801848525
:100AD00095850F90DF91CF911F910F9108958FEF22
:100AE0009FEFF1CFFC018485958597FD0BC09FB7E3
:100AF000F89482E08093E9008091F2009FBF90E03B
:100B0000019608959FB7F89482E08093E900809160
:100B1000F2009FBF90E0089540919B0150919C018D
:100B20002091990130919A0142175307B4F49091A2
:100B3000E8009570E1F39091E80092FD19C0809370
:100B4000F10080919B0190919C0101968F739927F0
:100B5000892B19F48EEF8093E80080919B0190918E
:100B60009C01019690939C0180939B0181E00895E4
:100B700080E00895DF92EF92FF920F931F93CF933F
:100B8000DF93D82E8A01EB017B01E40EF51ECE1512
:100B9000DF0559F0D7FE12C0FE0184910E948C053A
:100BA00021968111F4CF0FEF1FEFC801DF91CF9194
:100BB0001F910F91FF90EF90DF9008958881EECF05
:100BC0000F931F93CF93DF931F92CDB7DEB782E0D1
:100BD000898342E450E069E277E080E80E94BA0548
:100BE0000E947604DC0112960D911C9101151105ED
:100BF00089F0D801ED91FC910280F381E02DBE01D6
:100C00006F5F7F4FC801099597FD04C0F80100850B
:100C10001185ECCF89810F90DF91CF911F910F91BA
:100C20000895615030F02091F100FC01208301967D
:100C3000F8CF289884E68093AD010895AF92BF92D3
:100C4000CF92DF92EF92FF920F931F93CF93DF9398
:100C50006C017B018B01040F151FEB015E01AE18C7
:100C6000BF08C017D10759F06991D601ED91FC91E9
:100C70000190F081E02DC6010995892B79F7C50116
:100C8000DF91CF911F910F91FF90EF90DF90CF9068
:100C9000BF90AF9008956F927F928F929F92AF9284
:100CA000BF92CF92DF92EF92FF920F931F93CF9359
:100CB000DF934C017B01C22F102F98E0A92EB12C9D
:100CC000642E669466946694712CCA018770992785
:100CD000892B79F5D40117962D913C91C70199275D
:100CE000B9010E940423269DF001279DF00D369D39
:100CF000F00D11248E0F9F1FD4011596ED91FC91DC
:100D0000E80FF91F2081111112C0C095C223C083C2
:100D1000DF91CF911F910F91FF90EF90DF90CF90D7
:100D2000BF90AF909F908F907F906F900895C22B4F
:100D3000EECFD0E04770C42ED12C83E0660C771C38
:100D40008A95E1F79E0101C0220F4A95EAF7012F2B
:100D5000A301B701C4010E944B06A301485F5F4F86
:100D6000C5018C199D0902C0D595C7958A95E2F7F2
:100D7000A7CF5F926F927F928F929F92AF92BF9216
:100D8000CF92DF92EF92FF920F931F93CF93DF9357
:100D9000EC016A30F1F48D859E859C878B878B8969
:100DA0002F853889820F932F911D988B8F8781E033
:100DB00090E0DF91CF911F910F91FF90EF90DF9026
:100DC000CF90BF90AF909F908F907F906F905F90EB
:100DD0000895AB84BC84693031F429E0A20EB11CC3
:100DE000BC86AB86E4CF3DEFA3163FEFB3060CF411
:100DF0005BC08F819885A816B9060CF055C0CF84CA
:100E0000D8888DEFC8168FEFD8060CF44DC08985B1
:100E10009A85C816D9060CF047C060320CF46FE70B
:100E200080EE860F9FE9960F9A3118F49FEFC91A4A
:100E3000D90A8C3011F08B3119F42FEFC21AD20A73
:100E4000869534E0839FC00111249C0124553A4FBC
:100E50007901912C812C162F1170F701E80DF91DE5
:100E6000549011112BC0352D3F70532E3501680C55
:100E7000791C8C81882351F001E08989811100E07F
:100E80002FE0A601B301CE010E944B060989252D52
:100E9000A601B301CE010E944B068FEF881A980A73
:100EA00094E089169104C9F68A8990E004962B850E
:100EB0003C85820F931F9C878B8779CF52948FE05C
:100EC0005822D4CF2091B303E091B103F091B20343
:100ED000CF0102969093B2038093B103222319F0BD
:100EE000859194910895808191810895CF92DF92A8
:100EF000EF92FF92CF93DF930E946207811520E863
:100F0000920791F4809171008D7F8093710010920F
:100F100091004698479810928201DF91CF91FF90FF
:100F2000EF90DF90CF90089521E0209382018130EF
:100F300020E8920751F48091AF039091B003909311
:100F4000B2038093B1030E94620797FD05C0209110
:100F50008101222309F454C020918001211150C045
:100F600021E020938301EC01DF77209709F04BC04B
:100F700081E08093840146983FE9C32E3FE0D32E61
:100F8000E12CF12CCAEFD0E0E0911204F0911304AF
:100F90000995811103C081E08093840180918301D0
:100FA000882329F080918401882309F43FC0479861
:100FB0000E9462070097F1F19C01DE010E94D72296
:100FC000DC01CB0129E0B595A795979587952A95E2
:100FD000D1F7109290002AE020939100D0929900CE
:100FE000C09298008093850190938601A093870119
:100FF000B0938801809171008260809371008DCFE1
:1010000010928301B0CF9E0150E040E060E472E4B2
:101010008FE090E00E94962269017A0181E0C81A6F
:10102000D108E108F10810928401AECF4699BFCFF4
:10103000479ABECF8FEF9FEFDC01CBCF9C01E1E75A
:10104000F0E090819D7F90831092B303E4E0F4E0A0
:10105000F093B203E093B103F093B003E093AF03D6
:101060003183208384E690E0938382837583648355
:1010700082E390E09783868380E090E89187808781
:101080000C9476079C01E1E7F0E090819D7F9083CE
:101090001092B303E4E0F4E0F093B203E093B10301
:1010A000F093B003E093AF033183208384E690E0B4
:1010B0009383828380E090E8958384830C94760701
:1010C0000DB407FEFDCF8EB5599A08950E946B08A6
:1010D000982F0C9460080DB407FEFDCF8EB51EBC92
:1010E00008950E946B08982F0C946B089B01482F61
:1010F00000908D01300D00908E01401D599883E0C5
:101100000E94D809842F0E94D809832F0E94D809F1
:10111000822F0E94D8091EBC0895CF93DF9390E0E0
:10112000999F09F4192E5527090E151E600D711D82
:10113000851F11240E947608CFEAD1E083E0CE3AE1
:10114000D80721F00E946B088993F8CF0E946008AD
:101150008093AE03DF91CF9108953F924F925F92BB
:101160006F927F928F929F92AF92BF92CF92DF92B7
:10117000EF92FF920F931F93CF93DF935C016B016C
:101180003901842E402E3E2C842FB9010E9476080E
:101190000E947108582EC82FD92F0E946608AE01F0
:1011A0004A0D5B1D141615060CF0E6C020E8A216C9
:1011B000B1040CF0E1C0FC019C012C0D3D1D121688
:1011C00013060CF0D9C090E4C916D1040CF0D4C0B9
:1011D000B7FE0BC0EE24FF24EA18FB085E18403867
:1011E00051055CF060E8562E08C0413851051CF0EE
:1011F00090E8592E5A18F12CE12CD7FECFC00027C9
:1012000011270C191D09087F9F01201B310B982EF7
:10121000901A2134310534F08C2D8195877050E47B
:10122000952E980E43E0159507954A95E1F724E031
:10123000620E711C811C6E0C7F1C811CF7FC8A9451
:10124000CF01079697FD079623E0959587952A95F8
:10125000E1F7489E9001499E300D1124200F311F67
:10126000032E000C440BBE010D2E000C880B0E94B7
:10127000E622660E771E881EC60133E09595879597
:101280003A95E1F7080F31E0C1FC34E0C0FC330FC0
:10129000C2FC329520E80203D0011124AA0DBB1D27
:1012A000AE0DBF1DA859BB4F292D599883E08EBDA7
:1012B00080918D0190918E01870D981D0DB407FED0
:1012C000FDCF9EBD0DB407FEFDCF8EBD0DB407FE54
:1012D000FDCF6EBC6C0E7D1E811C0DB407FEFDCFD4
:1012E0001EBC330C073014F4089430FD88943794F6
:1012F00062E021FD68E022FD629520FF66956A9517
:1013000011F028300CF06FEF952D0EB41EBC33FC9D
:101310000626862F30FC802D32FC0024039EA0017F
:1013200034FA36F4C895C89511240EB41EBC30FCAE
:10133000082E039E003034F08C9131FE4827402166
:1013400048274C93A058BF4F37FE06C08C9131FE02
:101350005827512158275C931124AF57B0409A95D4
:10136000A1F6A058BF4FA519B109285003950DB497
:10137000599A12160CF499CFDF91CF911F910F91CA
:10138000FF90EF90DF90CF90BF90AF909F908F90A5
:101390007F906F905F904F903F900895982E2134EA
:1013A00031051CF080E4982E9C1810E000E03FCF3F
:1013B0008EBD00000DB407FEFDCF8EB50895AB01C4
:1013C000FC010E94230441505109E109F10928F070
:1013D00068517C4F8F4F9F4FF6CFAB01FC010E94AD
:1013E0002304641775078E079F07C8F308952D9A85
:1013F0000895BC0190E080E00C94DF098FB18095E6
:10140000807F669B88601C9B8460089510927501A4
:101410003E983F9808953E9A3F9A81E080937501E7
:10142000089580E0E8E6F4E081118FEF00248193D5
:101430008193819381930394D1F710928A01109242
:10144000890110928C0110928B0108952F923F9286
:101450004F925F926F927F928F929F92AF92BF92C4
:10146000CF92DF92EF92FF920F931F93CF93DF9370
:1014700000D01F92CDB7DEB76D30D1F020910101C1
:101480002983C0908901D0908A01822F90E06A3030
:1014900039F510928C0110928B0143E0880F991F4F
:1014A0004A95E1F7C80ED91ED0928A01C0928901EF
:1014B00081E090E00F900F900F90DF91CF911F91FE
:1014C0000F91FF90EF90DF90CF90BF90AF909F90E3
:1014D0008F907F906F905F904F903F902F900895E6
:1014E00020918B0130918C013B832A8335E0639FEF
:1014F000F0011124E455FF4F0A811B8140E030E1E7
:10150000832E912C453029F09F012F5F3F4F9490FF
:10151000F901560128E0722E592D5170552EB8014F
:10152000662E262F201B3981231760F5F12CE12C24
:101530005981E51620F560387105D0F495012E0D1E
:101540003F1D20343105A0F451E021FD54E020FD81
:10155000550F22FD5295287F829ED0011124A60DA1
:10156000452EA859BB4F2C91552031F0252B2C939B
:10157000AFEFEA1AFA0ADCCF40942421F8CF6F5F6C
:101580007F4FCECF96947A94A80EB91E7110C4CF17
:101590004F5F080F191F463009F0B3CF2A813B81F6
:1015A0005981549F200D311D112430938C012093BB
:1015B0008B017ECFEF92FF920F931F93CF93DF9318
:1015C000CDB7DEB72C970FB6F894DEBF0FBECDBFF8
:1015D00049835A836B837C839E83EF82F8860987D5
:1015E0001A872B873C8729813A814F815885820F42
:1015F000932F911D48175907D4F48B85840F952F8D
:10160000911D281739079CF44B815C8169857A8587
:101610008E81840F952F911D6817790744F42C85CE
:10162000260F372F311D81E0421753070CF080E061
:101630002C960FB6F894DEBF0FBECDBFDF91CF91D1
:101640001F910F91FF90EF9008959091950198232D
:1016500029F490919601982381E009F480E008959F
:10166000CF93C82F0E94FE09982F9C2381E09C13E2
:1016700080E0CF91089580E00C94F9038FB7F8943F
:10168000409178015091790160917A0170917B01CC
:101690008FBF80917301882321F01092730180E045
:1016A000089590917401242F291B922F20910001FD
:1016B000921740F49F5F9217A0F491E093BF889532
:1016C00013BE089581E0809373014093740180916B
:1016D00093019091940101969093940180939301CA
:1016E00081E008956F927F928F929F92AF92BF9206
:1016F000CF92DF92EF92FF920F931F93CF93DF93DE
:10170000CDB7DEB72C970FB6F894DEBF0FBECDBFB6
:10171000B12CA12C80E2C82ED12CC60181579E4F3E
:101720003C01912C812CC3018F5A91408C159D0551
:101730006CF090E2C90ED11CE8E0AE0EB11CF0E2F4
:10174000CF16F2E0DF0649F780E033C0F301819164
:101750003F019FEF980F9C3058F097EE980F96330B
:1017600038F08A55803220F0F8E08F0E911CDBCFE4
:10177000E82C98868F820A2DBA86A98680915E040D
:1017800090915F04409620915C0430915D04422F5B
:1017900029833A83682F9C838B83F8841A8528E0F9
:1017A00031E05A817C818AE091E00E94DA0A882344
:1017B000D9F22C960FB6F894DEBF0FBECDBFDF91E5
:1017C000CF911F910F91FF90EF90DF90CF90BF903E
:1017D000AF909F908F907F906F9008955F926F92DF
:1017E0007F928F929F92AF92BF92CF92DF92EF92B1
:1017F000FF920F931F93CF93DF93CDB7DEB72C9754
:101800000FB6F894DEBF0FBECDBFB12CA12C90E275
:10181000892E912CC40181579E4F3C01D12CC12CA3
:10182000C3018F5A9140881599056CF090E2890E9A
:10183000911CE8E0AE0EB11CF0E28F16F2E09F06BC
:1018400049F710E035C089E1582EF30180818511F8
:101850006DC080916504882309F468C0809162049A
:1018600081113DC0EC2CD886CF820A2DBA86A9867C
:1018700080915E0420915F0490915C0430915D043E
:10188000492F99833A83682F8B832C83F8841A8598
:1018900028E038E05A817C818BE090E10E94DA0AEE
:1018A000182F882309F442C084E690E00E94420881
:1018B000812F2C960FB6F894DEBF0FBECDBFDF91FF
:1018C000CF911F910F91FF90EF90DF90CF90BF903D
:1018D000AF909F908F907F906F905F900895813030
:1018E00029F5EC2CD886CF820A2DBA86A9862091BC
:1018F0005E0430915F0480915C0490915D040197D7
:10190000482F9A838983622F2B833C83F8841A851E
:1019100028E038E05A817C8182E090E10E94DA0A76
:10192000182F882319F088EC90E0C0CF5394F3E28D
:101930005F128BCF8FEF681A780A98E0C90ED11C1E
:101940006FCF5F926F927F928F929F92AF92BF9272
:10195000CF92DF92EF92FF920F931F93CF93DF937B
:10196000CDB7DEB72C970FB6F894DEBF0FBECDBF54
:10197000B12CA12C90E2892E912CC40181579E4F4D
:101980003C01D12CC12CC3018F5A91408815990577
:1019900064F090E2890E911CE8E0AE0EB11CF0E21A
:1019A0008F16F2E09F0649F730C089E1582EF30107
:1019B0008081851160C08091620481113CC0EC2C53
:1019C000D886CF820A2DBA86A98680915E0490912E
:1019D0005F04019720915C0430915D04422F2983BC
:1019E0003A83682F9C838B83F8841A8528E038E03B
:1019F0005A817C8186E09AE00E94DA0A8823D9F134
:101A00008CEB92E00E94420881E02C960FB6F8948D
:101A1000DEBF0FBECDBFDF91CF911F910F91FF9021
:101A2000EF90DF90CF90BF90AF909F908F907F907E
:101A30006F905F9008958130F1F4EC2CD886CF82BE
:101A40000A2DBA86A98620915E0430915F048091A8
:101A50005C0490915D040296482F9A838983622FDB
:101A60002B833C83F8841A8528E038E05A817C81F6
:101A700086E098E0C1CF5394F3E25F1298CF8FEFE6
:101A8000681A780A98E0C90ED11C7DCF5F926F92D8
:101A90007F928F929F92AF92BF92CF92DF92EF92FE
:101AA000FF920F931F93CF93DF93CDB7DEB72C97A1
:101AB0000FB6F894DEBF0FBECDBFB12CA12C90E2C3
:101AC000892E912CC40181579E4F3C01D12CC12CF1
:101AD000C3018F5A9140881599056CF090E2890EE8
:101AE000911CE8E0AE0EB11CF0E28F16F2E09F060A
:101AF00049F780E02FC089E1582EF30180818511DC
:101B00005EC08091620481113BC0EC2CD886CF82EC
:101B10000A2DBA86A98680915E0420915F04909177
:101B20005C0430915D04492F99833A83682F8B833D
:101B30002C83F8841A8528E038E05A817C818BE078
:101B400090E10E94DA0A8823D1F188EC90E00E94AB
:101B5000420881E02C960FB6F894DEBF0FBECDBFD1
:101B6000DF91CF911F910F91FF90EF90DF90CF9079
:101B7000BF90AF909F908F907F906F905F900895EF
:101B80008130E9F4EC2CD886CF820A2DBA86A9865A
:101B900020915E0430915F0480915C0490915D041B
:101BA0000197482F9A838983622F2B833C83F88483
:101BB0001A8528E038E05A817C8182E0C1CF5394B5
:101BC000F3E25F129ACF8FEF681A780A98E0C90E95
:101BD000D11C7ECF5F926F927F928F929F92AF9235
:101BE000BF92CF92DF92EF92FF920F931F93CF930A
:101BF000DF93CDB7DEB72D970FB6F894DEBF0FBEDB
:101C0000CDBF912C812C80E2C82ED12CC6018157EA
:101C10009E4F3C01B12CA12CC3018F5A91408C15D1
:101C20009D056CF090E2C90ED11CE8E08E0E911C6F
:101C3000F0E2CF16F2E0DF0649F780E04BC0F30197
:101C400051903F01FDEDF50DFD87FC3208F074C0A9
:101C5000EA2CB886AF82082D9A86898680915E0428
:101C600090915F04409620915C0430915D042F5F59
:101C70003F4F422F3A832983682F9C838B83F884BC
:101C80001A8528E031E05A817C8188E091E00E9449
:101C9000DA0A882309F450C09D85943060F095EDF0
:101CA000950D903140F091EC950D943020F099EB2A
:101CB000950D943028F590916204911108C090918F
:101CC00066049111BACF909165049111B6CF91E05D
:101CD000909362042D960FB6F894DEBF0FBECDBF71
:101CE000DF91CF911F910F91FF90EF90DF90CF90F8
:101CF000BF90AF909F908F907F906F905F9008956E
:101D000099ED950D943048F095EC950D943028F0B0
:101D1000952D977F9354943078F49091620491308C
:101D200041F490916604911188CF909165049111CE
:101D300084CF10926204CECFE8E0AE0EB11C6CCF1F
:101D40002F923F924F925F926F927F928F929F92CB
:101D5000AF92BF92CF92DF92EF92FF920F931F93B9
:101D6000CF93DF93CDB7DEB763970FB6F894DEBF9E
:101D70000FBECDBF8150843150F5E82FF0E0ED5318
:101D8000F14F0C941823D70E280F2C0F300F390F5A
:101D9000520F560F5F0F630F770F850F9F0FAD0F19
:101DA000C10FD20FE40FF40F02101C10341068E1C1
:101DB00072E280E00E948D081092620481E08093BC
:101DC0003F048093470480934F04809357041092FC
:101DD00061041092670410926604109263041092DA
:101DE00064041092650420915C0430915D0480913C
:101DF0005E0490915F04B0E0A0E040E250E0FA01A0
:101E0000E157FE4F70E060E08F010F5A1140041758
:101E100015070CF434C1405E5F4F1896403212E053
:101E2000510769F730935D0420935C0490935F043D
:101E300080935E04A9014D5351094238510508F0C1
:101E400027C12C533109309359042093580428C1D9
:101E500068E174E280E0AECF68E176E280E0AACF8C
:101E600068E178E280E00E948D0881E0809362045E
:101E7000A6CF68E17AE280E00E948D0881E080933D
:101E8000620480933F048093470480934F048093BF
:101E9000570480931C048093250480932E04809320
:101EA000370495CF68E17CE280E0E6CF68E17EE22E
:101EB00080E00E948D081092620481E0E2CF68E128
:101EC00070E380E0F6CF68E172E380E00E948D0865
:101ED0001092620481E080933F0492E09093470463
:101EE00080934F048093570480931C0421C068E1C1
:101EF00074E380E00E948D081092620481E0809378
:101F00003F0492E090934704C0CF68E176E380E01D
:101F10000E948D081092620481E080933F0492E059
:101F20009093470480934F048093570410921C04AD
:101F30008093250480932E041092370448CF68E1E3
:101F400078E380E00E948D081092620481E0809323
:101F50003F0492E09093470436CF68E17AE380E053
:101F60000E948D0881E08093620480933F0492E098
:101F70009093470480934F049093570480931C04DC
:101F800026CF68E17CE380E00E948D081092620415
:101F900081E080933F048093470480934F048093B3
:101FA0005704ECCF68E17EE380E00E948D08109238
:101FB000620481E080933F0480931C0492E090933C
:101FC000250480932E0403CF68E170E480E00E9432
:101FD0008D081092620481E080933F04809347044F
:101FE00080934F0482E0F1CE68E172E480E00E94C9
:101FF0008D081092620482E080933F0481E0809318
:10200000470472CF68E174E480E00E948D0810926A
:10201000620492E090933F049093470481E08093A0
:102020004F048093570480931C04809325041092DE
:102030002E0490933704CBCE68E176E480E00E94D2
:102040008D081092620481E080933F0480934704DE
:1020500092E090934F048093570480931C048093E4
:10206000250490932E041BCF68E178E480E00E9461
:102070008D081092620481E080933F047FCF8190AD
:10208000082D0A3F11F49B01CD01685F7F4FBCCE44
:102090002D3331050CF07FC0109259041092580472
:1020A0009C01295131092034310508F07BC0489743
:1020B00090935B0480935A0480E290E030E0FC014E
:1020C000E157FE4FAF014F5A5140481759070CF4E2
:1020D00077C08096803272E0970789F7309392013B
:1020E000A0904104B0904204C0904404D0904304B6
:1020F00080903D044090390450903A0460903C0434
:1021000070903B0410914D041A8320914904288754
:1021100040914A044F83B0914C04A0914B04E0904D
:1021200045043091550450915104598760915204EF
:102130006A8750915404409153041B82F12C912CD6
:102140001982312C212C9FEF291A390A810125E0AF
:10215000000F111F2A95E1F71E830D832FE1220D39
:10216000220F220F220FF801E157FE4F90E080E08E
:10217000BF016F5A71400D811E81601771074CF5C8
:102180001191183C09F0A3C02C01682E722E11E0A9
:1021900019830896EDCF2F3B31050CF481CF20E851
:1021A00030E051CE893591051CF080E490E080CF7D
:1021B00049970CF081CF10925B0410925A047CCFA7
:1021C00041912FE4421301C03F5F2F5F2A35D1F7C1
:1021D00079CF80E12816310409F0B5CF0981009349
:1021E00038044092390450923A0460923C04709250
:1021F0003B0480923D0490924004A0924104B0922E
:102200004204C0924404D0924304E0924504F09208
:1022100048041885109349042F8120934A04B093F1
:102220004C04A0934B046A8160934D047B817093AE
:1022300050048985809351049A8590935204509359
:1022400054044093530430935504809102019091BB
:102250009001E8E3F4E024E051E0813009F462C049
:10226000823009F4D9C0833009F4D8C0843009F42D
:10227000D7C0853009F4D6C0863009F4D5C0873080
:1022800009F4D4C0883009F4D7C0893009F4DEC01D
:102290008A3009F4CDC08B3009F4CCC08C3009F4FD
:1022A000CBC08D3009F4CAC08F3009F4C9C0803169
:1022B00009F4C8C0813109F4C7C0823109F4C6C02D
:1022C000833109F4C5C0843171F590E82CC0193C04
:1022D00011F4882E5ECF1A3C31F45C01C82ED22E48
:1022E0009924939456CF1B3C11F4E82E52CF1C3CFA
:1022F00039F488879F83B82FA22FFF24F39449CF06
:102300001D3C11F48A8345CF1E3C39F489879A8796
:10231000582F422F61E06B833CCF1F3C09F039CF2F
:10232000382F37CF90E044813581431708F4168267
:10233000341720F456833483318135832150389605
:1023400021118BCF9093900170911E047D87A090F6
:102350001F04B0902204C0902004D09021049091DA
:102360001A049B8B30901504409016045090190469
:10237000609017047090180480902C0489829090CB
:1023800027049B861091280400912B040F8720912D
:1023900029042E87B0912A04409123044A83509146
:1023A00035045A8B20903004609131046C87709111
:1023B00034047D83909132049987809033048A8617
:1023C00030E020E0A0E000E01F821886790148E0BC
:1023D000E40EF11CB701660F771F660F771F7C8331
:1023E0006B83922FFB01E157FE4F50E040E0BF01AD
:1023F0006F5A71408B809C80681579055CF56191FE
:10240000623D09F096C0342E452E3901592E61E007
:102410006887485F5F4FEBCF98E085CF90E183CF2F
:1024200098E181CF90E27FCF98E27DCF90E37BCFA0
:1024300098E479CF90E577CF98E375CF98E573CF9F
:1024400098E771CF90E66FCF98E66DCF90E46BCFB1
:1024500090E769CF97012038310509F0B7CF98850B
:10246000909314043092150440921604509219046B
:1024700060921704709218048B8880921A049F80CF
:1024800090921D042D8520931E04A0921F04B092EB
:102490002204C0922004D09221044A814093230454
:1024A000009326045B8550932704109328046F85BE
:1024B00060932B047E8570932904B0932A0499813C
:1024C00090932C04A0932F04209230048C8480924B
:1024D00031049D80909234040985009332041A855A
:1024E000109333042A892093350490918F01E4E1FD
:1024F000F4E024E051E0853009F447C0893009F464
:1025000072C08B3009F471C08D3089F08E3009F4BF
:102510006EC08F3009F46DC0813109F46CC0823116
:1025200009F46BC0833109F46AC0843179F59CE009
:102530002DC0633DA1F0643D39F44D87A52E69019E
:10254000B92E71E07F8365CF653DB1F0663D49F4FA
:102550004B87152F2E87B32F9F8701E05ACF9B8B78
:1025600058CF673D81F0683D49F4242E5C87298768
:102570003A879D83A1E04DCF9A834BCF693D09F007
:1025800048CF9A8B46CF998344CF90E045813681DE
:10259000431708F45783341720F4178235833381A7
:1025A0003683215039962111A6CF90938F0181E077
:1025B0008093980163960FB6F894DEBF0FBECDBF2F
:1025C000DF91CF911F910F91FF90EF90DF90CF900F
:1025D000BF90AF909F908F907F906F905F904F9043
:1025E0003F902F90089594E0D1CF98E0CFCF90E125
:1025F000CDCF97E1CBCF9BE1C9CF9FE1C7CF97E28A
:10260000C5CF089590E080E00895FB01019000207F
:10261000E9F73197AF01461B570BDC01ED91FC91B7
:102620000280F381E02D09940C94802282E090E0F6
:102630000E94141381110C940B0A0C94060A1F9229
:102640000F920FB60F9211248F939F938091E10008
:102650009091E100937F9093E10083FF0FC010926F
:10266000E90091E09093EB001092EC0092E39093DC
:10267000ED001092AE0198E09093F00082FF22C02E
:1026800093E09093E9009091F200992319F09AE376
:102690009093E80090919F01992341F090919F01C0
:1026A000915090939F01911101C05D9A9091AD015D
:1026B000992341F09091AD0191509093AD0191110A
:1026C00001C0289A84FF18C08091E2008E7E81604C
:1026D0008093E2008091E1008F7E8093E100809101
:1026E000A0018E7E80618093A0019F918F910F90B9
:1026F0000FBE0F901F90189580FFF7CF8091E200DA
:102700008E7E80618093E2008091E1008E7E8093D6
:10271000E1008091A0018E7E8160E5CF1F920F9233
:102720000FB60F921124CF92DF92EF92FF920F9388
:102730001F932F933F934F935F936F937F938F9349
:102740009F93AF93BF93EF93FF93CF93DF93CDB757
:10275000DEB76C97DEBFCDBF1092E9008091E80034
:1027600083FF25C068E0CE0145960E94110682EFE6
:102770008093E8008D8987FF39C09091E80090FF31
:10278000FCCF982F907609F034C19E894F89588DDF
:102790002F89F88C911131C0803861F580919E01AC
:1027A0008093F1001092F1008EEF8093E8006C9618
:1027B0000FB6F894DEBF0FBECDBFDF91CF91FF9172
:1027C000EF91BF91AF919F918F917F916F915F91A9
:1027D0004F913F912F911F910F91FF90EF90DF90BC
:1027E000CF900F900FBE0F901F9018959EEF909373
:1027F000E800C7CF1092F100D5CF913059F4811184
:10280000D3CF4130510581F680919E018D7F809319
:102810009E01CACF933049F48111C6CF4130510592
:1028200019F680919E018260F2CF953041F480913B
:10283000E80080FFFCCF20682093E300B5CF9630FE
:1028400009F0A9C00B8D1C8D22E01092E9001092B6
:102850009C0110929B01F2122EC010929A011092CC
:1028600099010E94E0051F8299E09983FA8291E024
:102870009E8390EA98879AEF998720919B013091E7
:102880009C01275F3F4F3C832B838D831092E9008F
:1028900010929C0110929B0110939A010093990150
:1028A00049E050E0BE016F5F7F4F80E00E94BA05B3
:1028B0000E94E00579CF10939A01009399010E943C
:1028C0007604DC0112960D911C910115110509F495
:1028D00051C1D801ED91FC910480F581E02DBE013C
:1028E0006B5E7F4FC8010995009709F03EC1F80162
:1028F00000851185EACFF3E0FF120EC08F8988238F
:1029000009F440C0823061F440E867E08DE897E068
:102910000E945116811148CF81E28093EB0047CF8E
:10292000813029F440E86BE081E897E0F1CF833013
:1029300099F70E947604DC011296ED90FC908E01CE
:102940000F5F1F4F6801E114F10479F0D701ED9199
:10295000FC910680F781E02DB801C7010995080FA9
:10296000111DF701E084F184EECFD8011C92F6012D
:1029700001900020E9F73197BF016C197D0940E013
:10298000C601C6CF6BE677E0FB01449150E080E8DA
:102990000E94BA0509CF973009F4BECF983021F4D0
:1029A00081E08093F10000CF993009F0FDCE837073
:1029B00009F0B2CFE1E1F1E081E031E096E321916D
:1029C000222371F08093E9003093EB00DF0111972F
:1029D0002C912093EC009093ED008F5F873079F776
:1029E0008EE78093EA001092EA008F898093AE010F
:1029F000DBCE8B8D9C8D1092E90010929C01109281
:102A00009B0190939A0180939901898D811192C0C5
:102A10008E899D89913A49F4813209F07DCF47E052
:102A200050E068E071E080E0B3CF913209F074CFFC
:102A3000833269F48F89988DB0E0A0E0809304011F
:102A400090930501A0930601B0930701ADCE8032AB
:102A500069F48091E80082FFFCCF67E088E091E0B4
:102A60000E9411068BEF8093E8009ECE823209F01F
:102A70009BCE8F8980930F01EEEFFFE785919491B4
:102A80008B3F9C4D51F1E0E0F8E08091080190917E
:102A90000901A0910A01B0910B01803B9440A1056E
:102AA000B105F1F480910F0180FD1AC0EE3F8AE07C
:102AB000F80789F587E797E7918380838091600025
:102AC00080939D0188E19BE00FB6F894A8958093D0
:102AD00060000FBE9093600067CEEEEFFAE0D5CFB6
:102AE000808191818737974709F05ECEA8958091C4
:102AF000600088618093600080919D0180936000F8
:102B0000EE3F2AE0F20789F08091FE0A9091FF0AD9
:102B10009183808349CE808191818737980751F2D4
:102B20009093FF0A8093FE0AC5CF1092FF0A10927D
:102B3000FE0A3ACE0E947604DC0112960D911C9199
:102B40000115110509F4E8CED801ED91FC91019031
:102B5000F081E02DBE016B5E7F4FC80109958111A8
:102B600023CEF80100851185EBCF181619060CF459
:102B70001BCED2CEF1E0FF12BECE6FE677E004CFDF
:102B80001F920F920FB60F9211242F933F934F93E2
:102B90005F936F937F938F939F93AF93BF93EF93C5
:102BA000FF938091850190918601A0918701B0915A
:102BB00088010097A105B10539F120918401211107
:102BC00005C0369A209183012111379A0197A109F6
:102BD000B109B7FD08C08093850190938601A09349
:102BE0008701B0938801FF91EF91BF91AF919F91C1
:102BF0008F917F916F915F914F913F912F910F90A6
:102C00000FBE0F901F9018950E947607ECCF0F9281
:102C10000FB68F939F93EF93FF93809177018D5F12
:102C20008D3708F08D5780937701E8E7F1E08081D8
:102C30008E4F808391819F4F918382818F4F8283BA
:102C400083818F4F8383ECE7F1E080818F5F808306
:102C500081818F4F818382818F4F828383818F4FC8
:102C600083838FB18F6066991C9B88278F3681F490
:102C700080917601981B963068F0E0E0F8E087E7F5
:102C80008083818388E180936000F0936000FFCFB0
:102C900090937601FF91EF919F918F910FBE0F90CE
:102CA0001895EF92FF920F931F93CF93DF93F82E17
:102CB000192FE62E042F81E0860F880F0E948C05C5
:102CC00083E00E948C05CF2DD12FEC0EFD2EF11C40
:102CD000CE15DF05B9F007FF13C0FE0184910E94F5
:102CE0008C05182F80E00E948C058123219681118C
:102CF000EFCFDF91CF911F910F91FF90EF9008954B
:102D00008881EDCF81E0F5CFE4EBF3E0138212820E
:102D100088EE93E0A0E0B0E084839583A683B78338
:102D20008BE191E0918380838FEF9FEF958784877C
:102D3000ECE7F8E01382128289E391E091838083CB
:102D400086EF93E0909313048093120480E090E860
:102D5000909311048093100446983E9A47983F9AA6
:102D6000E8E6F8E0138212828DE291E0918380839D
:102D700088E694E09683858380E890E09087878357
:102D800080E490E09287818785E0838B81E0828B6D
:102D900016861586108A178614861386818B1482F0
:102DA000ECE5F4E0148215821682178210861186F3
:102DB00012861386A8E5B4E0208131812C533109B5
:102DC00011963C932E932281338128523109139618
:102DD0003C932E931297E8E3F4E0108287831086E9
:102DE0008787108A878B108E878FE4E1F4E010824A
:102DF00080871186818B128A828F138E83A3089518
:102E0000CDB7DEB7AB97DEBFCDBF789483E084BD8E
:102E100083E085BD81E080936E00E1E8F0E083E02F
:102E20008083E0E881E08083E1E983E08083E0E97A
:102E300081E08083E1EC87E08083E3EC81E08083C4
:102E4000E0EC82E08083E2EC81E08083EAE787E0E7
:102E50008083806880831092AE0110929E01109250
:102E6000A0018091D70081608093D70080EA809391
:102E7000D80089B5806189BD89B5826089BD09B4F2
:102E800000FEFDCF0E940E048091D8008F7C8061EF
:102E90008093D8008091E000807F8093E000809153
:102EA000E1008E7E8093E1008DE08093E200559AF0
:102EB000209A81EC80937C0085B1806F85B984B1C4
:102EC000877E84B984B1876E84B95E9A5F988AB12F
:102ED000806D8AB9769A6E9881B3806F81BB89982C
:102EE00080B38D7080BB80E58CBD81E08DBD85E0B9
:102EF00090E00E94F9095F9A85E090E00E94F9094C
:102F00005E985C98ECE1F7E089E297E024912EBDB1
:102F100000000DB407FEFDCF31968E179F07B1F765
:102F20005C9A81E880936400809165008160809361
:102F300065000E943B0B80E80E94300B882381F0E3
:102F40005C9885EA8EBD00000DB407FEFDCF5C9A4B
:102F50002E982F982D9881E083BF889513BEFCCFC3
:102F600084E00E94300B882309F448C02D9884E83F
:102F70000E94300B8823E1F00E94F70988EC90E072
:102F80000E94F9092F9882E090E00E9480228F3FF2
:102F900029F06FEF82E090E00E94882284EF91E0B8
:102FA0000E94F9092F9A84E80E94300B8111FBCF0F
:102FB00084E10E94300B8823E1F00E94F70988EC3D
:102FC00090E00E94F9092E9882E090E00E94802211
:102FD000882329F060E082E090E00E94882284EF5C
:102FE00091E00E94F9092E9A84E10E94300B811130
:102FF000FBCF88EC90E00E94F909B2CF0E94F7095C
:103000000E94161381E090E00E941413282F247070
:10301000722E81FF11C021112E9801EF1FEFE8E001
:10302000EE2EF12C80E40E94300B882309F4A5C118
:103030002E9A2F9A0E94F70982E390E00E94F909E4
:103040000E94FE098111F8CF81E2809300010E9465
:1030500016130E940B0A0E94110A82E0809301015C
:1030600083E290E090938C0180938B0104E110E067
:1030700010938A010093890161E471E08CE798E084
:103080000E94051381E08093010188E290E0909313
:103090008C0180938B0190938A018093890167E46E
:1030A00071E08CE798E00E9405130E943B0B68EEEC
:1030B00073E080E090E00E94DF095E9AF80185EB02
:1030C0009FEF25913591559145912851354909F446
:1030D000CA0180938D0190938E0159988BEA0E94CA
:1030E000D809599A20EB31E08FEF9FE1289FA0018A
:1030F000299F500D389F500D11245BA74AA748E027
:10310000342E58E0252E80919801811100C20CE3E5
:10311000C02ED12C8DE2482E512C9BE4A92EB12C2F
:1031200025E5822E912C33E7632E712C14E10E9449
:10313000110A80919601809395010E94FE09809367
:10314000960161E070E080E090E00E94DF090E945B
:103150003E0B8823B1F3809193019091940165E037
:1031600070E00E94F022892B41F4809161048F5F0E
:10317000883008F0C1C180936104EE24E39400E03C
:1031800020E030E040E070E060E090E080E00E940D
:10319000AD080091610424EA3AE040E070E060E0AC
:1031A00090E080E00E94AD081092760810927508B9
:1031B0001092740810927308D0927808C092770821
:1031C00060E571E088E698E00E9405138EE190E0EA
:1031D0009093760880937508909374088093730891
:1031E000D0927808C09277082091020130E050E038
:1031F00040E019A27E0191E2E90EF11CCA01B90179
:103200002AE030E040E050E00E94B522605DF70126
:1032100062937F01211531054105510579F73097FA
:1032200061F001900020E9F73197AF014E195F0975
:10323000B70188E698E00E941E06509276084092F8
:1032400075085092740840927308D0927808C09222
:10325000770867E571E088E698E00E940513B09270
:103260007608A0927508B0927408A0927308D09264
:103270007808C0927708809103016EE571E08111B2
:1032800002C060E671E088E698E00E940513909223
:103290007608809275089092740880927308D09294
:1032A0007808C092770862E671E088E698E00E94AC
:1032B0000513709276086092750870927408609297
:1032C0007308D0927808C0927708809197016EE5D4
:1032D00071E0811102C060E671E088E698E00E942A
:1032E000051380E40E94250B882341F080910201A0
:1032F0008F5F853108F003C18093020180E20E9454
:10330000250B882339F080910201815009F4F9C01E
:103310008093020180E10E94250B882331F0809187
:10332000030191E089278093030180E80E94250B27
:10333000882331F08091970191E08927809397014C
:103340000E943B0B0E94080488E00E94250B882302
:1033500009F4EDCE80910301882309F4D5C00E94C1
:103360000B0A809102010E94A00E80E090E0892B60
:1033700009F4C9CE0E940000C6CE772029F004309F
:10338000110511F42E9A2F9881E00E94F9039801FB
:1033900017FF04C022273327201B310B2770332748
:1033A000C80117FD079673E0959587957A95E1F723
:1033B00017FF05C00197A701421B530B9A01AC01EF
:1033C0005695542F44275795479548595B4FB0E081
:1033D000A0E02701421A530A8E3F6FEF960709F4C7
:1033E0003BC05A01E4E9AE0EB11C6A0170E060E036
:1033F000FD01E459F94F4F018F3F980779F0F4012F
:10340000E60FF71FE491F0E01F01022E01C0220C2D
:103410000A94EAF7F60164882628248A21153105E2
:1034200081F0F401E60FF71FE491F0E01F01042C96
:1034300002C0359427940A94E2F7F50160802628AB
:1034400020826F5F7F4FFFEFAF1ABF0AEFEFCE1AF8
:10345000DE0A6835710581F60196A85ABF4F4058BB
:103460005F4FA03BB10509F0B7CF0E943B0B8FE047
:1034700090E00E94F9090F5F1F4F0931110509F013
:10348000D1CD772011F02F9A2D9880E991E00E94FC
:10349000F9090E94F70981E090E00E94141380FF6F
:1034A000CBCD8AE090E00E9414139FEF980F9E3FCF
:1034B00008F0C2CD22E330E030938C0120938B01E1
:1034C00028E330E030938A01209389010BE010E07B
:1034D000682F8CE798E00E94260AC8010E94141306
:1034E0000F5F1F4F0131110599F70E943B0B88EECA
:1034F00093E00E94F909A0CD109261043ECE81E0D4
:10350000FBCE1093020106CF0E94060A2ACF81301B
:1035100009F02BCF0E943E0B882309F426CF0E948E
:10352000110A80919601809395010E94FE09809373
:103530009601809197018823A1F08BE790E090930A
:10354000760880937508909374088093730810929E
:1035500078081092770869E671E088E698E00E94A2
:10356000051380910301882309F448C20E940B0AC5
:10357000512C412C10E2C12ED12C960121573E4FE7
:103580005901912C812CC5018F5A91408C159D05B4
:103590000CF437C230E2C30ED11C48E0440E511C7B
:1035A00050E2C51652E0D50641F7209193013091C3
:1035B000940139A728A720FD1FC0912C812CB0E2CF
:1035C0006B2E712C55245394A30141575E4F6A0111
:1035D000B12CA12CC6018F5A9140861597050CF489
:1035E0004EC250E2650E711C68E0860E911C80E2AE
:1035F000681682E0780641F788A599A58370992717
:10360000892B01F580E290E033E247E25BE26FE272
:1036100073E317E30BE32FE3F22EE3E4EE2EF7E47C
:10362000DF2EABE4CA2EFC01E157FE4FDF01AF5A9B
:10363000B140A817B9070CF400C380968032E2E0CD
:103640009E0789F7512C412CB0E2AB2EB12C95018D
:1036500021573E4F6901912C812CC6018F5A914010
:103660008A159B050CF469C330E2A30EB11C48E037
:10367000440E511C50E2A51652E0B50641F780E217
:103680000E94300B8823A9F080916304811111C03E
:103690008091640481110DC080916604811109C07C
:1036A00080916704811105C081E08093620480935A
:1036B00065041091950115FF05C08091960185FF65
:1036C0001092650480E40E94300B8823A9F0809159
:1036D0006304811111C08091640481110DC0809137
:1036E0006604811109C080916704811105C01092A0
:1036F000620481E08093650416FF05C08091960105
:1037000086FF1092650488E00E94250B8823C9F08B
:1037100080916304909165049111DCC6811111C000
:103720008091640481110DC080916604811109C0EB
:1037300080916704811105C01092600481E080933C
:10374000630480E80E94250B882331F08091970163
:1037500091E089278093970180E10E94250B8823BF
:1037600031F08091030191E089278093030184E087
:103770000E94250B882331F084E00E94300B8111D8
:10378000109298016090930170909401C30183702E
:103790009927892B41F4809191018F5F843008F043
:1037A00011C380939101F8E38F2EF4E09F2E640102
:1037B000F6018081882309F472C08681811136C0A8
:1037C000678121813281662309F4FFC270E0C30161
:1037D0000E94F0222F5F3F4F892B09F4F8C200911D
:1037E000900180919101080F0C5FF601638170E0F8
:1037F00080915A0490915B04681B790B81819281BE
:10380000E0915804F0915904EE24E39428EA3BE057
:1038100040E08E1B9F0B0E94AD08F601258181813F
:1038200092812817190614F481E08683F6018681B7
:103830008130A9F5678121813281662309F4CAC2EA
:1038400070E0C3010E94F02221503109892B09F454
:10385000C3C20091900180919101080FF60163812C
:1038600070E080915A0490915B04681B790B818110
:103870009281E0915804F0915904EE24E39428EAEF
:103880003BE040E08E1B9F0B0E94AD08F6012481B7
:10389000818192812817190611F00CF01682F8E048
:1038A000CF0ED11C28E5C21624E0D20609F080CF45
:1038B000E4E1AE2EE4E0BE2E6501F60180818823AE
:1038C00009F471C087818130A1F56085238134813D
:1038D000662309F484C270E0C3010E94F0222F5FC6
:1038E0003F4F892B09F47DC200918F018091910196
:1038F000080FF6016381748180915A0490915B04F2
:10390000681B790B81819281E0915804F0915904F0
:10391000EE24E3942CEA3CE140E08E1B9F0B0E94D6
:10392000AD08F601268183819481281719060CF4CD
:103930001782F6018781811136C060852381348129
:10394000662309F451C270E0C3010E94F0222150A5
:103950003109892B09F44AC200918F0180919101AC
:10396000080FF6016381748180915A0490915B0481
:10397000681B790B81819281E0915804F091590480
:10398000EE24E3942CEA3CE140E08E1B9F0B0E9466
:10399000AD08F6012581838194812817190619F055
:1039A00014F081E08783F9E0CF0ED11C28E3C21622
:1039B00024E0D20609F081CF7FE0772EF4018081E8
:1039C000811117C2F8E08F0E911C28E5821624E0C1
:1039D0009206A1F76FE0962EF501808181118BC3CD
:1039E000F9E0AF0EB11CCA14DB04B1F7512C412C25
:1039F00040E2C42ED12C55E0652EB9C30E94060AC0
:103A0000B7CD3501F501008101500937A8F4809147
:103A10005A0490915B04B201681B790B80915804A1
:103A200090915904E12C24E034E040E0F401E81BDB
:103A3000F90BCF010E94AD08FFEFAF1ABF0AF301E7
:103A400080818639C1F400910201015080915A04AD
:103A500090915B04B201681B790B8091580490919E
:103A60005904E12C20E238E040E0F401E81BF90BB6
:103A7000CF010E94AD08F8E08F0E911C84CDF601B5
:103A8000408086EA840D883060F5EA2CBBA2AAA2A9
:103A9000082D9DA28CA23EA25FA280915E0490910F
:103AA0005F04409620915C0430915D04422F29838D
:103AB0003A83682F9C838B833D825E82FBA01DA18D
:103AC00028E031E05A817C8188E091E00E94DA0AA6
:103AD000882339F081E0840DF601813608F09DC01D
:103AE0008083F60140808EE9840D883060F5EA2CF1
:103AF000BBA2AAA2082D9DA28CA23EA25FA2809189
:103B00005E0490915F04409620915C0430915D04C6
:103B1000422F29833A83682F9C838B833D825E8268
:103B2000FBA01DA128E031E05A817C8188E091E072
:103B30000E94DA0A882339F081E0840DF601893683
:103B400008F06FC08083F601408086E9840D8830DC
:103B500060F5EA2CBBA2AAA2082D9DA28CA23EA2CF
:103B60005FA280915E0490915F04409620915C0476
:103B700030915D04422F29833A83682F9C838B8385
:103B80003D825E82FBA01DA128E031E05A817C814C
:103B900088E091E00E94DA0A882339F081E0840D00
:103BA000F601813708F041C08083F60140808EE83D
:103BB000840D883058F5EA2CBBA2AAA2082D9DA23C
:103BC0008CA23EA25FA280915E0490915F04409619
:103BD00020915C0430915D04422F29833A83682F41
:103BE0009C838B833D825E82FBA01DA128E031E097
:103BF0005A817C8188E091E00E94DA0A882331F0C2
:103C000081E0840DF6018937A0F48083FFEFCF1A9D
:103C1000DF0A28E0A20EB11CDDCC108250926404B1
:103C200060CF1082509264048ECF10825092640450
:103C3000BCCF108250926404E9CF2081ADEDA20F79
:103C4000A43028F42F5F273209F461C0208320813B
:103C5000A9EDA20FA43028F42F5F2B3209F459C02C
:103C600020832081A5EDA20FA43028F42F5F2F32EE
:103C700009F451C020832081A1EDA20FA43028F4C3
:103C80002F5F233309F449C020832081ADECA20FBC
:103C9000A43028F42F5F273309F441C0208320810A
:103CA000A9ECA20FA43020F42F5F2B33D1F1208395
:103CB0002081A5ECA20FA43020F42F5F2F3399F1BF
:103CC00020832081A1ECA20FA43020F42F5F2334A5
:103CD00061F120832081ADEBA20FA43020F42F5F8F
:103CE000273429F120832081A9EBA20FA43020F4EE
:103CF0002F5F2B34F1F020832081A5EBA20FA4309D
:103D000020F42F5F2F34B9F0208331968FCC30838D
:103D10009ECF4083A6CF5083AECF6083B6CF708353
:103D2000BECF1083C5CF0083CCCFF082D3CFE0824B
:103D3000DACFD082E1CFC082E8CFAFE47A2EF601AD
:103D40008081871134C0E82C9A828982042D5C829C
:103D50004B822D822E8220915E0430915F048091EF
:103D60005C0490915D040196482F9BA38AA3622F67
:103D70002CA33DA3F6E0FEA320E12FA3FA801C8133
:103D800028E038E05BA17DA186E090E10E94DA0A9C
:103D9000882369F060EB74E088EE93E00E941E08CF
:103DA000F601108280919201815080939201739468
:103DB000FAE57F12C4CF2FEFC21AD20A38E0830E81
:103DC000911C4BCC10929101EECC2E5F3F4F328371
:103DD000218305CD22503109328321833ACD2E5FD4
:103DE0003F4F3483238380CD225031093483238392
:103DF000B3CD838190E00196218132812F5F3F4FC7
:103E0000E22E3A832983082F9C838B83F6E0FD837F
:103E10007E8220915E0430915F0480915C049091D9
:103E20005D040196482F9BA38AA3622F2CA33DA378
:103E3000FEA320E12FA3FA801C8126E03FE05BA1D6
:103E40007DA186E090E10E94DA0A882309F4BACDC8
:103E500060E971E080E293E00E941E088091970182
:103E6000811104C0809102010E94A00E80919201F4
:103E7000811121C0D12CC12C90E080E07724739473
:103E80004C0150E2850E911CFC01E155FE4F5F0193
:103E90004AA45BA4481A590AC5018F5A9140881553
:103EA00099050CF4A8C1F8E0CF0ED11CC40181140F
:103EB00022E0920629F70E94EA0D882359F00E9419
:103EC000EE0B811107C00E94720B882319F081E06C
:103ED000809365040E94EA0D882369F00E94EE0B2E
:103EE000811109C00E94720B811105C010926504F6
:103EF00081E0809364042091650480919301909106
:103F0000940183709927892B91F4211108C0809125
:103F10006604811104C080916704882391F1809127
:103F200061048F5F843008F0B1C180936104222363
:103F300041F10E94720B882321F10E94EE0B811146
:103F400020C0809162048111A4C180915C04909191
:103F50005D048F3F910509F0A4F49C012F5F3F4F52
:103F600030935D0420935C04CC978238910548F42B
:103F7000809158049091590401969093590480932C
:103F80005804809165048823B9F0809163048111FD
:103F900013C08091640481110FC080916604811167
:103FA0000FC080916704811119C00E94EA0D811130
:103FB00003C081E08093640480916604882371F0DB
:103FC0001092650480916004843108F47FC11092DE
:103FD000600481E080936704109266048091670416
:103FE000882371F01092650480916004843108F494
:103FF000DAC1109260041092670481E08093640437
:1040000080916304882361F01092650480916004BC
:10401000843108F439C281E080936404109263040F
:10402000809164048823F9F00E94720B81114FC2C1
:1040300080915E0490915F049C01295131092034E4
:10404000310550F420915A0430915B042F5F3F4FAB
:1040500030935B0420935A04019690935F048093FD
:104060005E04109265048091620481111DC060910C
:104070005E0470915F0480915A0490915B04681B08
:10408000790B80915C0490915D04E0915804F0916B
:104090005904EE24E3940091610424EA3AE040E0FC
:1040A0008E1B9F0B0E94AD08809162048130F1F459
:1040B000009161040C5F60915E0470915F048091D7
:1040C0005A0490915B04681B790B80915C04909179
:1040D0005D04E0915804F0915904EE24E39424EA3D
:1040E0003AE040E08E1B9F0B0E94AD080E943B0B04
:1040F0000E9408043AC9838194810196218132810A
:104100002F5F3F4FE22E3A832983082F9C838B83B6
:10411000F6E0FD839E8220915E0430915F048091E1
:104120005C0490915D040196482F9BA38AA3622FA3
:104130002CA33DA3FEA320E12FA3FA801C8126E03F
:104140003FE05BA17DA186E090E10E94DA0A88232E
:1041500009F446CC7DCE30E2C30ED11C48E0440EBB
:10416000511C50E2C51652E0D50609F47FCEC601B7
:1041700081579E4F4C01B12CA12CC4018F5A914004
:104180008C159D0544F73DE0732EF4018081871561
:1041900059F07394F9E17F12F8CF3FEF831A930A35
:1041A00048E0A40EB11CE9CFEA2CBA82A982042D02
:1041B0005C824B822D822E8220915E0430915F04BE
:1041C00080915C0490915D040196482F9BA38AA383
:1041D000622F2CA33DA36EA220E12FA3FA801C81A5
:1041E00028E038E05BA17DA185E090E10E94DA0A39
:1041F000882379F22DCEF50181915F01863909F08E
:104200004BCEC2018E0F9F1F23E0880F991F2A9566
:10421000E1F7E82E9BA38AA30C2DDDA2CCA2F0E14E
:10422000FEA3FFA320915E0430915F0480915C04A3
:1042300090915D040196482F9A838983622F2B8386
:104240003C8326E02D83FE83FBA01DA120E130E10D
:104250005A817C8186E090E10E94DA0A882309F481
:104260001BCE60EB74E088EE93E00E941E08809104
:1042700002018F5F80930201853128F07092020164
:104280001092980109CE0E94A00E06CE10926104F1
:104290004ECE813009F075CE80915C0490915D0422
:1042A000181619060CF06DCE9C012150310930937F
:1042B0005D0420935C04CD978238910508F061CEAF
:1042C0008091580490915904019757CE0E94A10CF7
:1042D00081117DCE80915E0490915F049C012951F3
:1042E00031092034310550F420915A0430915B0497
:1042F0002150310930935B0420935A040197909325
:104300005F0480935E04809160048F5F80936004FB
:1043100080916204882321F180916204813009F048
:104320005DCE0E94460D811159CE80915C04909122
:104330005D04893091052CF0019790935D04809382
:104340005C0480915C0490915D04CD978138910567
:1043500008F044CE809158049091590401971EC0F2
:104360000E94460D8111D8CF80915C0490915D042C
:104370008E3E91052CF4019690935D0480935C042D
:1043800080915C0490915D04CD978138910508F08F
:1043900025CE809158049091590401969093590428
:1043A000809358041BCE0E94720B811122CE0E9472
:1043B000A10C81111ECE80915E0490915F049C013E
:1043C000295131092034310550F420915A0430919B
:1043D0005B042F5F3F4F30935B0420935A04019698
:1043E00090935F0480935E04809160048F5F80935C
:1043F000600480916204882321F1809162048130FD
:1044000009F0FECD0E94460D8111FACD80915C0429
:1044100090915D04893091052CF0019790935D0493
:1044200080935C0480915C0490915D04CD97813809
:10443000910508F0E5CD80915804909159040197B9
:104440001EC00E94460D8111D8CF80915C049091CE
:104450005D048E3E91052CF4019690935D0480934B
:104460005C0480915C0490915D04CD978138910546
:1044700008F0C6CD8091580490915904019690930C
:10448000590480935804BCCD0E94A10C8111C3CD66
:1044900080915E0490915F049C012951310921347F
:1044A000310550F420915A0430915B0421503109B8
:1044B00030935B0420935A04019790935F04809398
:1044C0005E04809160048F5F80936004A9CD109298
:1044D0006404C9CD811135C980916404811131C949
:1044E0008091660481112DC980916704811129C9C9
:1044F000109260041092650481E08093660421C9E3
:10450000F999FECF92BD81BDF89A992780B508959B
:10451000262FF999FECF1FBA92BD81BD20BD0FB6DF
:10452000F894FA9AF99A0FBE01960895052E97FB12
:104530001EF400940E94AD2257FD07D00E94B522C0
:1045400007FC03D04EF40C94AD2250954095309565
:1045500021953F4F4F4F5F4F0895909580957095EF
:1045600061957F4F8F4F9F4F0895A1E21A2EAA1B8E
:10457000BB1BFD010DC0AA1FBB1FEE1FFF1FA21713
:10458000B307E407F50720F0A21BB30BE40BF50B10
:10459000661F771F881F991F1A9469F76095709599
:1045A000809590959B01AC01BD01CF010895A29F1C
:1045B000B001B39FC001A39F700D811D1124911DF7
:1045C000B29F700D811D1124911D0895DB01582F9C
:1045D0000E94D722529F800DA49F800D1124089520
:1045E000AA1BBB1B51E107C0AA1FBB1FA617B70719
:1045F00010F0A61BB70B881F991F5A95A9F7809535
:104600009095BC01CD01089597FB072E16F40094F8
:1046100007D077FD09D00E94F02207FC05D03EF4B8
:10462000909581959F4F0895709561957F4F08955E
:10463000EE0FFF1F0590F491E02D0994F894FFCF41
:1046400010010101FFFFFFFF00E10000000000007A
:1046500000C18081000000000000000B058A042CCE
:10466000052105720530054E0500000000B9061E43
:10467000060213011300000000260A1E06021301A1
:1046800013736D4249540070726573656E747300E4
:104690004C4556454C3A00534F554E443A0059004C
:0C46A0004E0043484541543A00430000DE
:00000001FF
