:100000000C946A000C9492000C9492000C94920050
:100010000C9492001895136118951DA00C949200F1
:100020000C9492000C9492000C9492000C94920008
:100030000C9492000C9492000C9492000C949200F8
:100040000C9492000C9492000C9492000C949200E8
:100050000C9492000C9492000C9492000C94F4284E
:100060000C9492000C9492000C9492000C949200C8
:100070000C9492000C9492000C9492000C949200B8
:100080000C943E290C9492000C9492000C949200D3
:100090000C9492000C9492000C9492000C94920098
:1000A0000C9492000C9492000C949200D5F08D1454
:1000B000A1C881CFD9F1AF200001010203040405DA
:1000C0000506060708090A0C0D0E0F10111214156B
:1000D0001600F22F11241FBECFEFDAE0DEBFCDBF36
:1000E00011E0A0E0B1E0ECEEF3E702C005900D9264
:1000F000A630B107D9F729E0A6E0B1E001C01D9212
:10010000AA30B207E1F710E0CAE6D0E004C02197B8
:10011000FE010E94EE39C936D107C9F70E949D3011
:100120000C94F4390C940000782FE3EEF6E080E0B4
:10013000042E000C550B022E000C330B90819717E8
:1001400050F0691740F091819417150621F49281BF
:100150009217130629F08F5F3896813379F78FEF66
:100160000895603609F4682FE3EEF6E030E020E011
:1001700090E05081581770F0651760F09F5F9413FE
:1001800009C0C90123E0880F991F2A95E1F78D5115
:10019000994F08952F5F3F4F38962133310549F726
:1001A00083EE96E00895CF93DF93C62FD42F482F88
:1001B00062E181E10E94B100FC018781CF3F71F0D3
:1001C000C483D683882329F0843080F483E0878336
:1001D0000DC083818930D1F381E0F9CF958194837B
:1001E00096838230C8F383508230B0F3DF91CF9191
:1001F0000895282F85E0820F8531B0F5862F062ED1
:10020000000C990B019636E1389FF001399FF00DF3
:100210001124E851FA4FE20FF11D27FDFA95878D61
:100220004F3F29F19091FE05690F9091FD05290F2F
:10023000E3EEF6E0022E000C330B062E000C770BDB
:100240009081913009F49681911108C091819217A3
:10025000130621F492819617170641F0389698E01C
:10026000EB36F90769F708958FEF0895842F089505
:100270000F93CF93DF93413011F0C1E02C278F37DC
:1002800081F16F3771F1D091FE05D60FC091FD0558
:10029000C80FC20F2D2F4C2F62E181E10E94940004
:1002A0008F3F41F42D2F4C2F6EE18EE10E94940080
:1002B0008F3FB9F028E0829FC001112488519A4FE6
:1002C000FC01EE5FFE4F2081233030F482509F4FBF
:1002D000FC018081801728F482E0DF91CF910F919B
:1002E000089580E0FACFEF920F93982F862F642F16
:1002F000422F202F0E2D9133ACF49F323CF49F30CF
:100300003CF49C301CF49650933028F481E007C0F4
:100310009952933010F04230A1F40E9438010F91AD
:10032000EF9008959D332CF49B3344F49A3399F75E
:10033000EDCF933491F39E3471F7E8CF81E04230F2
:1003400071F380E0ECCF8633C4F584331CF584313F
:1003500041F034F58B3029F0FCF48F3F11F08130FF
:1003600051F56F37B9F04F37A9F02091FE05240FF2
:100370004091FD05460F61E080E00E9494008F3FB0
:1003800049F098E0899FF0011124E851F94F81E08C
:100390009081911180E008958151823060F4E1CF25
:1003A0008D31F9F214F48751F8CF8532D1F21CF077
:1003B0008C528330B0F281E00895853491F24CF490
:1003C0008D3324F48B336CF68853E7CF8E3399F753
:1003D000C8CF8C342CF48A3424F6873461F7C1CF2B
:1003E0008F3409F4BECF813531F7BBCF882319F0A4
:1003F0004FEF0C94D3000895E3EEF6E083E0908194
:10040000913021F49781911101C08783389698E04B
:10041000EB36F907A1F7089580911E0881110CC0F1
:10042000E5EFF6E02DE937E080818F5F8083389635
:100430002E173F07C9F708958A3091F30895482F82
:10044000209103013091040186B52827C9019695B2
:10045000879520FF02C024EB92279093040180939C
:100460000301641B770B0E94C639840F0895E8EEE0
:10047000F5E0A2E2B3E060E070E080E00E94C40238
:100480009D01AF0160E00E9456028217930751F46C
:10049000D901FA0160E00E945B0281931197D9F7BC
:1004A00061E0F1CF0E946102862F08950E945B02F5
:1004B000982F0C945B020DB407FEFDCF8EB51EBCC9
:1004C00008950DB407FEFDCF8EB5599A089522E226
:1004D00033E0E8EEF5E0A0E0B0E0BD0180E00E948E
:1004E000C4020E94B302BD011296A20FB31F82176D
:1004F000930799F38F5F9F4F21F4AF5FBF40DB01FC
:1005000078F00E94190640E05091E6056091E705F9
:1005100080E20E94B802599A0E942C05A0E0B0E047
:100520007CEF0E9419064A2F5091E6055B0F6091FF
:10053000E705611D82E00E94B802832F71FD822FC2
:1005400070FD81910E94D002759518F421503040C1
:1005500019F01196AA2389F7599A0E942C052115A2
:100560003105F9F608950E945B02982F0C94610200
:1005700059980E94D002862F0E94D002852F0E9497
:10058000D002842F0C94D002462F5091E605570FCD
:100590006091E705681F83E00E94B8021EBC0895C1
:1005A0008EBD00008EB50DB407FEFCCF0895E8EEB9
:1005B000F5E097E09093DF068093E0068091700865
:1005C000909171086CE070E00E94DA398589680FBB
:1005D0006093DD0680917208909173086FE170E07E
:1005E0000E94DA398689680F6093DE0608951F93AA
:1005F000CF93DF9380917F08909180086CE070E04A
:100600000E94DA39C62F80918108909182086FE1AB
:1006100070E00E94DA39162F262F4C2F64E084E018
:100620000E949400D82F8F3F59F088E0D89FF001A6
:100630001124E751F94F8081811102C080E280834B
:10064000212F4FEF4C0F64E084E00E9494008F3F15
:1006500059F098E0899FF0011124E751F94F80810A
:10066000811102C080E2808341E04C0F212F64E0C1
:1006700084E00E9494008F3F59F098E0899FF00138
:100680001124E751F94F8081811102C080E28083FB
:100690008D2FDF91CF911F9108955E98E6EEF1E0E6
:1006A00081E0A0E0B8E000800EBC8111012C119720
:1006B000A0FDFDCF0192B9F70DB45E9A0895E5E073
:1006C000F0E00E947403319728F068517C4F8F4FFF
:1006D0009F4FF9CFAB01FC010E94740364177507AB
:1006E0008E079F07C8F30895A8EDB1E02FB7F894DF
:1006F0007D918D919C9166B52FBFA89B05C06F3FE2
:1007000018F47F5F8F4F9F4F22E0660F771F881F7F
:10071000991F2A95D1F708956F927F928F92EF9249
:100720000F933B01882E0E94C3030E945602FC01D6
:100730000E945602DC010E94BB03482F9B010E94CD
:100740005B02082F0E946102E82ECF01BD010E94CA
:10075000CF03B301882D675F7F4F8F4FE6FC05C045
:10076000E7FEDFCF6627772788270F91EF908F90DE
:100770007F906F9008950E945602782F0E945B022E
:10078000682F892F0895462F5091DC01570F6091F3
:10079000DD01681F83E00E94B8021EBC08953F92ED
:1007A0004F925F926F927F928F929F92AF92BF9281
:1007B000CF92DF92EF92FF920F931F93CF93DF932D
:1007C0005C016B013901842E302E9E2C842FB901DF
:1007D0000E94C3030E945602482EC82FD92F0E94A0
:1007E000B302FC019E012A0D3B1D121613060CF0EC
:1007F000EBC040E8A416B1040CF0E6C08C0D9D1DC2
:10080000181619060CF0E0C040E4C416D1040CF030
:10081000DBC0B7FE0BC0EE24FF24EA18FB084E181D
:10082000203831055CF050E8452E08C021383105EC
:100830001CF020E8422E4A18F12CE12CD7FED6C03D
:10084000002711270C191D09087FCF01801B910B70
:100850005E2E501A8134910534F08C2D819587706D
:1008600040E4542E580E1595079515950795159546
:100870000795CF01079696958795969587959695B6
:100880008795389E9001399E300D1124200F311F1D
:1008900040E0BE010D2E000C880B0E94B039A82F3D
:1008A000CB018E0D9F1DA11DF7FCAA9594FE05C0DE
:1008B000880F991FAA1FCC0FDD1F24E0620E711C48
:1008C000811C680E791E8A1EC60123E095958795C6
:1008D0002A95E1F7080F31E0C1FC34E0C0FC330F8A
:1008E000C2FC329540E80403D0011124AA0DBB1DBF
:1008F000AE0DBF1DAA51BE4F252D599883E08EBD68
:100900008091DC019091DD01870D981D0DB407FEEB
:10091000FDCF9EBD0DB407FEFDCF8EBD0DB407FE0D
:10092000FDCF6EBC6C0E7D1E811C0DB407FEFDCF8D
:100930001EBC990C073014F4089430FD88949794E9
:1009400062E021FD68E022FD629520FF66956A95D0
:1009500011F028300CF06FEF942D0EB41EBC93FCF8
:100960000626862F90FC802D92FC0024039EA00179
:1009700094FA36F4C895C89511240EB41EBC90FCA8
:10098000082E039E003034F08C9191FE48274021C0
:1009900048274C93A058BF4F97FE06C08C9191FEFC
:1009A0005827512158275C931124AF57B0409A958E
:1009B000A1F6A058BF4FA419B109285003950DB452
:1009C000599A12160CF499CFDF91CF911F910F9184
:1009D000FF90EF90DF90CF90BF90AF909F908F905F
:1009E0007F906F905F904F903F9008955E2E81347E
:1009F00091051CF080E4582E5C1810E000E039CF1F
:100A00006091E1017091E2018091E3010E948C0309
:100A10009B01482FEEEDF1E00780802D822B832B88
:100A2000842B002019F00A9407820AC006800782EE
:100A3000882319F4208131814281238334834583C3
:100A40000895EEEDF1E060837183828363837483A4
:100A50008583468347830895599885E00E94D00294
:100A600080E00E94D00280FDFBCF599A0895FC01DE
:100A70000E945B02819361507040D1F70895409FBE
:100A800009F4142E5527020E151E600D711D851FC9
:100A900011240C94C3030F9303E020E00E943F0550
:100AA0000E945602782F0E946102682F892F0F91B1
:100AB0000895CF93C82F482F6EEA74E880E00E9413
:100AC0004B050E94C30368E871E083EE96E00E9444
:100AD00037050E94610281E0C23008F480E0809313
:100AE0008808CF910895DF92EF92FF920F931F93A2
:100AF000CF93DF93D091FD05D111D650E1E0F6E020
:100B00008FEF819396E0EF36F907D9F7C091FE0594
:100B1000C15096E1D92E8091FE058C5FC817ACF5C7
:100B2000C7FD31C00091FB054091F3056AE574E80B
:100B300080E00E944B052D2F4C2F0E943F0510E0B6
:100B400000E0EC2E0C2E000CFF08063010F4DD2324
:100B500099F00E945B029091FE059701291B3109D3
:100B60002F5F3F4FD29EF001D39EF00D1124E8512C
:100B7000FA4FE00FF11F818F0F5F1F4F06311105F4
:100B800021F70E946102CF5FC6CFEFE6F6E086E074
:100B9000819396E0ED3DF907D9F7C091FE05C1506C
:100BA00086E1D82E8091FE058C5FC817ACF5C7FD95
:100BB00031C00091FB054091F30560E374E880E0EB
:100BC0000E944B052D2F4C2F0E943F0510E000E0A6
:100BD000EC2E0C2E000CFF08063010F4DD2399F0EB
:100BE0000E945B029091FE059701291B31092F5F3E
:100BF0003F4FD29EF001D39EF00D1124E00FF11F64
:100C0000E159F94F80830F5F1F4F0631110521F71E
:100C10000E946102CF5FC6CFDF91CF911F910F91EC
:100C2000FF90EF90DF90089559980E94D002599A52
:100C3000089586E00C9414068091D10108951092D5
:100C4000D1013E983F9808953E9A3F9A81E0809363
:100C5000D1010895EEEBF1E08285082E880FA68180
:100C6000A80FB781B11D8D919C910394A0850A16A0
:100C700008F0002402860895E1E7F0E080818D7F8E
:100C80008083109291004698479808950F931F9380
:100C9000CF93DF930E942A06811520E8920731F452
:100CA000DF91CF911F910F910C943C0697FD05C0E9
:100CB0002091CF01222309F454C02091D0012111A9
:100CC00050C021E02093CE01EC01DF77209709F09E
:100CD0004BC081E08093CD0146980FE91FE0CAEF39
:100CE000D0E0E091BC01F091BD010995811103C0F4
:100CF00081E08093CD018091CE01882329F08091FD
:100D0000CD01882309F43FC047980E942A062FEF9F
:100D10003FEFA901009751F09C01DE010E94A1392B
:100D200024EF31E040E050E00E947F3910929000C3
:100D30008AE080939100109399000093980020938B
:100D4000C9013093CA014093CB015093CC018091EB
:100D50007100826080937100DF91CF911F910F919C
:100D600008951092CE01B0CF9E0150E040E060E4C3
:100D700072E48FE090E00E9460398901015011090E
:100D80001092CD01AECF4699BFCF479ABECFEEEBC2
:100D9000F1E021853285231791F16381748185818A
:100DA0000E94C303231749F10E945602813060E874
:100DB000960741F480819181A28183839483A583E6
:100DC0001CD0EBCFA681B781A20FB11DA20FB11D20
:100DD0008D939C9323956085261709F420E0218745
:100DE00083819481A5810296A11D83839483A58329
:100DF0003F3FC1F630E03287D5CF0C9461020895B1
:100E0000EEEBF1E063837483858360837183828377
:100E100011868FEF82870E94C706E1E7F0E08081AC
:100E20008D7F80830C944606382F262F972F862F90
:100E30006CE070E00E94DA39313021F0323041F05C
:100E40008FEF0895822F94EF699F800D11240895EC
:100E50008CE0869F800D1124821B08959CEE980FD4
:100E6000963020F42091910021111BC020916B0835
:100E700030916C082A3A42E0340758F02D3A42E0AB
:100E8000340728F02E5333402230310510F49630C9
:100E900040F0482F64EC7EE880E00E944B050C9403
:100EA00000070895EF92FF921F93CF93DF93FC0109
:100EB0008081282F30E08A3130F08A3250F08E5411
:100EC000803108F446C0DF91CF911F91FF90EF90E1
:100ED0000895418182ED840F8630A8F7C9014A97B1
:100EE000EC0197FD2396D595C795D595C79564E0F8
:100EF00070E00E94DA39182F81E041330CF480E071
:100F0000CF3F09F3CC0F895EC80F88E0C89FE0018E
:100F10001124CA51D94F888190E0012E02C09595C5
:100F200087950A94E2F780FDCECF7F0183E10E948E
:100F30002E0721E030E001C0220F1A95EAF78881E0
:100F4000822B88838CEFF701818385E08093F10603
:100F5000BACF418182ED840F863008F0B4CFC90149
:100F60008E549109EC0197FD2396D595C795D5959B
:100F7000C795CC5FBCCFFF920F931F93CF93DF93A6
:100F8000F82EEB018A01BA0161507109660F771FD3
:100F9000072E000C880B655A7E41884F0E94C303C0
:100FA0000E945B02082E000C990B21E0F21631F131
:100FB00021E030E0829FA001839F500D929F500D51
:100FC000112417FD1EC001E010E0409FC001419FA9
:100FD000900D509F900D1124998388830E94610287
:100FE000282F2003C001219F900D11249B838A8309
:100FF000DF91CF911F910F91FF9008952FEF3FEF59
:10100000D9CF0FEF1FEFE1CF0F93880F4091EA0583
:10101000480F04E020E06BE879E38AE00E943F0596
:101020000E945602BC010E94B302AC01BB27A72F4D
:10103000962F852FBC018A2F0F910C942105A6EFC6
:10104000B6E0E0E08C91893009F0EF5F189687E018
:10105000AE39B807B9F7F0E0E754FF4F849108952F
:10106000EF920F9370E0E12C042F2AEB36E041E081
:1010700090E00E94CF030F91EF900895CF92DF92FE
:10108000EF920F936B01E82E80916B0890916C08A2
:101090008C3A22E0920721F040E08F33934009F42C
:1010A00041E08091E80581114E5F20911D01220FE2
:1010B00004E18E2DB6010E943F050E94B3020F91FC
:1010C000EF90DF90CF9008950F931F93CF93DF930E
:1010D000DC0121153105B1F0CD91DC91119782E051
:1010E0008EAF0CAD1DAD0E31110561F0C801880F3A
:1010F000991F8C0F9D1FFC0131832083F8013196CD
:10110000FDAFECAF82E06417750708F1ED91FC913B
:1011100084AD95AD8E31910571F0DC01AA0FBB1F36
:10112000AE0FBF1F22273327241B350B2D933C9373
:10113000019695AF84AF4F5F5F4F6417750740F717
:1011400082E086AFDF91CF911F910F9108954617EE
:101150005707C0F3ED91FC91119786AF24AD35ADE3
:101160002E31310559F0E901CC0FDD1FCE0FDF1F05
:10117000598348832F5F3F4F35AF24AF415051090A
:10118000E6CFAB0110928A0830E020E0BC0183E892
:1011900098E00C946408CF93C82F80E00E942E073B
:1011A000E0918308F091840815AE14AE6CEA72E009
:1011B0008AEA92E0CC2321F06FE373E08EE393E0C0
:1011C0000E94C10810927B0884E18093E10680911F
:1011D0007208909173088833910551F08735910515
:1011E00039F0499719F480E38093E206CF9108958E
:1011F00081E0FACF1F93CF93DF93C82F142FD22F04
:10120000262F482F69E189E10E9494008F3F11F158
:101210009091FD05C91B4CE0C49F402D11244D5FEA
:10122000042E000C550B14171506A4F4D41715063C
:1012300089F084F098E0899FF0011124EA51F94F78
:1012400080818B5F8B3030F481E0DF91CF911F91F3
:101250000C94CB08DF91CF911F9108959A011092C1
:101260008A08AB01BC0183E898E00C946408DC01B7
:10127000ED91FC9182E086AF84AD95AD8E31910504
:1012800061F0DC01AA0FBB1FAE0FBF1F6D937C93F3
:10129000019695AF84AF81E0089580E008950F93A3
:1012A0001F93CF93DF938C01EB01FC01608171816F
:1012B00080E061507242884F0E94C3030E94610225
:1012C0008150990BBC01660F771F680F791F072E9D
:1012D000000C880B69557741884FF801948111E023
:1012E000913009F41FEF0E94C3030E945602199F18
:1012F000902D11249883189F802D112489830E949A
:101300006102189F802D11248A838981813811F40C
:101310008FE789838981823811F48EE78983DF9191
:10132000CF911F910F9108957F928F929F92AF92CC
:10133000BF92CF92DF92EF92FF920F931F93CF93C2
:10134000DF9300D01F92CDB7DEB7782EC0907F0814
:10135000D09080088090810890908208BE016F5FD5
:101360007F4F8BE698E00E944F091A81E090FD05BF
:10137000C601810F911D17FD9A952CE0A22EB12C6C
:10138000B5010E94DA39F62EFE18C4016FE170E053
:101390000E94DA398091FE05062F081B43E0602F7A
:1013A0008F2D0E94F9001F3709F477C0402F6F2D51
:1013B0000E94A301182F8130A1F18B819601280F83
:1013C000311D87FD3A95C901B5010E94DA39162F02
:1013D0001E1943E0602F812F0E94F900402F612FDA
:1013E0000E94A301182F8130E1F07720D1F0E09026
:1013F0006F0860917F08709180088E2D0E941407FD
:10140000823079F481E032E0E31280E043E0602F43
:101410008F0D0E94F90091E0E916A9F022E0E21692
:1014200079F1812F0F900F900F90DF91CF911F9145
:101430000F91FF90EF90DF90CF90BF90AF909F9073
:101440008F907F900895853231F06CF4843119F0DB
:1014500024F48B3031F412E0E4CF8831E1F38D31A4
:10146000D1F310E0DECF8734B1F32CF48C3299F352
:101470008534B9F7F0CF8A3471F38F3491F7EBCF1D
:10148000863149F32CF4823031F3833151F7E3CFC5
:101490008C3109F38C3429F7DECF11E0C2CF609193
:1014A000D10182E090E00C944E392F923F924F92FE
:1014B0005F926F927F928F929F92AF92BF92CF92E4
:1014C000DF92EF92FF920F931F93CF93DF93CDB7ED
:1014D000DEB7A5970FB6F894DEBF0FBECDBF7090F4
:1014E0001301809112018095682E672080916B080E
:1014F00090916C088353934010E0089708F44BC018
:1015000080917208909173082091FF05AC01421BF5
:101510005109473551050CF400C12091FE05309169
:10152000F305363099F4263089F4E0918308F09180
:10153000840815AE14AE67E073E083E898E00E947B
:1015400037098CE08093FE0510E014C09093750875
:10155000809374088D559109909373088093720855
:101560002D5F2093FE050E9473051092FF051092D7
:10157000000611E080917208909173082091740820
:1015800030917508293331050CF06CC1C9971CF0F6
:1015900084E08093000681E080938808809119019F
:1015A000882319F0815080931901809117018823B5
:1015B00079F0815080931701863451F445E060E65C
:1015C00082E00E94B1006FEFFC0183810E94F6016E
:1015D0002091FE053091FD05809185088111815093
:1015E00080938508809186088111815080938608B8
:1015F000E0918308F091840886AD882309F437C10F
:10160000815086AF8091700890917108FCE03F9FF7
:10161000800D911D11249093800880937F08809104
:101620007208909173083FE1239F800D911D112452
:101630009093820880938108E0918B08F0918C0848
:1016400086AD882309F415C1815086AFE2E9F8E040
:101650008AE099E020813181308B27872281338194
:10166000328B218B78968E179F07A1F78091000609
:10167000833009F400C1843059F48091FF058F3123
:1016800038F48F5F8093FF058F3111F410920006BC
:1016900043EE56E058A34F8F9BE6A92E98E0B92E53
:1016A0001A0100E026E0822E912C3FE1C32E40E695
:1016B000D42E5FE1452E512CD1012C918091140143
:1016C00090911501AC0143705527EFEFE20FEE3119
:1016D00008F0E4C0F0E0E159F44F0C94EE39560DF7
:1016E0000B0E0B0E1E0E4E0C4E0C0B0E0B0E0B0E9D
:1016F0004E0C0B0E4E0C4E0C4E0C4E0CD70CE90C37
:10170000E90C4E0CEB0DEB0DEB0DEB0D4E0C470CFD
:10171000D70C4E0C4E0C4E0CE90C182F121B17FF59
:1017200015C09093750880937408835A9F4F9093C7
:101730007308809372088091FE0583508093FE05A4
:101740000E9473058FE18093FF0511CF809170088F
:101750009091710897FF49C088589F4F90937108E6
:10176000809370088091FD058A508093FD050E944A
:1017700073058091F3058D3009F0FBCE8091FD0556
:101780008111F7CE8091FE058111F3CE83E0809325
:10179000EF0580E1809309098FE10E940408909190
:1017A000EB058091F505981740F098131AC0209129
:1017B000EC059091F4052917A0F491E09093E905C8
:1017C0008093EB058091F4058093EC058091F605FC
:1017D00090E09093EE058093ED051092E8050E944D
:1017E000670289E00E942E07C4CE893791050CF468
:1017F000ABCE8857910990937108809370088091BF
:10180000FD05865F8093FD050E9473058091F305B9
:10181000883009F0AECE8091FD05883209F0A9CE5E
:101820008091FE05833009F0A4CE809117018111CB
:10183000A0CE809118018F5F80931801833008F447
:1018400098CE46E062E181E10E94B100DC0113968E
:101850008C9181118ECE60EF8AEA0E941F028093E4
:10186000170187CEC9970CF096CE83E092CE82E026
:10187000C8CE82E0EACE8091FF05882309F408CF24
:1018800081508093FF05882309F400CF01CFF10137
:1018900083818F5F873309F486C08383F8E02F0E3E
:1018A000311CA214B30409F007CF2091DF06809108
:1018B000140190911501222329F080FD03C02150CD
:1018C0002093DF0683709927892B39F48091E106F4
:1018D000823018F081508093E1060130D9F4809174
:1018E0006B0890916C088E5B9240CC9798F080E0EA
:1018F0000E94D70280917B08882319F08150809341
:101900007B0880917B08811102C00E94CB0887E18F
:101910000E942E078091EF058730F1F0809114012D
:10192000909115012091F0053091F105821B930BE8
:101930006DE270E00E94C639892B71F48091F40544
:10194000815087FF07C08091F505815087FF809304
:10195000F5058BE38093F4058091F80581118150A2
:101960008093F8058091F5059091F405892B79F421
:1019700083E08093EF0582E18093090983E10E946F
:10198000040880E8809302018BE00E942E0780917A
:101990001C0190911B01913009F46FC1923009F440
:1019A00073C190E078C1EBEF1396EC9377CF80FD95
:1019B00075CF16968C911697833009F06FCF1596D8
:1019C0008C9115978B3008F069CF8F5F15968C93AB
:1019D00065CF452B09F062CFF10184819781923068
:1019E000C1F1933009F44AC0913001F590E00896B6
:1019F00026812817190609F0CCF483818930B0F4C8
:101A0000811105C06AE77CE880E00E940007D101EF
:101A100013968C9113978F5F13968C93139789303D
:101A200029F48C91813169F0823179F0D1011496D9
:101A30008C911497882309F431CF815014968C939C
:101A40002DCF22E0F1012783F1CFE5E01796EC934B
:101A5000EDCF8150893050F7223141F313968C91AC
:101A6000893029F46CE37CE880E00E940007F101F2
:101A700083818350838383E08783D8CF81508930EB
:101A8000A8F6223199F213968C911397833020F0A7
:101A9000835013968C93CACF1382213121F02E31BB
:101AA00029F626E0CFCF17961C92C0CF452B31F4F4
:101AB000F1018781882311F081508783D101169627
:101AC0008C911697823018F0815016968C93F10104
:101AD0008681813009F0E2CE95819E5F9583838176
:101AE000981708F4DBCE8E3F11F4D082D7CED10107
:101AF00022812F5F6C2D0E94BA39280F2283E3E1E7
:101B0000EC9380917F08909180086CE070E00E94D7
:101B1000DA39062E000C770BD10111968C918617BD
:101B2000170671F48091810890918208B2010E9499
:101B3000DA39062E000C770B2617170609F401E098
:101B40008091F3058B30E1F4E3EEF6E080819EEFC7
:101B5000980F923010F0873069F49181D10111967D
:101B60008C911197981306C0928112968C919813BC
:101B700001C0D0823896B8E0EB36FB0739F78ECE3D
:101B8000863009F08BCE83EEE82E86E0F82EF70142
:101B90008081823011F08730A9F4D70111969C9191
:101BA0001197F101818198130DC012968C91928149
:101BB000891B990B0296059728F440E060E083E0CA
:101BC0000E94D300F8E0EF0EF11C2BE6E21628E0AD
:101BD000F206E9F663CEB4010E94C639892B09F0FA
:101BE0005DCED10113968C91263141F0273169F0F9
:101BF00091E0811190E0F101938350CE8F5F8630A8
:101C000039F0D10113968C9349CE8F5F8730C9F795
:101C1000F101138243CE452B09F040CE17968C91EB
:101C20001797823018F0815017968C93F1018781B5
:101C3000813009F033CE1682178230CE452B09F061
:101C40002DCE16968C911697843040F4813008F48E
:101C500025CE815016968C931697E9CE92EE980F6A
:101C60008150F1018683933008F018CE848183304F
:101C700008F014CE8F5F848311CE8450863509F02E
:101C800090CE10921B018DCE8C5F823809F089CEE8
:101C900010921B0191E080931C01992371F083E85D
:101CA00084BD8FEF87BD81EF809380001092880004
:101CB00010928A0085E08093EF05E0908B08F09009
:101CC0008C08D701DC96AD90BC90C090060990902E
:101CD00005090091FD05802F90E0FC013996FD8FEC
:101CE000EC8FD090FE054D2C512CF2E04F0E511C84
:101CF00080918108909182086FE170E00E94DA394A
:101D0000262F660F330B3AA329A3EDE9F8E040E054
:101D10001E8E2FE130E0941611F40C94B9254093F7
:101D200006098281882319F08250823078F58481F7
:101D300095816CE070E00E94DA39868197816017A6
:101D4000B8F0AC8DBD8D6A171B0609F08CF4B90193
:101D50000E94DA396D1560F077274616570644F071
:101D600089A19AA168177907A1F08824839401C0FA
:101D7000812C8081811107C080910709882319F087
:101D800081508093070981100C9479254F5F7896D4
:101D9000C2CF91E09E8FE9CF858590E0FCE02F9F38
:101DA000800D911D112416969C938E931597E091AA
:101DB0000609E69FF0011124E357F74F82E00C94E7
:101DC00019262F32F3E03F0729F02233334011F078
:101DD0000C94DE26452B11F00C94DE2617FF03C071
:101DE00011950195110917FD07C0053111050CF476
:101DF0004AC00F311105F4F120E04D8164E0CE01BD
:101E000001960E94312C8823F1F14FE253E06DE2FC
:101E100073E08BE898E00E94AA2F0C94DE260B5BFF
:101E20001F4F0B38110510F00C94DE26452B11F0D6
:101E30000C94DE261E8D112311F40C94DE26809165
:101E40006B0890916C088C3A22E0920711F40C9484
:101E5000DE268F33934011F40C94DE2626E233E025
:101E60004CE253E067E273E08BE898E00E9464087C
:101E70000C94DE2680916B0890916C0886529340FA
:101E8000489708F0B9CF66E273E08BE898E00E94CB
:101E900037090C94DE2610161106E4F56130E9F5D9
:101EA00022E0DC0114962C9380918C088F93809112
:101EB0008B088F93EDB7FEB778970FB6F894FEBFF7
:101EC0000FBEEDBFADB7BEB7119688E1FE013196EA
:101ED00001900D928A95E1F70E94AE2F0FB6F8940B
:101EE000DEBF0FBECDBF80916B0890916C0886520B
:101EF0009340489710F00C94812580916F088230B0
:101F000011F00C94DE2681E080936F080E94CE2EA3
:101F10000C94DE2601151105E1F420916B08309137
:101F20006C08253363E0360708F04AC0233373E0BA
:101F3000370708F07BC0B9016A5A724063307105F7
:101F400008F04AC022E130E04DEB52E064EB72E071
:101F50008BCF623011F721E0FC01248380918C0843
:101F60008F9380918B088F932DB73EB728513109FD
:101F70000FB6F8943EBF0FBE2DBFADB7BEB71196DA
:101F800088E1FE01319601900D928A95E1F70E9459
:101F9000AE2F0FB6F894DEBF0FBECDBF80916B0899
:101FA00090916C0886529340489710F00C948925C4
:101FB00080916F08813011F00C94DE2682E0A4CF6E
:101FC0002733A3E03A0708F475C0B9016E53734094
:101FD0006230710508F4B6CF452B11F00C94DE2663
:101FE00017FF03C011950195110917FD05CF0531A4
:101FF00011050CF467C0013311050CF0FDCE60E152
:1020000080E00E941F02882309F4F6CEE0910609C1
:1020100018E1E19FF0011124E357F74F808191818E
:102020008F32934011F00C94DE262DCF6CE080E0CF
:102030000E941F02811115C0E0918308F09184086D
:1020400015AE14AE46E253E06DE373E08BE393E02C
:102050000E942E0926E233E04DE353E06BE373E088
:1020600003CF6CE080E00E941F0281110C94DE26F9
:1020700080918C088F9380918B088F936DB77EB77A
:10208000685171090FB6F8947EBF0FBE6DBFADB732
:10209000BEB7119688E1FE01319601900D928A95A6
:1020A000E1F70E94AE2F0FB6F894DEBF0FBECDBF92
:1020B0000C94DE2668E080E00E941F0281110C94DF
:1020C000DE26BACF2E33A3E03A07D0F52B33B3E0A8
:1020D0003B0728F4265233402D303105B0F5DC01A2
:1020E00015962D913C918091FD05BCE08B9FC00120
:1020F00011242817390714F40C94DE2680579F4FBB
:102100008217930714F40C94DE2660E180E00E94AD
:102110001F02882371F0E091060918E1E19FF001A8
:102120001124E357F74F948180916F0898130C9412
:10213000DE2626E233E04AE353E063E373E094CE25
:102140002034334010F40C94DE26DC0115962D91DA
:102150003C918091FD05BCE08B9FC00111242817A4
:10216000390714F40C94DE2680579F4F821793078B
:1021700014F40C94DE26DDCF67E073E08AEF92E082
:102180000E94C1088091FD056091700870917108EE
:102190009CE0899F600D711D112480916F080E9441
:1021A0001407863089F08A3049F0823011F00C949F
:1021B000392761E372E08CE292E00AC061E372E0E9
:1021C0008CE292E00E94C10867E172E081E192E056
:1021D0000E94C1080C9439278E179F0711F00C94A8
:1021E00083287091E506E62F062E000CFF0B7E1764
:1021F0001F0611F00C9483287091E906733011F0DA
:102200000C94832847EE54E063E370E08FE290E0A3
:102210000E942E0980916F08813021F1823011F0E7
:102220000C94392767E073E08AEF92E00E94C108BE
:102230008091FD056091700870917108BCE08B9FE2
:10224000600D711D112480916F080E941407823067
:1022500019F1863011F00C9439276CE272E081E3B9
:1022600092E0B6CF8091FD05609170087091710881
:10227000ACE08A9F600D711D112481E00E9414075B
:10228000863009F496CF8A3011F00C94392767E133
:1022900072E080E192E09CCF60E172E087E192E041
:1022A00097CF2131310511F40C94A5282231310545
:1022B00011F00C943927B090FD05ACE0BA9E600196
:1022C0001124E0907008F0907108B6016E0D7F1D2A
:1022D000852D0E9414078C3008F04CC0E82F880F21
:1022E000FF0BEB58FE4E0C94EE39ED11B311BA1101
:1022F000E911ED11B311BA11E911ED11B311BA11D0
:10230000E9112236F2E03F0709F4ABC3D8F42E32CC
:10231000310509F4E4C22031324011F00C94392720
:10232000072109F46FC320E0452D62E08BE698E0B9
:102330000E94312C882309F465C369E070E085E0D0
:1023400090E046CF263273E0370709F41BC42D34E2
:1023500083E0380709F4C3C22D3A324011F00C94DF
:1023600039270C94A528BFEFEB1AFB0AF0927108ED
:10237000E0927008A090FE05E0907008F09071085F
:10238000EC0CFD1CF0928008E0927F08C09072086F
:10239000D09073082FE1A29EC00CD11C1124D092C2
:1023A0008208C0928108072109F45AC020E0452D17
:1023B00072FE17C061E08BE698E00E94312C882302
:1023C00009F447C142E150E061E372E08CE292E03F
:1023D00036C2E1E0EE1AF108C9CFF2E0EF0EF11CCF
:1023E000C5CF60E08BE698E00E94312C882341F055
:1023F00060E172E083E898E00E9437090C94392785
:1024000020E0452D61E08BE698E00E94312C81119F
:10241000D9CF74FE54C1E1E082E05E1281E00E94F7
:10242000F82D182F8FEF810F823008F415C1852DFC
:102430000E94F82D813009F40EC1823009F421C1C7
:1024400011110AC18091F7058F5F8093F7058430E1
:1024500011F00C94392763E070E081E090E0B8CE91
:10246000172139F047EE54E063E370E08FE290E02B
:10247000E6C173FECECFC7016CE070E00E94DA398E
:10248000962E9B18C6016FE170E00E94DA39062F84
:102490000A19B701852D0E941407182F31E0FF2477
:1024A000FA94531611F0FF24F3949F0C28E0452D65
:1024B000602F892D0E9478298BA3EF2CE90C26E050
:1024C000452D602F8E2D0E94782989A3DF2CDE0CEC
:1024D00024E0452D602F8D2D0E947829A82EFD0C1B
:1024E00022E0452D602F8F2D0E9478298CA3CC24CB
:1024F000C394C00E28E0452D6C2D892D0E947829AB
:102500008C8F26E0452D6C2D8E2D0E947829B82EBB
:1025100024E0452D6C2D8D2D0E947829482E22E037
:10252000452D6C2D8F2D0E947829582E602F892DD6
:102530000E94D0298DA3602F8E2D0E94D029E82ED5
:10254000602F8D2D0E94D029982E602F8F2D0E94F4
:10255000D029082F6C2D8D2D0E94D0294BA141111F
:1025600074C059A151116CC0E1100EC0992061F0E6
:1025700068E0163009F458C069E01A3009F454C014
:10258000123011F465E050C0173014F00C94CE28CE
:10259000A1100C94CE286CA161110C94C1287C8DE3
:1025A00071110C94E528B1100C94D128411011C080
:1025B000552049F0E1100DC091100BC06AE01230B7
:1025C00099F16BE031C0E11004C0911002C001111B
:1025D000F5CF41101CC0ADA1A11119C0E11017C069
:1025E0008823A9F066E020C0AA2011F40C94EE28FC
:1025F000EE2041F0163059F11A3049F1123011F441
:102600000C94E228FC8DF11105C0BB2011F3AA2027
:1026100009F4B8CF163011F40C94E2281A30B9F04E
:1026200061E0123009F0AECFB0E16B9FB001112430
:1026300080E0655E734C854F0E94422F0C943927D1
:1026400089A18150823008F09DCF60E0EDCF63E03A
:10265000EBCF712CDECE13E040E250E061E472E09B
:102660008FE492E00E942E09133069F01430C1F01B
:10267000123089F442E150E06CE272E081E392E0D2
:1026800008C014E0E9CF47EE54E063E370E08FE266
:1026900090E00E942E0986E9809385080C943927E2
:1026A00047EE54E063E370E08FE290E00E942E0971
:1026B00042E150E061E372E08CE292E0EACF77FC25
:1026C00002C00C943927852D0E94182DE82F8130E7
:1026D00040F0833008F452C089EF8E0F833008F445
:1026E0004DC0F1E082E05F1281E00E94182D382F8A
:1026F000C7016CE070E00E94DA39262FC6016FE155
:1027000070E00E94DA39E5E03130C1F12B19B22EC8
:10271000A094A60E43E06A2D81E0820F0E94F9008A
:10272000182F43E06A2D8B2D0E94F900082F43E0FB
:102730006A2D8FEF8B0D0E94F900B82EB701852D01
:102740000E94140721E0521631F032E0531609F4CA
:102750004CC0E3E013C08A3009F060C01D3141F085
:10276000A4F51231B1F344F5113099F31B3059F54A
:10277000812F0E949F29E6E0811125C0C7016CE0EE
:1027800070E00E94DA39462FC6016FE170E00E94C6
:10279000DA392FEF260FE250E83008F045C0F0E0BC
:1027A000EC52FC4E0C94EE395C143714191463147B
:1027B0006A14231446143B141431D1F224F088EE29
:1027C000810F8330A8F2E4E0D9CF153489F22CF4DC
:1027D000153271F21C32B9F7CBCF1A3449F21F34DB
:1027E00009F4C6CF173479F7C3CF8A30B9F403316F
:1027F00071F044F4023059F0023109F4AACF0130EB
:1028000011F7A7CF0C3119F024F40631E1F68B2D26
:10281000B0CF0634E1F30C34B1F6F9CF013009F44E
:1028200098CF023181F695CF60E270E083E190E0CD
:10283000CFCC42E150E065E273E083E193E00E9497
:102840002E090C94392751E081E0551201C08FEF19
:10285000480F61E080E00E9494008F3F41F068E003
:10286000869FF0011124E751F94F8CE680830E9486
:10287000C02E0C94392761E080E00E9494008F3FC5
:10288000B1F378E0879FF0011124EDCF81E0581279
:1028900001C08FEF480F61E080E00E9494008F3FFD
:1028A00041F098E0899FF0011124E751F94F8CE63F
:1028B00080830E94C02E86CD60E270E083E190E0CC
:1028C0000E94C10876CC60E270E083E190E00E9453
:1028D000C108C8CD6EE270E081E290E079CC74FE70
:1028E00021C08091F305873051F48091FD058A3035
:1028F00031F48091FE05811102C01092F8050E940A
:10290000D529823009F476C0833009F46CC0813057
:1029100011F00C94392742E150E066E372E082E363
:1029200092E08DCF77FE59C02091FD059091FE0574
:102930008091F305873029F42A3019F4992309F49A
:102940004CC0A1E05A1631F0B2E05B16A1F160E094
:1029500040E004C0421B892F8095680F042E000CB4
:10296000550B420F511D062E000C770B690F711D80
:10297000E3EEF6E090E080E02081213111F02E318D
:10298000E9F4218124171506C9F4228126171706B8
:10299000A9F413E0880F991F1A95E1F7FC01EA5199
:1029A000F94F8081893081F442E150E06FE472E0B8
:1029B00081E492E044CF421B4F5FCDCF0196389621
:1029C00081339105C9F6F0CF8F3F71F342E150E0BA
:1029D0006BE672E083E692E032CF80918508811148
:1029E0000C9439278CCF42E150E06BE372E087E32F
:1029F00092E025CF81E08093870860E472E08CE369
:102A000092E0E6CB42E150E067E172E081E192E0E2
:102A100016CFFF2011F40C9439270721A9F073FE7B
:102A200005C08E8D0E94562F0C94392720E0452D2D
:102A300063E08BE698E00E94312C882359F061E135
:102A400070E08EE090E0C4CB172121F00E940D2FA2
:102A50000C94392742E150E06CE172E088E192E0A9
:102A6000EECE272D20713091860831110C94392734
:102A7000211107C042E150E06BE572E082E592E08F
:102A8000DECEE1E05E1249C075FC4CC073FC02C0B2
:102A90000C94392728EE35E010E000E0652F052E74
:102AA000000C770BF901E550FF4F4081ECEEE40F8D
:102AB000E43080F4F901E450FF4FE081E817190693
:102AC00049F4F901E350FF4FE081E617170611F4CE
:102AD0000C948E250F5F1F4F285F3F4F0133110568
:102AE00009F7E3EEF6E010E000E0252F550F330B79
:102AF00040814B3151F441814817190631F442812C
:102B00004217130611F40C949B250F5F1F4F389644
:102B10000133110569F70C943927F2E05F12B6CF43
:102B200076FEB4CF20E0452D69E08BE698E00E9468
:102B3000312C882311F40C94392762E672E08CE57D
:102B400092E046CB86E00E942E07B3E0000F111FF3
:102B5000BA95E1F70053194FD80153968C918451DF
:102B6000BFE08B9FC0011124BC0166587D4F42E13C
:102B700050E084599D4F0E942E0980E6F801838B16
:102B80000C94392773FE41C042E150E06DEB72E0D6
:102B900084EB92E00E942E098091F3058C3011F0B5
:102BA0000C943927E091060918E1E19FF001112406
:102BB000E357F74F8389833011F00C9439278081D4
:102BC0009181863223E0920710F40C9439278333E5
:102BD00033E0930730F08B539340039710F00C943D
:102BE000392784E0838BE0918B08F0918C0815AE37
:102BF00014AE22E130E04DEB52E064EB72E08BE882
:102C000098E00E9464080C94392746E253E06AE396
:102C100073E083E393E072FC12CE77FE25C0E0916F
:102C2000060948E1E49FF0011124E357F74F808142
:102C3000918184539340039780F4E0918B08F09145
:102C40008C0815AE14AE26E233E04DE353E06BE39F
:102C500073E08BE898E00E94640846E253E06DE37D
:102C600073E08BE393E0EBCD102B172111F40C9460
:102C7000392776FE03C052E0551629F075FE15C0BF
:102C800061E0561215C020E0452D61E08BE698E02A
:102C90000E94312C882311F40C94392746E253E02A
:102CA0006FE273E08DE293E0CACD71E042E057122B
:102CB00041E024E061E08BE698E00E94312C88231B
:102CC00011F40C94392746E253E062E373E080E3A9
:102CD00093E0B5CD72FE2BC0E0918308F09184089B
:102CE00084AD95AD892B19F51E8D112379F0E091F6
:102CF000060928E1E29FF0011124E357F74F80898C
:102D0000882321F080917B08811111C080911601E8
:102D1000853028F48F5F809316010C94462787E056
:102D20008093EF0581E080931B0110921D011092AA
:102D300016010C94462764E27DEE87E00E943E086F
:102D400067FC90931D0164FC80931D01862D8C709F
:102D500011F40C944627E0911D01EA3088F5F0E06B
:102D6000EC54F94E0C94EE39D916D716C516BE168A
:102D7000DD16E316E516EA16ED16F0169091D10170
:102D800087E0891B80931D011BC081E08093E805CB
:102D90008091F6058F5F8093F60580E280938A002C
:102DA0000E94670210928A008FED87BD02C00E94C8
:102DB000370282E080931B0103C082E08093EF051D
:102DC000612C0C94462788E0DDCF0E9424060E94E7
:102DD0004F0AEFCF0E941F06FACF1092E805DDCF11
:102DE00085E0D0CF0C5212400630110510F00C9443
:102DF00095278091F305843009F04DC000916F084C
:102E0000013009F048C080918108909182086FE1FB
:102E100070E00E94DA399B0180917F0890918008D0
:102E20006CE070E00E94DA3968367105A1F5232B59
:102E300091F51092060910919F08133061F51092D8
:102E40009F0828EE34E041E150E06AE070E08BE852
:102E500098E00E94640841E150E06AE070E08BE88D
:102E600098E00E94AA2F41E150E06AE070E08BE810
:102E700098E00E94AA2F49E050E064E070E08BE8FF
:102E800098E00E94AA2F00937B088091E906833086
:102E900011F01093E90680916B0890916C088C30CA
:102EA000910521F0409711F00C94952780919100A5
:102EB00081110C94952789E10E942E070C94952787
:102EC000003582E0180709F404C13CF50A33A2E09A
:102ED0001A0714F40C9495270C33B2E01B070CF47A
:102EE000F8C00034124011F00C94952781E00E9444
:102EF0009409813009F43FC108F430C1823011F0E7
:102F00000C9495276DE473E088E493E00E94C10877
:102F10008AE5809385080C9495270937F2E01F070E
:102F200009F420C244F40C5512400730110508F48E
:102F300060CF0C9495270838124011F00C94952717
:102F400080917C088F5F80937C0817C2063E42E028
:102F5000140731F10CF070C0083C62E0160701F173
:102F60009CF40D3A82E0180709F4EDC0023C92E0AF
:102F70001907B1F0063A124011F00C94952781E040
:102F8000809389080C949527043DB2E01B0741F01B
:102F90000CF046C00E3CF2E01F0711F00C94952790
:102FA00080917F08909180086CE070E00E94DA398F
:102FB0008091FD05D62ED81A8091810890918208C3
:102FC0006FE170E00E94DA398091FE05C62EC81AC2
:102FD00043E06C2D8D2D0E94F9004C2D6D2D0E942B
:102FE000A301811124C1809187088F5F8093870896
:102FF000C80188509340059708F014C110926E08DC
:1030000010926D086CEE72E088EE92E00E94C108AA
:103010006DEE72E083E898E00E9437090C949527E2
:103020000A3D22E0120709F4BBCF003E32E013074D
:1030300009F4B6CF0C9495270D3043E01407DCF566
:10304000083053E015070CF0ABCF023F62E01607E3
:1030500009F4A6CF3CF40C3E82E0180709F4A0CF97
:103060000C949527083F92E0190709F499CF07308F
:10307000134011F00C94952783E08093EF0587E0CF
:103080000E942E07E0910909EF3039F587E080931F
:10309000090987E10E94040880917B088093F90563
:1030A00080917C088093FA058091F3058F5F80936F
:1030B000F3050C9495270733B3E01B0709F476C199
:1030C000073EE4E01E0759F10532134011F00C945D
:1030D00095270E94FC010C94952781E08E0F809328
:1030E0000909E650E830C0F6F0E0E758F74E0C94D6
:1030F000EE39491881188318851887188D18891892
:103100008B1888E1C7CF89E1C5CF8AE1C3CF8BE1B6
:10311000C1CF8CE1BFCF8DE1BDCF8EE1BBCF82E1CE
:1031200090E090936C0880936B0880916F088130D9
:1031300041F482E080936F0872E1E72EF12C0C9449
:10314000952781E0F7CF80916F08813029F482E0E4
:1031500080936F080C94952781E0FACF80918708BF
:103160008F5F8093870860E472E08CE392E00E94B6
:10317000C1080C9495270E94F7028F3F09F050C0B8
:1031800080918708813051F0823091F080918908D8
:10319000811137C00E94CB080C94952742E150E082
:1031A0006BE572E080E592E00E942E090C94952771
:1031B00042E150E06BE572E080E592E00E942E096A
:1031C00069EA72E088EA92E00E94C1088091890869
:1031D000811113C087E10E942E0780E00E94D70270
:1031E00080917B08882319F0815080937B0880911F
:1031F0007B08811102C00E94CB08109289080C94B0
:10320000952742E150E06BE572E080E592E00E9494
:103210002E0969EA72E088EA92E00E94C108EDCFC7
:1032200083E0B8CF10936E0800936D08EBCE0E9438
:10323000F7028F3F09F068C080918708813049F01C
:10324000823059F18091890881114FC00E94CB08CA
:1032500008C042E150E06BE572E080E592E00E9438
:103260002E0960916B0870916C086A3D12E071073D
:1032700069F008F05BC0683C32E0730739F008F091
:1032800045C0623C52E0750709F04AC06F5F7F4F4E
:1032900083E898E00E94370943C042E150E06BE5C3
:1032A00072E080E592E00E942E0969EA72E088EA05
:1032B00092E00E94C10880918908811113C087E1C2
:1032C0000E942E0780E00E94D70280917B0888230D
:1032D00019F0815080937B0880917B08811102C096
:1032E0000E94CB0810928908BCCF42E150E06BE508
:1032F00072E080E592E00E942E0969EA72E088EAB5
:1033000092E00E94C108EECF83E0A0CF6E3C82E045
:10331000780709F4BBCF643D92E0790709F4B6CF92
:1033200010926E0810926D080C9495276C3EA2E0E6
:103330007A0741F078F4603EE2E07E0719F0663EDD
:10334000724071F760916D0870916E08611571059A
:1033500039F39CCF623F12E07107A1F3683F7240DE
:10336000F9F6F0CF80917B0890E020917C0830E066
:103370000196281739070CF4C90180937B080C9437
:10338000952780917B0820917C0830E08150990B33
:10339000281739070CF4C90180937B0881110C941C
:1033A0009527F8CE109287080C949527E09106098E
:1033B0002E2F30E078E1729FD001739FB00D112461
:1033C000AF55B74F4D915C916091FD0514EF160319
:1033D000C0011124840F951F8038910510F00C94C2
:1033E000952780917F0890918008841B950B4496C7
:1033F000899710F00C9495272F5F3F4F729FD00153
:10340000739FB00D1124A557B74F209181083091BB
:1034100082088D919C912817390711F00C949527FB
:10342000882011F40C94952718E1E19FF0011124F4
:10343000E357F74F8389833009F054C081E00E943D
:10344000D70288E10E942E0780917B08882319F01B
:10345000815080937B0880917B0881111FC082E09E
:103460000E94CB08E0918B08F0918C0815AE14AE49
:1034700022E130E04DEB52E064EB72E08BE898E043
:103480000E94640822E130E04AE353E068E373E01D
:103490008BE898E00E9464080C94952780910609B7
:1034A00028E1829FC00111248357974FDC011496B5
:1034B0002C9142E0213009F041E024E061E00E94DB
:1034C000312C882311F40C949527E0918308F09116
:1034D000840815AE14AE46E253E062E373E080E385
:1034E00093E062CE85E08093DF0681E08093E00682
:1034F000858196816CE070E00E94DA396093DD0688
:10350000878190856FE170E00E94DA396093DE0672
:1035100088E10E942E07E0910609E19FF001112445
:10352000E357F74F8089882311F08150808B808981
:1035300081114BC08091F3058C30A9F4E09106090C
:10354000B8E1EB9FF0011124E357F74F8389811114
:103550000AC08289811107C08091E906833019F081
:1035600083E08093E90688E00E942E07E0918B08B3
:10357000F0918C0815AE14AE4CEA52E06AEA72E0A3
:103580008BE898E00E94AA2FE091060918E1E19FDC
:10359000F0011124E357F74F108A80E48093070964
:1035A000E0918308F091840815AE14AE42E150E03A
:1035B0006DEB72E084EB92E00E942E0942E150E054
:1035C0006AE373E088E393E0EFCDE091060988E1D8
:1035D0008E9FF0011124E357F74FDE011196982FCB
:1035E00001900D929A95E1F790918C089F9390919C
:1035F0008B089F932DB73EB7285131090FB6F89429
:103600003EBF0FBE2DBFADB7BEB71196FE013196BE
:1036100001900D928A95E1F70E94AE2F0FB6F894B3
:10362000DEBF0FBECDBF0C94952743E0880F991FD6
:103630004A95E1F788519A4FFC01E450FF4F4081D1
:103640002C2DCC0C330B4217130689F43196408194
:103650002D2DDD0C330B4217130649F434962081CF
:10366000211105C081509F4FDC018C918083809196
:10367000EF05853009F040C080917B088823E1F197
:1036800080917F08909180086CE070E00E94DA39A8
:10369000F62E80918108909182086FE170E00E947F
:1036A000DA39E62E80916F08823009F4F394BE0176
:1036B0006F5F7F4F8BE698E00E944F091091700872
:1036C0000981010F8B81180F002309F40CC211230B
:1036D00009F40BC2101718F0812F102F082F202F7C
:1036E000412F6E2D8F2D0E94FA08202F412F6E2D15
:1036F0008FEF8F0D0E94FA08A0918B08B0918C0873
:10370000DE968C91DE97811136C2E091060918E1B0
:10371000E19FF0011124E357F74F828981112BC2F9
:10372000DC968D919C91DD97009709F424C2019756
:10373000DD969C938E93DC97880F991FA80FB91F75
:103740000D911C91C80117FF04C088279927801B81
:10375000910B91838083E09106098E2F90E038E1F0
:10376000F32EEF9DF0011124E357F74F20813181B3
:10377000273443E0340709F4DEC2283E54E035071D
:1037800009F4B5C12733334009F0B3C1F89EF00105
:10379000F99EF00D1124EF55F74F60817181209152
:1037A000FD0544EF420390011124260F371F2038F6
:1037B000310508F09EC140917F0850918008461B5A
:1037C000570B0196F89EF001F99EF00D1124E55774
:1037D000F74F609181087091820880819181681B08
:1037E000790B20916B0830916C082B3383E03807FC
:1037F00008F051C2263293E0390708F053C22A5A22
:1038000032402330310508F474C14D5E5F4F4732BA
:10381000510508F06EC1672B09F06BC16AC233E035
:10382000880F991F3A95E1F7FC01EA51F94F81E0C1
:103830001DCF23E0880F991F2A95E1F78C010851CD
:103840001A4F7801BEEFEB0EF11C6FEFF70180818C
:103850000E94F601F801E150FF4F6FEF80810E9456
:10386000F601F801F3956FEF80810E94F601F801EF
:10387000EF5FFE4F81E08083319688E18083809105
:10388000F305863009F0F3CED7018C91843009F02E
:10389000EECE1C9222E130E047E152E060E172E0BE
:1038A0008BE898E00E94640847E453E060E473E02A
:1038B0008BE898E00E94AA2FDACE6AE0233009F064
:1038C00064E17C0183E0EE0CFF1C8A95E1F7F701CF
:1038D000EA51F94F80810E94F601F80193E0EE0F62
:1038E000FF1F9A95E1F7E851FA4F83896AE0833028
:1038F00009F064E1F701E951F94F80810E94F60176
:10390000B3E0000F111FBA95E1F7F801E851FA4F43
:1039100083896AE0833009F064E1F701E851FA4FE6
:103920007F01F39580810E94F601F701EF5FFE4F62
:1039300081E08083319688E199CE2091E906233099
:1039400009F495CE53E0880F991F5A95E1F7FC01D1
:10395000E751F94F81E0808383E08093E906E3EE4D
:10396000F6E06CE0C62ED12C7FE1A72EB12CA0E6AC
:103970009A2E80818F3041F5E28001818090050987
:103980002DE838E040E010E0F12C8416E9F0D90190
:1039900052968C9152978230E1F415968D919C91BC
:1039A000B6010E94DA396017710799F4D9011796A8
:1039B0008D919C91B5010E94DA396E157F0549F40D
:1039C000D90152961C92908238962E163F0689F69F
:1039D0004ECE4F5F285E3F4FD8CF41E060E68DE18D
:1039E0000E94B100FC018381882309F440CE138238
:1039F0001092060983E080939F0885E08093DF069C
:103A000081E08093E00681818093DD06828180934E
:103A1000DE062DCE80917B08882309F428CE0E94F3
:103A2000F7028091FD056091700870917108BCE00B
:103A30008B9F600D711D112480916F080E941407E7
:103A400083300CF414CE80916B0890916C0883390C
:103A5000910530F589389105F8F48336910580F4A5
:103A600089359105C8F48530910508F400CE82317E
:103A7000910590F0875491090C9708F0F8CD0CC08F
:103A80008936910508F4F3CD8337910528F08957DD
:103A900091090A9708F0EBCD83E00E94CB08E7CDAF
:103AA000853C910568F4893B9105B0F7893991050A
:103AB00008F4DDCD833A910578F3895A9109E9CF6D
:103AC000893E910530F48D3D910530F78B5C91096D
:103AD000D3CF8F5E91098132914008F0C8CDDCCF01
:103AE00010928A08C4CD012FFACD102FF8CD84E0B2
:103AF000828BE0910609A8E1EA9FF0011124E357C7
:103B0000F74F40815181BE016F5F7F4F84810E94DA
:103B1000BB0749819FEF17FF91E0E091060988E11B
:103B2000E89FF0011124E357F74F499F402D1124DE
:103B300025813681240F311D47FD3A953683258333
:103B40002B81929F202D112490910609899FC001FD
:103B5000112488519A4FFC01E455FD4F4081518159
:103B600082559D4FDC014D935C93420F511D27FD03
:103B70005A955183408380E00E949409182F8091C8
:103B80008A08811125C2BE016F5F7F4F8BE698E0E6
:103B90000E944F098A818E57823008F4E9C01111C2
:103BA000E7C0809187088111E3C00091FD05F09086
:103BB0006F086091700870917108BCE00B9F600DF8
:103BC000711D11248F2D0E941407182FE091830876
:103BD000F091840815AE14AE81E08093870880913F
:103BE0006B0890916C0890936E0880936D08183064
:103BF00008F061C180917F08909180086CE070E0CE
:103C00000E94DA39E1E02FEFFE1221E0601B260F5F
:103C100085E0820F853108F09DC0809181089091E8
:103C200082086FE170E00E94DA399091FE05862FDC
:103C3000891B8F5F082E000C990B019636E1389F87
:103C4000F001399FF00D1124E851FA4FE20FF11DF8
:103C500027FDFA95E357FF4F808127E0E22E01E030
:103C600021E04FE76FE70E947301882309F423C125
:103C7000EFEFE10FE73008F06FC00E2E000CFF0BE6
:103C8000EC5BF14E0C94EE39371F521F401F491F59
:103C9000371F521F401F2E5333402230310508F08A
:103CA000B4CD27CF4D5E5F4F4732510508F021CF8D
:103CB000672B09F01ECF81E00E94D70288E10E94A5
:103CC0002E07809106098F9DF0011124E357F74FCD
:103CD00020916F08848190917B0828130EC0292FB2
:103CE000921718F0921B90937B0880917B088111AA
:103CF00006C082E00E94CB08FCCE21E0F1CF848197
:103D000042E0813009F041E024E061E0CF010E940F
:103D1000312C882309F4EDCEE0918308F0918408DA
:103D200015AE14AE46E253E062E373E080E393E045
:103D30000E942E09DECE44E062E181E10E94B100E2
:103D4000FC018AE084838FEF868383E087838EE1A2
:103D50008083CFCE8FEF81CF68EF72E084EF92E067
:103D60000E94C10888EF92E090936E0880936D08DE
:103D700080918A0881112CC1BE016F5F7F4F8BE655
:103D800098E00E944F098A818F3709F021C1809104
:103D9000870881111DC1BE016F5F7F4F8BE698E0E0
:103DA0000E944F09298180917F0890918008820F9D
:103DB000911D27FD9A956CE070E00E94DA398091A0
:103DC000FD05262F281B85E0820F853108F0BCC039
:103DD00080918108909182086FE170E00E94DA3949
:103DE0009091FE05862F891B082E000C990B0196D9
:103DF00036E1389FF001399FF00D1124E851FA4F58
:103E0000E20FF11D27FDFA95E357FF4F808197E000
:103E1000E92E01E021E04FE76FE70E94730188235C
:103E200009F4D6C0E0918308F091840815AE14AE71
:103E300081E08093870880917008909171086CE010
:103E400070E00E94DA398B30910508F0B9C0FC01AE
:103E5000E45DF04E0C94EE39E31FA61FDD1FA61F94
:103E6000E31FA61FDD1FE01FE31FA61FDD1F62EF7C
:103E700072E08EEE92E00E94C10882EF92E074CF71
:103E800066EE72E082EE92E00E94C10886EE92E059
:103E90006BCF60EE72E08CED92E00E94C10880EE84
:103EA00092E062CF6CEE72E088EE92E00E94C10870
:103EB0008CEE92E059CF80917008909171086CE07F
:103EC00070E00E94DA398B30910508F034C0FC01B3
:103ED000E459F04E0C94EE39771F801F891F9B1F09
:103EE000771F801F921F9B1F771F801F891F62EC07
:103EF00072E08EEB92E00E94C10882EC92E034CF37
:103F000068EC72E084EC92E00E94C10888EC92E0D8
:103F10002BCF6EEC72E08AEC92E00E94C1088EEC2E
:103F200092E022CF6AED72E086ED92E00E94C10835
:103F30008AED92E019CF64ED72E080ED92E00E948C
:103F4000C10884ED92E010CF8FEF61CF6BE073E09A
:103F500083E898E00E943709809172089091730875
:103F600049976FE170E00E94DA39882389F11FE1F7
:103F7000181B812F110F110F180F1550612F70E0B2
:103F800080E06F5E7741884F0E94C303E12EF12CE1
:103F9000F4E0EF0EF11C1E151F0409F0BCF40E94A2
:103FA0005B02882341F0682F70E0645F7C4F83E8F8
:103FB00098E00E9437091F5FEECF6AE073E0C8CF38
:103FC00069E073E0C5CF68E073E0C2CF0E94610290
:103FD0008091E306803169F58091E806811129C05E
:103FE00080917F08909180086CE070E00E94DA393F
:103FF000062E000C770B8091E6068617170609F04F
:10400000C4F48091E706861717069CF02091E50618
:1040100080918108909182086FE170E00E94DA3906
:10402000062E000C770B2617170619F483E08093F1
:10403000E90680916B0890916C088C3A12E0910728
:1040400019F08F339340C9F463FE17C08091F505D2
:104050008111CDC08091F4058111C9C083E08093A6
:10406000EF0582E1809309098BE00E942E0783E12E
:104070000E94040880E8809302018AEE882E992429
:104080009A94512C412C8BE090E0AC01485E554055
:104090005D8F4C8F15E0B40168517A4F3B010CE6FF
:1040A000C02ED12C8C8D9D8D881999099AA389A336
:1040B000D301DE960C918091FF055201A81AB10838
:1040C000BEE1AB1AB1080C3709F498C00CF093C0EC
:1040D000B0E1EB2E22E13EE341E007FFA5C0F30192
:1040E000E455FF4F8081A0E1EA2E00E026E933E6A7
:1040F00041E0833341F0843351F4F0E1EF2E00E0EE
:1041000022E434E641E0B501C6010E94CF03E1E0BC
:104110006E1A7108FCE0CF1AD10824EFC2162FEFF7
:10412000D20631F63FE1430E511C46E1840E911C4C
:1041300052E48516910409F0AECF53EEC52E56E039
:10414000D52E1CE06FE1F62E7CE0472E512CEFE1DE
:104150006E2E712CD60111962C91119730E0809122
:10416000FD05F901E81BF1091E9F50011F9FB00CCE
:1041700011244091FE0512968C911297841B990B85
:10418000F89EB001F99E700D11248091FF05681B07
:1041900071094B01FFEF8F1A9F0AEC91E13208F091
:1041A0008FC0F0E0EA52FF4D0C94EE399322F621D5
:1041B000712281222421712279227122712281228D
:1041C00071228122602160216021C121CE21D7216D
:1041D000D72102220B22182222222C22EC21372165
:1041E000CE211921F1213622D721E2219C2286E01D
:1041F0008093EF0542CF0F3709F071CF2091140162
:104200003091150189A19AA1860D971D820F931FE8
:104210006FE070E00E94C639612F0E94BA39E12C2C
:10422000082F2AE035E641E0B501C6010E94CF0320
:1042300056CF6B5E7F4F40E1E42E00E02EEB38E17D
:1042400041E0C5010196A7C014960C911497615FD7
:104250007F4F13968C9130E1E32E24E237E341E067
:10426000813019F020EB3AE341E0C50194C0F6013A
:10427000838186302CF5082E000C990B97FF03C024
:1042800091958195910920E1E22E082F22EF3BE1E3
:1042900041E0B401C5010E94CF03F1E0AF1AB108BB
:1042A0002FE7A216B10460F43FE38316910440F4B3
:1042B000D60113968C91843019F486E10E942E0762
:1042C000F8E0CF0ED11C2C143D0409F043CFE0914F
:1042D000060918E1E19FF0011124E357F74F8289A5
:1042E000811143C16081718180E061507242884FC9
:1042F0000E94C3030E946102882309F436C1A09181
:104300000609A19FD0011124A357B74F1596ED912F
:10431000FC9116973F972091FD0514EF1203900131
:104320001124E20FF31F17966D917C9118976F512E
:1043300071092091FE0541EE420390011124620FA4
:10434000731F9091FF05691B71096F5F7F4F539633
:104350009C915397913009F400C208F4F5C020E015
:1043600030E040E0953008F0F9C014969C912EE7BB
:1043700036E844E0913009F4F1C022E63AEE43E039
:10438000EDC0615F7F4F90E1E92E00E02EED38E156
:1043900041E0C50105960E94CF0392CF6D5071098F
:1043A000E12CF601058126E53FE141E04ACF80E1BD
:1043B000E82E13960C912EE139E141E0B401C501DC
:1043C0000597E9CF6D507109E12C01E026E53FE149
:1043D00041E0C5010796DFCF6D507109E12C0CE07B
:1043E000E2CF6D507109E12C01E0DDCFF60165816E
:1043F000680D792D711D00E1E02E07812AE238E277
:1044000041E033CF6D5E7F4FB0E1EB2E00E022ED57
:1044100037E241E02ACF655F7F4FA0E1EA2ED60167
:1044200013960C9123EB35E241E0C5010696B3CF1C
:10443000655F7F4FF0E1EF2EF601038127EE35E255
:1044400041E0F3CF655F7F4FE0E1EE2E13960C91D4
:104450002BE136E241E0E9CF655F7F4F50E1E52E89
:10446000F60103812FEA36E241E0DFCF13968C910B
:10447000811126CF80917F0890918008B2010E941F
:10448000DA39062E000C770B2617370729F02F5F35
:104490003F4F62177307F1F4809181089091820871
:1044A000B3010E94DA39262F660F330BC401B30122
:1044B0000E94DA39460F4217130661F4E0910609AB
:1044C000B8E1EB9FF0011124E357F74F01E0828937
:1044D000833009F000E0E12C22E834E341E0B4014C
:1044E000C4CE40E1E42EF60106812EEC3AE241E032
:1044F000F6CF30E1E32E16960C9122E73DE241E043
:10450000EECFF6010681802F90E00E5FB401680FB8
:10451000791F20E1E22E2EEC3AE241E0D501A81B02
:10452000B90BCD0138CFF6018381882309F4C8CEB9
:1045300090E1E92E01E0D9CF64517109E12C00E04E
:104540002BE537E241E091CE14969C912EE038E5C0
:1045500045E0913019F02AE932E245E00FEF080F0B
:1045600080E1E82ECF010E94CF0360916B0870912B
:104570006C0880E061507242884F0E94C3030E9421
:104580006102882309F160917208709173086F517C
:1045900071099091FF05691B71096F5F7F4F9091C1
:1045A0006F0826E832ED42E0913019F42AEA3AEB3E
:1045B00041E00FEF080F809170089091710810E1B1
:1045C000E12E0F970E94CF03F3EEAF2EF6E0BF2E41
:1045D000ACE0FA2EBFE19B2ED50111962C911197DC
:1045E0008091FD05281B330BF29EC001F39E900DB8
:1045F000112412962C9112973091FE05231B330B38
:10460000929EB001939E700D11242091FF05621BB4
:1046100071092C91243009F4ACC0293109F4BCC0D3
:10462000B8E0AB0EB11CCA14DB04B1F68091F305FF
:10463000883009F58091FD058832E9F48091FE0506
:104640008330C9F480911701813508F0BBC08734ED
:1046500008F0C5C0813008F0BCC000E08CEE40E13D
:10466000E42E2AEE37EF40E06EE070E0082E000CFA
:10467000990B0E94CF0332ED632E35E0732E912CFF
:10468000812C1CE029E0A22EB12CF501ED55FF4F45
:10469000E60DF71D008107FD1BC08091FF05B401E9
:1046A000681B71096E517109033391F090E1E92E95
:1046B00022E13EE341E0043321F400E026EA34E65F
:1046C00041E01A9DC0011B9D900D11240E94CF0353
:1046D000E1E0AE1AB108C8F626E1620E711C3FE1B6
:1046E000830E911C4CE78416910461F61CE08FE167
:1046F000F82EAF8DB8A111962C9111978091FD05E0
:10470000281B330B129FC001139F900D112412968A
:104710002C9112973091FE05231B330BF29EB001B2
:10472000F39E700D11242091FF05621B71096F5FCC
:104730007F4FEC91E250EA3008F05EC0F0E0ED55BA
:10474000FC4D0C94EE39F2236E24FC23F2236424F6
:10475000FC23F2236E24F2236E2414969C9126EF00
:1047600032EC45E0913009F4F9CE22E83DE845E02D
:10477000F5CEF5010481615F7F4F2381E0E1EE2EEC
:10478000213031F426EE34E341E00E94CF0348CFDC
:1047900022E639E341E0F9CF13960C9106300CF094
:1047A0003FCF002E000C110B17FF03C01195019590
:1047B00011090A5F6F5F7F4F50E1E52E22EF3BE169
:1047C00041E0E3CF8E3808F048CF86958E5C01E05B
:1047D00046CF869598E7981B892F00E040CF02E0EE
:1047E00086E53DCF00E1E02EEF8DF8A106812AEDB0
:1047F00030E341E00E94CF032F8D38A1285F3F4F67
:1048000038A32F8FC216D30609F073CF0091DF06AD
:104810000150043030F58091DE069091FE05891B31
:10482000990B2FE1289FB001299F700D11248091D1
:10483000FF05681B7109635F7F4F2091DD06809142
:10484000FD05281B330B4CE0429FC001439F900D98
:104850001124E0E1EE2E2EEF3BE341E003970E94AE
:10486000CF03E091060938E1E39FF0011124E357FB
:10487000F74FF0881E8DE12C112319F001E0F110A3
:1048800001C000E026EF35E041E070E060E088E73D
:1048900090E00E94CF0310E080917C08181770F51B
:1048A00001E080917B08181708F400E024E0129FD3
:1048B000B0011124E12C26E638E141E08BE790E0DD
:1048C0000E94CF031F5FE8CFB0E1EB2EAF8DB8A100
:1048D00016960C912EE733E341E08CCFEF8DF8A1D3
:1048E0000681E02FF0E00E5F6E0F7F1FA0E1EA2E41
:1048F0002AED30E341E08E1B9F0B7CCF1E8D1123F0
:1049000011F0F11044C0E12C0091F50526E636E1E6
:1049100041E06FE270E08BE790E00E94CF030091EE
:10492000F40526E636E141E069E370E08BE790E0CC
:104930000E94CF038091880868E2882359F000E044
:1049400024E738E141E068E270E08BE790E00E9404
:10495000CF0361E280918908882351F070E0E12C57
:1049600000E02DE738E141E08BE790E00E94CF03C3
:1049700080917208909173088833910569F18735A9
:10498000910551F110E0499741F510E326C010E080
:1049900048E1B42E5FE0C52ED12CE0910609EB9DD5
:1049A000F0011124E357F74F8189181708F701E048
:1049B0001F1508F400E0B601611B7109660F771F2F
:1049C000660F771FE12C26E638E141E08BE790E0A7
:1049D0000E94CF031F5FE1CF11E08091F805815065
:1049E000803598F4612F70E020E1E22E00E02CEB9E
:1049F00038EB40E087E190E00E94CF0365E0610F73
:104A00004091F5058DE10E9430088091E1068130EA
:104A100069F46091E20670E090E1E92E00E02CE498
:104A20003BEB40E088E190E00E94CF038091EF05EE
:104A3000873009F045C064E77DEE87E00E943E08BC
:104A40006C0180911C01E12C0D2D2EE53BEF40E027
:104A500070E060E090E00E94CF03B601772780917C
:104A60001C0190E000E022EE35E041E003960E9458
:104A7000CF0380911C01855E0091F3052AE739E0A0
:104A800041E063E070E090E00E94CF0380911C0160
:104A9000895F0091F5052AE739E041E06DE070E0BB
:104AA00090E00E94CF0380911C01885E0091F40584
:104AB0002AE739E041E06DE070E090E00E94CF032A
:104AC000A5960FB6F894DEBF0FBECDBFDF91CF9194
:104AD0001F910F91FF90EF90DF90CF90BF90AF901C
:104AE0009F908F907F906F905F904F903F902F900E
:104AF0000895AB2809F0F8C2111149C088248394A5
:104B000099C0093111050CF059C182E00E94CB080F
:104B100055C1083E1F4F0CF451C1F7CF443140F04E
:104B2000463110F40C94A215473111F40C94A215DF
:104B300080E00C94A31586E00E942E0783E0000F0E
:104B4000111F8A95E1F7F801E053F94F80E6838B56
:104B500081E080938808E0918308F091840815AE85
:104B600014AE42E150E06DEB72E08EEA92E00C94FC
:104B70001F14812C112309F4BBC2D701DD961C92AE
:104B80001E92DC97812CB8C2F70115AE14AEE091ED
:104B900006092E2F30E068E1E69FF0011124E3576B
:104BA000F74F8089882309F445C080917F08909150
:104BB0008008629FD001639FB00D1124AF55B74F9D
:104BC0002D913C911197458156814D935C93D7016E
:104BD000DD961C921E92DC97A0910609A69FD0013B
:104BE0001124A357B74F42E150E04D935C93821BD1
:104BF000930B2091FD05A0910609A69FD0011124D9
:104C0000A357B74F97FD02C00C94CC0E848590E05B
:104C1000ECE02E9F800D911D112416969C938E938F
:104C20001597E0910609E69FF0011124E357F74F2D
:104C300081E0848362FE34C01E8D112389F180914E
:104C40008808882369F180916B0890916C084297DD
:104C500039F5E0918308F091840884AD95AD892BF6
:104C6000F9F4E091060928E1E29FF0011124E357ED
:104C7000F74F80898823A1F08389843089F080915F
:104C8000F305843021F48091FD05843648F446E232
:104C900053E06CE273E087E293E00E942E09612CFE
:104CA000E0918B08F0918C0884AD95AD892B11F5BE
:104CB0001E8D11111FC0E091060928E1E29FF0014D
:104CC0001124E357F74F808191818F3233E09307AE
:104CD00039F0823343E0940719F08632934051F45F
:104CE00022E130E04DEB52E064EB72E08BE898E0BB
:104CF0000E9464088091EF05853009F05FC0E09163
:104D00008B08F0918C0884AD95AD892B09F056C0C5
:104D100080910609282F30E078E1879FC001112497
:104D20008357974FDC0152964C915297411146C0E0
:104D300014966C911497662309F440C053964C91D5
:104D40004230E1F14430D1F1729FA001739F500DC8
:104D50001124FC0118E1DE01119601900D921A95C3
:104D6000E1F74F55574F00917F0810918008FA01E5
:104D700040815181041B150B2F5F3F4F729FF00143
:104D8000739FF00D1124E557F74F40918108509122
:104D9000820820813181421B530BDC012D913C9113
:104DA0002632B3E03B0711F40C944B0F10F00C9437
:104DB000E10E2231310511F40C940F0F809119018D
:104DC000811157C08091EF05853009F052C0E09104
:104DD0008308F091840884AD95AD892B09F049C012
:104DE00081E00E949409F82E20916B0830916C08A4
:104DF0002C3A42E03407E9F12F3353E03507C9F18B
:104E000080917F08909180086CE070E00E94DA3910
:104E1000462F80918108909182086FE170E00E9496
:104E2000DA39562F842F042E000C990BE091E406FA
:104E3000F0E0DF0111978A179B0711F00C94EC103A
:104E40007091E506A62F062E000CBB0B7A171B06E9
:104E500009F059C17091E906733009F04FC1809192
:104E60006F08813011F40C943212823011F40C94DA
:104E7000BC1074FE1092F7058091EF05853011F497
:104E80000C946A16873011F40C949B16E0918308F9
:104E9000F091840886AD81110C94371B84AD95ADDB
:104EA000009711F40C94701D019795AF84AF880F93
:104EB000991FE80FF91FE080F1808701F7FE04C019
:104EC000002711270E191F0910936C0800936B0817
:104ED000073932E0130711F40C94C11914F00C9443
:104EE000A617073352E0150714F00C94601705332A
:104EF00062E0160714F00C946918083172E0170785
:104F000014F00C94F2160134110514F00C94F916F7
:104F10000430110554F00231110514F40C94F91603
:104F20000231110511F40C94D21940916B08509183
:104F30006C08BE016F5F7F4F80916F080E94BB07B6
:104F400099818FEFF7FE81E0989F902D1124209199
:104F5000700830917108290F311D97FD3A953093F3
:104F60007108209370089B81899F802D11242091C6
:104F70007208309173083093750820937408280FD5
:104F8000311D87FD3A953093730820937208BE0156
:104F9000675E7F4F8BE698E00E944F098A8D8E579F
:104FA000823010F40C94371BBE01675E7F4F8BE696
:104FB00098E00E944F092A8D80917F089091800887
:104FC000820F911D27FD9A956CE0E62EF12CB7011A
:104FD0000E94DA39C62E80918108909182080FE1F3
:104FE00010E0B8010E94DA39D62E262F4C2D6BE046
:104FF00080E00E949400B82E8091F3058C3009F077
:105000004AC0E09106092E2F30E048E1E49FF0010C
:105010001124E357F74F83898430E9F582898111A0
:105020003AC08091DF06811136C0C9010196489FC0
:10503000D001499FB00D1124A557B74F8D919C9178
:10504000B8010E94DA39862E429FD001439FB00DED
:105050001124AF55B74F8D919C91B7010E94DA3959
:10506000C61219C0D81017C085E08093DF0682E011
:105070008093E00685819681B7010E94DA396093BA
:10508000DD0687819085B8010E94DA396093DE06DB
:1050900086E00E942E075FEFB51611F40C94371BC3
:1050A0008B2D90E08C01035E1F4FF80153E0EE0F53
:1050B000FF1F5A95E1F7E851FA4F23892C3010F081
:1050C0000C94371BE22FF0E0E859F74D0C94EE39C1
:1050D0000F1C151B191C5D1C0A1D9D1C9D1C191CF9
:1050E000371B371BED1C5D1C11114ECD882483949A
:1050F000C0920609811002CD1E8E9CCD8E179F078F
:1051000011F40C94FC1050906F08E2E000E210E4FF
:105110005E1202C000E410E22032310511F40C945A
:105120006F1410F00C9481112D30310511F40C9492
:10513000091510F00C9451112330310511F40C9421
:1051400031152930310509F094CEFF2009F491CEB4
:10515000072111F40C94241573FE02C00C94111550
:1051600020E0452D63E08BE698E00E94312C8823F7
:1051700011F40C942A156DE070E08AE090E00C9434
:10518000E810123059F4411009C0511007C0E11065
:1051900005C067E0992011F40C9414139C8D9111B3
:1051A00018C0BB2011F40C94F412163011F40C94B6
:1051B000271364E01A3011F40C941413123011F018
:1051C0000C94F41262E00C941413123039F70C941E
:1051D000C212A1100C94F8120C94C212BB2011F44C
:1051E0000C94E9120C94C2120F920FB68F939F93F6
:1051F000EF93FF938091D3018D5F8D3708F08D572A
:105200008093D301E4EDF1E080818E4F8083918122
:105210009F4F918382818F4F828383818F4F8383BE
:10522000E8EDF1E080818F5F808381818F4F818302
:1052300082818F4F828383818F4F83838FB18F6071
:1052400066991C9B88278F3681F48091D201981B28
:10525000963068F0E0E0F8E087E78083818388E1BA
:1052600080936000F0936000FFCF9093D201FF9194
:10527000EF919F918F910FBE0F9018951F920F92F3
:105280000FB60F9211242F933F934F935F936F9319
:105290007F938F939F93AF93BF93EF93FF93E9EC2B
:1052A000F1E080819181A281B3810197A109B109C7
:1052B00018F40E9446060BC080839183A283B383B7
:1052C0008481882321F4369A85818111379AFF9150
:1052D000EF91BF91AF919F918F917F916F915F916E
:1052E0004F913F912F910F900FBE0F901F901895E7
:1052F000EF920F9395E0980F9531F8F4A62F062EB4
:10530000000CBB0B119696E19A9FF0019B9FF00D4C
:105310001124E851FA4FE80FF11D87FDFA95E35784
:10532000FF4F9081E22E01E0242F462F682F892F16
:105330000E9473010F91EF9008959FEFF3CF8E318C
:1053400061F0C4F481315CF48F303CF4823064F05D
:1053500086301CF08950823038F481E0089586311F
:10536000E1F324F48331C9F380E008958951843056
:10537000D8F7F3CF84333CF482337CF7833269F37C
:105380009CF38652F4CF863441F32CF48D3329F309
:10539000843451F7E2CF8C3401F38C3729F7DDCF19
:1053A00043E00E94F9000C949F29CF93DF938091F2
:1053B0007F08909180086CE070E00E94DA3980915B
:1053C000FD05C62FC81B80918108909182086FE16E
:1053D00070E00E94DA398091FE05D62FD81B43E099
:1053E0006D2F8C2F0E94F9000E949F29811123C0EC
:1053F00081E090916F08913009F480E043E06D2FD7
:105400008C0F0E94F900C82F0E949F29CD3139F0DE
:1054100044F4C43121F0C83111F0CB3041F483E0C1
:105420000BC0C734E1F3CF34D1F3C532C1F38111DE
:10543000F6CF82E001C081E0DF91CF9108952F92F5
:105440003F924F925F926F927F928F929F92AF9214
:10545000BF92CF92DF92EF92FF920F931F93CF9361
:10546000DF93CDB7DEB728970FB6F894DEBF0FBE37
:10547000CDBF898320917F0830918008C9016CE0FD
:1054800070E00E94DA398091FD05C62EC81A80911D
:105490008108909182086FE170E00E94DA39809172
:1054A000FE05681B6E8310916F080FEF113009F035
:1054B00001E0B901812F0E9414078F83C00E28E0FC
:1054C000412F6E818C2D0E9478298A83502E5C0C8E
:1054D00026E0412F6E81852D0E9478298B83602ED6
:1054E000650C24E0412F6E81862D0E9478298C83E3
:1054F000702E760C22E0412F6E81872D0E94782934
:105500008D83070D20E0412F6E81802F0E94782926
:10551000B82EEE80E39428E0412F6E2D8C2D0E9452
:105520007829F82E26E0412F6E2D852D0E947829AE
:10553000382E24E0412F6E2D862D0E947829A82E2A
:1055400022E0412F6E2D872D0E947829882E20E0A1
:10555000412F6E2D802F0E947829282E6E818C2D50
:105560000E94D029482E6E81852D0E94D029982E28
:105570006E81862D0E94D029182F6E81872D0E9462
:10558000D029D82E6E81802F0E94D02988876E2D39
:105590008C2D0E94D0298E836E2D852D0E94D029BE
:1055A000582E6E2D862D0E94D029C82E6E2D872D47
:1055B0000E94D029782E6E2D802F0E94D0299A81AA
:1055C0009111B5C09B819111B2C09C819111F7C01E
:1055D0009D81911102C1BB2019F09981963099F5F6
:1055E00091102BC0111129C0D11027C09885992383
:1055F00021F18F8187FD05C084302CF088300CF4B8
:1056000098C085E001C083E028960FB6F894DEBF0D
:105610000FBECDBFDF91CF911F910F91FF90EF9003
:10562000DF90CF90BF90AF909F908F907F906F90C2
:105630005F904F903F902F9008959981953009F099
:1056400053C0BB20D1F0A11083C081107CC02110B9
:105650007FC011117DC0D1107BC09885911178C099
:10566000C11076C0711074C0882309F471C08F8195
:10567000883008F060C086E0C7CFFF2009F46DC015
:10568000A11069C0882009F466C0442089F0111176
:105690000FC0DD2069F09F8197FD08C085E194303F
:1056A0000CF4B2CF86E198300CF4AECF87E1ACCFEA
:1056B000BB2009F450C03110D0C0A110CEC088204A
:1056C00009F45AC0222009F457C0911055C0111195
:1056D00056C0DD2009F453C08F81823009F04FC0DD
:1056E00089E092CF88E090CF112359F08F8187FD18
:1056F00004C0843024F0883014F181E185CF8DE03E
:1057000083CF31105CC0A1105AC0CC2009F457C01F
:105710009F8197FD08C088E195300CF475CF8FE02C
:1057200098300CF471CF80E16FCF82E16DCF80E0D3
:105730006BCF84E069CF87E067CF8CE065CF8EE0E8
:1057400063CF83E161CFF110A0CFB110B4CF05C01A
:10575000FF20D9F3B0CFF11061C0DD2009F476C08D
:105760001123F1F08F8187FD6DC084300CF4BACF26
:1057700088300CF4B5CF66C0FF2029F053C0F1107B
:1057800054C0BB2051F34110E8CF9110E6CF111166
:105790005BC0DD2009F45AC08F81823009F4A0CFAC
:1057A0009F8197FD4FC094300CF49CCF98300CF43F
:1057B00097CF48C0BB2089F2E8CF111197CF8F81D6
:1057C00087FD06C084300CF4B0CF88300CF4B9CF1C
:1057D00084E11ACF11118ACF98CF9981953009F0C1
:1057E00083CFF11081CF3110E8CFA110E6CF811027
:1057F000F1CF4110EFCF9110EDCF111177CF9E81F6
:10580000911183CF511081CFC11082CF7720B9F28F
:105810008F81883008F091CF8BE0F6CE31109DCF8C
:10582000A1109BCF882009F4ACCF442009F4C2CF4B
:10583000911093CF111108C0DD2041F09F8192306B
:1058400009F0AECF8AE0E0CED1108CCF9F8181E00D
:10585000943008F4D9CE82E0D7CEFF2009F493CF5C
:1058600090CFAF92BF92CF92DF92EF92FF920F93C1
:105870001F93CF93DF938C01C62F31E0413009F4A1
:105880003FEFF801A488B588320370011124EA0CB7
:10589000FB1CC7016CE070E00E94DA398091FD05C5
:1058A000D62FD81B868997896FE170E00E94DA397C
:1058B0008091FE05D62ED81A413029F0423009F4E5
:1058C0005CC091E09DC03D0F85E0830FCC24CA945D
:1058D0008531A0F48D2D0D2C000C990B019626E13D
:1058E000289FF001299FF00D1124E851FA4FE30F92
:1058F000F11D37FDFA95E357FF4FC080B70181E0F6
:105900000E941407CB3010F54C2F50E0FA01E557F8
:10591000F34D0C94EE39B92CA82CB92CAB2C962C49
:10592000A62CA62CA62C962CA82CB92CE41AF50A89
:10593000F8018385668570E0FCE08F9F600D711D26
:10594000112491E0E616F7060CF05AC090E058C01A
:10595000863008F0B6CF97E0E92E00E021E04D2D2B
:105960006D2F8C2D0E94730191E0882309F448C0AB
:10597000EDCF8A3008F0A5CFEECF3D0F85E0830F45
:10598000CC24CA948531A0F48D2D0D2C000C990BDC
:10599000019626E1289FF001299FF00D1124E8517E
:1059A000FA4FE30FF11D37FDFA95E357FF4FC08023
:1059B000B50182E00E941407CB3040F64C2F50E036
:1059C000FA01EB51F34D0C94EE39142D0C2D142DDE
:1059D0000F2DF02CA62CA62CA62CF02C0C2D142D63
:1059E0004E0D5F1DF8018385278530E0FCE08F9F19
:1059F000200D311D112491E0241735070CF4A6CF9A
:105A0000892FDF91CF911F910F91FF90EF90DF9041
:105A1000CF90BF90AF900895863008F052CF87E0C6
:105A2000E82E00E022E09BCF8A3008F04ACFF7CF83
:105A3000DF92EF92FF920F931F93CF93DF93D82EB5
:105A400081E0D1E0D81201C0DFEFE0907F08F09054
:105A50008008C7016CE070E00E94DA398091FD0592
:105A6000062F081B80918108909182086FE170E0F9
:105A70000E94DA391091FE051095160F43E0612F50
:105A8000802F0E94F900C82F4EEF612F8D2F800FBD
:105A90000E94F900D82F4EEF612F802F0E94F9004D
:105AA000182FB7018D2D0E94140791E0D91631F0FF
:105AB00092E0D91609F462C083E02FC08730A4F4C5
:105AC0008330ECF487FDF8CFC53251F00CF046C0BE
:105AD000CA31F4F5C83124F4CB3011F0C431D1F51A
