:100000000C9470030C9498030C9498030C9498032C
:100010000C9498030C9498030C9498030C949803F4
:100020000C9498030C9498030C948F070C94FE077F
:100030000C9498030C9498030C9498030C949803D4
:100040000C9498030C9498030C9498030C949803C4
:100050000C9498030C9498030C9498030C94300A15
:100060000C9498030C9498030C9498030C949803A4
:100070000C9498030C9498030C9498030C94980394
:100080000C9498030C9498030C9498030C94980384
:100090000C9498030C9498030C9498030C94980374
:1000A0000C9498030C9498030C949803000000009F
:1000B000003E5B4F5B3E3E6B4F6B3E1C3E7C3E1CEE
:1000C000183C7E3C181C577D571C1C5E7F5E1C0034
:1000D000183C1800FFE7C3E7FF0018241800FFE7EB
:1000E000DBE7FF30483A060E2629792926407F05AE
:1000F0000507407F05253F5A3CE73C5A7F3E1C1CC4
:1001000008081C1C3E7F14227F22145F5F005F5F83
:1001100006097F017F006689956A6060606060946F
:10012000A2FFA29408047E040810207E2010080874
:100130002A1C08081C2A08081E101010100C1E0C7F
:100140001E0C30383E3830060E3E0E060000000011
:100150000000005F00000007000700147F147F14F8
:10016000242A7F2A1223130864623649562050003D
:1001700008070300001C2241000041221C002A1C29
:100180007F1C2A08083E0808008070300008080814
:100190000808000060600020100804023E51494534
:1001A0003E00427F400072494949462141494D3352
:1001B0001814127F1027454545393C4A49493141B9
:1001C000211109073649494936464949291E000087
:1001D00014000000403400000008142241141414DC
:1001E0001414004122140802015909063E415D59C8
:1001F0004E7C1211127C7F494949363E41414122D1
:100200007F4141413E7F494949417F090909013EFA
:10021000414151737F0808087F00417F4100204021
:10022000413F017F081422417F404040407F021C33
:10023000027F7F0408107F3E4141413E7F0909094A
:10024000063E4151215E7F09192946264949493216
:1002500003017F01033F4040403F1F2040201F3FDC
:100260004038403F63140814630304780403615961
:10027000494D43007F4141410204081020004141A3
:10028000417F04020102044040404040000307084F
:100290000020545478407F2844443838444444284B
:1002A000384444287F385454541800087E090218F2
:1002B000A4A49C787F0804047800447D400020407A
:1002C000403D007F1028440000417F40007C0478BE
:1002D00004787C080404783844444438FC18242406
:1002E0001818242418FC7C08040408485454542486
:1002F00004043F44243C4040207C1C2040201C3C03
:100300004030403C44281028444C9090907C4464F9
:10031000544C44000836410000007700000041368C
:10032000080002010204023C2623263C1EA1A16112
:10033000123A4040207A3854545559215555794144
:100340002154547841215554784020545579400C1B
:100350001E527212395555555939545454593955FC
:100360005454580000457C410002457D420001453F
:100370007C40F0292429F0F0282528F07C545545AC
:10038000002054547C547C0A097F4932494949323F
:100390003248484832324A4848303A4141217A3A54
:1003A00042402078009DA0A07D39444444393D401E
:1003B00040403D3C24FF2424487E4943662B2FFCCB
:1003C0002F2BFF0929F620C0887E09032054547979
:1003D000410000447D413048484A32384040227A4A
:1003E000007A0A0A727D0D19317D2629292F2826C7
:1003F0002929292630484D402038080808080808CF
:100400000808382F10C8ACBA2F102834FA00007B27
:10041000000008142A142222142A1408950022002D
:1004200095AA005500AAAA55AA55AA000000FF00E7
:10043000101010FF00141414FF001010FF00FF1024
:1004400010F010F0141414FC001414F700FF000056
:10045000FF00FF1414F404FC141417101F10101FD5
:10046000101F1414141F00101010F0000000001FC3
:10047000101010101F10101010F010000000FF10CE
:100480001010101010101010FF10000000FF1400CA
:1004900000FF00FF00001F10170000FC04F41414FC
:1004A0001710171414F404F40000FF00F7141414C8
:1004B00014141414F700F7141414171410101F1048
:1004C0001F141414F4141010F010F000001F101F6B
:1004D0000000001F14000000FC140000F010F010D9
:1004E00010FF10FF141414FF141010101F00000050
:1004F00000F010FFFFFFFFFFF0F0F0F0F0FFFFFF54
:100500000000000000FFFF0F0F0F0F0F38444438AA
:10051000447C2A2A3E147E02020606027E027E02E5
:1005200063554941633844443C04407E201E200604
:10053000027E020299A5E7A5991C2A492A1C4C7241
:1005400001724C304A4D4D303048784830BC625AC8
:10055000463D3E494949007E0101017E2A2A2A2A58
:100560002A44445F444440514A444040444A514034
:100570000000FF0103E080FF000008086B6B0836F5
:1005800012362436060F090F060000181800000066
:100590001010003040FF0101001F01011E00191D55
:1005A0001712003C3C3C3C0000000000F0F89C8E20
:1005B0008783878E9CF8F00000FEFF03030303038C
:1005C000070EFCF80000FEFF0303030303070EFC05
:1005D000F80000FFFF00000000000000FFFF000027
:1005E000FEFF8383838383C7EE7C380000F8FC0E14
:1005F00007030303070EFCF800003F7FE0C0808084
:10060000C0E07F3FFFFF01010101010101FFFF0089
:1006100000FFFF0C0C0C0C1C3E77E3C100007FFFB9
:10062000C0C0C0C0C0E0703F1F00001F3F70E0C0EE
:10063000C0C0E0703F1F00007FFFC1C1C1C1C1E366
:10064000773E1C00001F3F70E0C0C0C0E0703F1F3D
:10065000000000000001FFFF01000000D5F08D1434
:10066000A1C881CFD9F1AF2000080B00020202001F
:100670000009040000010202000005240010010529
:100680002401010104240206052406000107058156
:100690000310004009040100020A000000070502DF
:1006A0000240000007058302400000040309041211
:1006B000010002EF020140412336800001010203E4
:1006C0000141726475696E6F204C4C430041726445
:1006D00075696E6F204C656F6E6172646F00AD0A54
:1006E00011241FBECFEFDAE0DEBFCDBF11E0A0E0E6
:1006F000B1E0E0E9F0E202C005900D92A636B10744
:10070000D9F725E0A6E6B1E001C01D92A13FB207EE
:10071000E1F713E0C0E7D3E004C02197FE010E9497
:100720004010CF36D107C9F70E94D00A0C9446106A
:100730000C94000080E0EBE9F1E081118FEF0024E0
:1007400081938193819381930394D1F7089580914C
:100750009A0183FD06C08091990183FB882780F967
:10076000089580E00895EBE9F1E0A0E0B8E00080B2
:100770000EBC8111012C1197A0FDFDCF0192B9F79C
:100780000DB40895FC0180919801882311F13FB7C1
:10079000F89482E08093E9002091F200822F90E0AB
:1007A0001816190614F481E090E0882339F028988F
:1007B00044E6409397014091F1004083222339F0B1
:1007C0002091F200211103C02BE62093E8003FBFE7
:1007D00008958FEF9FEF08952FB7F89483E08093EB
:1007E000E9009091E800892F807295FF04C09091F4
:1007F000F20080E4891B2FBF089580918F01811141
:100800000DC082E080938B0184E080938C01109274
:100810008E0110928D0181E080938F018BE891E031
:100820000895CF93DF931F92CDB7DEB76983DC01C4
:10083000ED91FC910280F381E02D41E050E0BE019A
:100840006F5F7F4F09950F90DF91CF91089583E0FF
:100850008093E9008091F200882319F08AE3809365
:10086000E80008950E94EC0390E00895CF93DF9391
:100870001F92CDB7DEB7FC018485958597FD08C032
:100880002FEF3FEF358724870F90DF91CF910895A9
:10089000CE0101960E94C203019719F4898190E06C
:1008A000F3CF8FEF9FEFF0CF0F931F93CF93DF9393
:1008B0001F92CDB7DEB78C01FC018485958597FF2B
:1008C0000BC0CE0101960E94C203019771F4898189
:1008D00090E0F80195878487F801848595850F90CD
:1008E000DF91CF911F910F9108958FEF9FEFF1CF7F
:1008F000FC018485958597FD0BC09FB7F89482E035
:100900008093E9008091F2009FBF90E001960895E6
:100910009FB7F89482E08093E9008091F2009FBF36
:1009200090E00895409185015091860120918301C6
:100930003091840142175307B4F49091E800957008
:10094000E1F39091E80092FD19C08093F10080914D
:1009500085019091860101968F739927892B19F44F
:100960008EEF8093E8008091850190918601019639
:10097000909386018093850181E0089580E0089539
:10098000DF92EF92FF920F931F93CF93DF93D82EB6
:100990008A01EB017B01E40EF51ECE15DF0559F04F
:1009A000D7FE12C0FE0184910E949204219681110B
:1009B000F4CF0FEF1FEFC801DF91CF911F910F917F
:1009C000FF90EF90DF9008958881EECF0F931F93F3
:1009D000CF93DF931F92CDB7DEB782E0898342E4E5
:1009E00050E069E676E080E80E94C0040E94FD03C2
:1009F000DC0112960D911C910115110589F0D801A9
:100A0000ED91FC910280F381E02DBE016F5F7F4F7D
:100A1000C801099597FD04C0F80100851185ECCF48
:100A200089810F90DF91CF911F910F9108956150AF
:100A300030F02091F100FC0120830196F8CF289836
:100A400084E68093970108953FB7F89480917F01E1
:100A500090918001A0918101B091820126B5A89B5F
:100A600005C02F3F19F00196A11DB11D3FBFBA2F40
:100A7000A92F982F8827BC01CD01620F711D811D00
:100A8000911D42E0660F771F881F991F4A95D1F785
:100A900008958F929F92AF92BF92CF92DF92EF9282
:100AA000FF926B017C010E9424054B015C01C11483
:100AB000D104E104F104B9F00E9424056819790910
:100AC0008A099B09683E73408105910580F321E006
:100AD000C21AD108E108F10888EE880E83E0981E5A
:100AE000A11CB11CE4CFFF90EF90DF90CF90BF909E
:100AF000AF909F908F9008958F929F92AF92BF92E8
:100B0000CF92DF92EF92FF920F931F93CF93DF93D9
:100B10006C017B018A0180911201882309F45CC079
:100B200080919801882309F457C080918A0180FF41
:100B300005C08091E00082608093E000E801B12C64
:100B40008AEFA82E93E0892E2AE3922E209711F4A3
:100B5000BB20D9F10E94EC0381110AC0AA94AA20FB
:100B6000D9F161E070E080E090E00E944905EECFAD
:100B70008C171D0611F00CF08C2F9FB7F894809203
:100B8000E9002091E80025FD02C09FBFDFCF282F9C
:100B900030E0C21BD30BF701815020F0419140930C
:100BA000F100FACFE20EF31EBB2021F09092E80094
:100BB000B12CEBCF8091E80085FDE7CF9092E80063
:100BC000BB24B394209709F3F3CF5D9884E6809318
:100BD0008901101611063CF081E090E0F601938344
:100BE000828310E000E0C801DF91CF911F910F9147
:100BF000FF90EF90DF90CF90BF90AF909F908F903D
:100C00000895AF92BF92CF92DF92EF92FF920F932F
:100C10001F93CF93DF936C017B018B01040F151F92
:100C2000EB015E01AE18BF08C017D10759F06991FA
:100C3000D601ED91FC910190F081E02DC60109955E
:100C4000892B79F7C501DF91CF911F910F91FF900B
:100C5000EF90DF90CF90BF90AF9008952D9A0895B8
:100C6000BC0190E080E00C9449058FB18095807FB5
:100C7000669B88601C9B8460089520E191E061FD83
:100C800094E060FD990F62FD9295687F269FD001E8
:100C90001124A80FA556BE4F8C9140FF03C0892B8D
:100CA0008C93089590958923FBCFAF92BF92CF92FA
:100CB000DF92EF92FF920F931F93CF93DF936B011D
:100CC000EC015C01A40EB11C7B01E20EF11CCA1503
:100CD000DB05E4F48601D7FE02C010E000E0C701A6
:100CE00021E4E216F10414F080E490E008171907FB
:100CF0005CF4C038D10528F441E0B801CE010E946F
:100D00003D060F5F1F4FEBCF2196E1CFDF91CF91D3
:100D10001F910F91FF90EF90DF90CF90BF90AF9019
:100D200008958F929F92AF92BF92CF92DF92EF92EF
:100D3000FF920F931F93CF93DF936D3089F0C09094
:100D40006C01D0906D016A30D1F410926B01109259
:100D50006A0188E0C80ED11CD0926D01C0926C016E
:100D600081E090E0DF91CF911F910F91FF90EF9084
:100D7000DF90CF90BF90AF909F908F90089500919B
:100D80006A0110916B01E5E06E9FE0011124C455EA
:100D9000DF4F5801F12CF5E0E12CFF1629F0CE01D0
:100DA0000196FE01E490EC01912C812CF0E8AF1645
:100DB000B10458F4B601680D791D6034710528F44A
:100DC0004E2D4170C5010E943D06E6948FEF881AB2
:100DD000980AE8E08E16910449F7F394FFEFAF1AF2
:100DE000BF0A86E0F812D7CF0A5F1F4F10936B013E
:100DF00000936A01B5CF80E00C94B303089590E0AE
:100E000080E008958F929F92AF92BF920F931F93AD
:100E1000CF93DF93CDB7DEB7A1970FB6F894DEBFBF
:100E20000FBECDBF19A2423008F44AE08E010F5D1B
:100E30001F4F842E912CB12CA12CA50194010E944E
:100E40000F10E62FB901CA01EA3044F5E05DD80180
:100E5000EE938D01232B242B252B79F790E080E056
:100E6000109769F0FD0101900020E9F73197AF017B
:100E70004A1B5B0BBD018DEE95E00E940106A19619
:100E80000FB6F894DEBF0FBECDBFDF91CF911F919B
:100E90000F91BF90AF909F908F900895E95CD7CF4E
:100EA000FC0101900020E9F73197AF01481B590B75
:100EB000BC018DEE95E00C940106CF92DF92EF928B
:100EC000FF92CF93DF936C01990FEE08FF08F7FEB6
:100ED00019C06DE28DEE95E00E949106EC01662747
:100EE0007727CB016C197D098E099F094AE00E9482
:100EF00002078C0F9D1FDF91CF91FF90EF90DF9045
:100F0000CF9008954AE0C701B601DF91CF91FF90DD
:100F1000EF90DF90CF900C9402070C94C70F1F92B4
:100F20000F920FB60F9211248F939F938091E1003F
:100F30009091E100937F9093E10083FF0FC01092A6
:100F4000E90091E09093EB001092EC0092E3909313
:100F5000ED001092980198E09093F00082FF22C07B
:100F600093E09093E9009091F200992319F09AE3AD
:100F70009093E80090918901992341F09091890123
:100F8000915090938901911101C05D9A90919701C0
:100F9000992341F09091970191509093970191116D
:100FA00001C0289A84FF18C08091E2008E7E816083
:100FB0008093E2008091E1008F7E8093E100809138
:100FC0008A018E7E806180938A019F918F910F901C
:100FD0000FBE0F901F90189580FFF7CF8091E20011
:100FE0008E7E80618093E2008091E1008E7E80930E
:100FF000E10080918A018E7E8160E5CF1F920F9281
:101000000FB60F921124CF92DF92EF92FF920F93BF
:101010001F932F933F934F935F936F937F938F9380
:101020009F93AF93BF93EF93FF93CF93DF93CDB78E
:10103000DEB76C97DEBFCDBF1092E9008091E8006B
:1010400083FF25C068E0CE0145960E94170582EF18
:101050008093E8008D8987FF39C09091E80090FF68
:10106000FCCF982F907609F034C19E894F89588D16
:101070002F89F88C911131C0803861F580918801F9
:101080008093F1001092F1008EEF8093E8006C964F
:101090000FB6F894DEBF0FBECDBFDF91CF91FF91A9
:1010A000EF91BF91AF919F918F917F916F915F91E0
:1010B0004F913F912F911F910F91FF90EF90DF90F3
:1010C000CF900F900FBE0F901F9018959EEF9093AA
:1010D000E800C7CF1092F100D5CF913059F48111BB
:1010E000D3CF4130510581F6809188018D7F809367
:1010F0008801CACF933049F48111C6CF41305105E0
:1011000019F6809188018260F2CF953041F4809188
:10111000E80080FFFCCF20682093E300B5CF963035
:1011200009F0A9C00B8D1C8D22E01092E9001092ED
:10113000860110928501F2122EC010928401109245
:1011400083010E94E6041F8299E09983FA8291E06C
:101150009E8390EA98879AEF998720918501309134
:101160008601275F3F4F3C832B838D831092E900DC
:1011700010928601109285011093840100938301DF
:1011800049E050E0BE016F5F7F4F80E00E94C004E5
:101190000E94E60479CF10938401009383010E949A
:1011A000FD03DC0112960D911C910115110509F446
:1011B00051C1D801ED91FC910480F581E02DBE0173
:1011C0006B5E7F4FC8010995009709F03EC1F80199
:1011D00000851185EACFF3E0FF120EC08F898823C6
:1011E00009F440C0823061F440E860E18DEC96E0A3
:1011F0000E947A0A811148CF81E28093EB0047CFA9
:10120000813029F440E86BE081EC96E0F1CF833047
:1012100099F70E94FD03DC011296ED90FC908E017F
:101220000F5F1F4F6801E114F10479F0D701ED91D0
:10123000FC910680F781E02DB801C7010995080FE0
:10124000111DF701E084F184EECFD8011C92F60164
:1012500001900020E9F73197BF016C197D0940E04A
:10126000C601C6CF6BEA76E0FB01449150E080E80E
:101270000E94C00409CF973009F4BECF983021F402
:1012800081E08093F10000CF993009F0FDCE8370AA
:1012900009F0B2CFE8E1F1E081E031E096E321919D
:1012A000222371F08093E9003093EB00DF01119766
:1012B0002C912093EC009093ED008F5F873079F7AD
:1012C0008EE78093EA001092EA008F89809398015C
:1012D000DBCE8B8D9C8D1092E900109286011092CE
:1012E00085019093840180938301898D811192C03F
:1012F0008E899D89913A49F4813209F07DCF47E08A
:1013000050E06BE071E080E0B3CF913209F074CF30
:10131000833269F48F89988DB0E0A0E08093070153
:1013200090930801A0930901B0930A01ADCE8032D9
:1013300069F48091E80082FFFCCF67E08BE091E0E8
:101340000E9417058BEF8093E8009ECE823209F051
:101350009BCE8F8980931201EEEFFFE785919491E8
:101360008B3F9C4D51F1E0E0F8E080910B019091B2
:101370000C01A0910D01B0910E01803B9440A1059C
:10138000B105F1F48091120180FD1AC0EE3F8AE0B0
:10139000F80789F587E797E791838083809160005C
:1013A0008093870188E19BE00FB6F894A89580931D
:1013B00060000FBE9093600067CEEEEFFAE0D5CFED
:1013C000808191818737974709F05ECEA8958091FB
:1013D0006000886180936000809187018093600045
:1013E000EE3F2AE0F20789F08091FE0A9091FF0A11
:1013F0009183808349CE808191818737980751F20C
:101400009093FF0A8093FE0AC5CF1092FF0A1092B4
:10141000FE0A3ACE0E94FD03DC0112960D911C914A
:101420000115110509F4E8CED801ED91FC91019068
:10143000F081E02DBE016B5E7F4FC80109958111DF
:1014400023CEF80100851185EBCF181619060CF490
:101450001BCED2CEF1E0FF12BECE6FEA76E004CF13
:101460001F920F920FB60F9211242F933F938F93D9
:101470009F93AF93BF9380917B0190917C01A0914A
:101480007D01B0917E0130917A0123E0230F2D3749
:1014900058F50196A11DB11D20937A0180937B011F
:1014A00090937C01A0937D01B0937E0180917F0198
:1014B00090918001A0918101B09182010196A11DBE
:1014C000B11D80937F0190938001A0938101B0931F
:1014D0008201BF91AF919F918F913F912F910F907A
:1014E0000FBE0F901F90189526E8230F0296A11D9E
:1014F000B11DD2CFEF92FF920F931F93CF93DF9343
:10150000F82E192FE62E042F81E0860F880F0E94F7
:10151000920483E00E949204CF2DD12FEC0EFD2E79
:10152000F11CCE15DF05B9F007FF13C0FE01849151
:101530000E949204182F80E00E9492048123219639
:101540008111EFCFDF91CF911F910F91FF90EF901D
:1015500008958881EDCF81E0F5CFEBE9F5E01382C6
:10156000128288EE93E0A0E0B0E084839583A683A6
:10157000B78382E291E0918380838FEF9FEF95871D
:101580008487EDEEF5E01382128284E391E091838B
:1015900080838BE790E09093EC058093EB050895B2
:1015A000789484B5826084BD84B5816084BD85B53E
:1015B000826085BD85B5816085BD80916E0081604A
:1015C00080936E00109281008091810082608093F0
:1015D00081008091810081608093810080918000F2
:1015E000816080938000809191008260809391005F
:1015F0008091910081608093910080919000816042
:10160000809390008091C10084608093C10080919C
:10161000C10082608093C1008091C100816080938D
:10162000C1008091C30081608093C3008091C0009D
:1016300082608093C0008091C20081608093C2006C
:1016400080917A00846080937A0080917A00826031
:1016500080937A0080917A00816080937A008091F3
:101660007A00806880937A00109298011092880125
:1016700010928A018091D70081608093D70080EA20
:101680008093D80089B5806189BD89B5826089BDA4
:1016900009B400FEFDCF61E070E080E090E00E94C0
:1016A00049058091D8008F7C80618093D80080911B
:1016B000E000807F8093E0008091E1008E7E809347
:1016C000E1008DE08093E200559A209A81EC8093AE
:1016D0007C0085B1806F85B984B1877E84B984B17F
:1016E000876E84B95E9A5F988AB1806D8AB9769A5E
:1016F0006E9881B3806F81BB899880B38D7080BBF9
:1017000080E58CBD81E08DBD85E090E00E943006D3
:101710005F9A85E090E00E9430065E985C98ECE568
:10172000F6E084918EBD00000DB407FEFDCF31962A
:1017300006E0E936F007A9F75C9A81E88093640037
:10174000809165008160809365000E94FB060E9485
:10175000350687FF15C05C9885EA8EBD00000DB484
:1017600007FEFDCF5C9A2E982F982D9880916400EB
:1017700080628093640081E083BF889513BEFCCFB4
:101780000E94350682FF48C02D980E943506847855
:101790008438E1F40E942E0688EC90E00E94300626
:1017A0002F9882E090E00E94C70F8F3F29F06FEFE3
:1017B00082E090E00E94CF0F84EF91E00E9430061B
:1017C0002F9A0E94350684788438D9F30E94350612
:1017D00084718431E1F40E942E0688EC90E00E942E
:1017E00030062E9882E090E00E94C70F882329F0EF
:1017F00060E082E090E00E94CF0F84EF91E00E94D1
:1018000030062E9A0E94350684718431D9F388EC13
:1018100090E00E943006B4CF0E942E0682E090E055
:101820000E948D07882309F48DC03E9A3F9A81E07B
:1018300090E00E948D07182F1470912E81FF10C028
:1018400011112E98C1EFDFEF08E010E088E5882E37
:101850000E94350686FF79C02E9A2F9A0E942E0686
:1018600082E390E00E9430060E9435068111F8CF95
:10187000809164008E7F8093640080917A00806400
:1018800080937A0080917A0086FDFCCFC091780029
:10189000D09179000E942405AB01BC01CE01B0E0DB
:1018A000A0E0DC01992788278C019D01040F151FFA
:1018B000261F371FC901B8012091640021602093C1
:1018C0006400611571058105910511F00E94BE0F3C
:1018D00080E1809300010E949A0310926D011092A2
:1018E0006C0110926B0110926A0193E0492E512C09
:1018F00024E1822E912CA12CB12C32E0232E312C0C
:1019000066246A94762CEE24E394F12C8FE3C82E9F
:10191000D12C8FB7F89440917B0150917C0160915C
:101920007D0170917E018FBF80916801882309F449
:10193000CDC01092680120E030E0232B51F30E94CB
:101940000000E4CF3E983F9872CF992029F0C43030
:10195000D10511F42E9A2F9881E00E94B3039E01C5
:10196000D7FF04C0222733272C1B3D0B27703327BA
:10197000CE01D7FD0796B3E095958795BA95E1F727
:10198000D7FF05C00197A801421B530B9A01BC0168
:101990007695762F66277795679565567E4FF12C5D
:1019A000E12C3801621A730A8E3F5FEF950709F444
:1019B0003DC08E9CD0018F9CB00D112450E040E0C2
:1019C000A455BA4F5B01E0E8AE0EB11C8F3F9807FB
:1019D00091F0FD01E40FF51FE4916B01C40ED51EDB
:1019E000F0E01F01022E01C0220C0A94EAF7F60172
:1019F00054882528248A2115310599F0FD01E40F2A
:101A0000F51FE4916501C40ED51EF0E01F01062C00
:101A100002C0359427940A94E2F7F60154882528E9
:101A2000248A4F5F5F4F4835510581F60196605813
:101A30007F4FEA94EF2809F045C00E94FB068FE033
:101A400090E00E9430062196C931D10509F000CFFF
:101A5000992011F02F9A2D9880E991E00E9430068C
:101A60000E942E0681E090E00E948D0780FFF8CE54
:101A70008AE090E00E948D079FEF980F9E3F08F04C
:101A8000EFCE22E330E030936B0120936A0128E32C
:101A900030E030936D0120936C01CBE0D0E0682FF3
:101AA0008DEE95E00E949106CE010E948D07219651
:101AB000C131D105A1F70E94FB0688EE93E00E9498
:101AC0003006CECEEE24E394F12C6ECF80916901E6
:101AD000142F181B812F90910001191748F48F5F64
:101AE000891708F028CF21E023BF889513BE23CFA4
:101AF00031E03093680140936901809166019091D3
:101B00006701019690936701809366010E949A0392
:101B100010926D0110926C0110926B0110926A018B
:101B20008091990180939A010E94350680939901D2
:101B3000809178019091790181309105E1F02CF448
:101B4000892B61F00E94FB06F6CE8230910509F4E4
:101B500060C10397B9F784E591E05DC18CE391E042
:101B60000E9450070E94A703882361F3F092790135
:101B7000E0927801E7CF44E150E050936B0140934D
:101B80006A0180917601909177010E945D0785E658
:101B900090E090936B0180936A0110926D01109216
:101BA0006C0180917401909175010E945D07C09154
:101BB0007201D0917301009105011091060124E09A
:101BC00044E0BE01C8010E94550680910301909136
:101BD00004018130910509F076C00F5F1F4F10930B
:101BE000060100930501809101019091020181306D
:101BF000910509F06EC02196D0937301C0937201D4
:101C00008091720190917301009709F067C0F09282
:101C10000201E0920101C0917001D091710129E0AF
:101C200044E0BE0190E080E00E9455060E94350627
:101C300087FF08C01C161D062CF42197D093710154
:101C4000C09370010E94350684FF0CC08091700122
:101C500090917101863391052CF401969093710156
:101C60008093700160916E0170916F0129E044E0F2
:101C70008091EB059091EC050E945506809105013D
:101C800090910601843791058CF120917201309179
:101C9000730180916E0190916F01281739070CF440
:101CA000B2C080916E0190916F012C5F3F4FAC01EB
:101CB000475F5F4F4217530724F5019690936F01DA
:101CC00080936E011EC0019609F08DCF015011095D
:101CD00086CF019609F094CF21978ECFCB9709F04C
:101CE0009ACF709202016092010195CF0E946F0F0E
:101CF000A50194010E94DD0F6130710581059105F8
:101D000021F28091050190910601863F9F4F6CF46E
:101D10008091740190917501D0920601C0920501E5
:101D200001969093750180937401809105019091C3
:101D30000601833891056CF08091760190917701CE
:101D4000D0920601C092050101969093770180938D
:101D500076018091760190917701059721F4309278
:101D60007901209278018091740190917501059715
:101D700021F450927901409278018091050190916F
:101D8000060184309105B9F44091720150917301BC
:101D90002091700130917101BA016C5F7F4F26175D
:101DA00037074CF4275F3F4F4217530724F4F09254
:101DB0000401E092030104962091EB053091EC05BB
:101DC00082179307B1F420917201309173018091D1
:101DD0006E0190916F01A9014C5F5F4F84179507C9
:101DE00044F409962817390724F47092040160928C
:101DF00003010E94A703882309F4A4CE309279013D
:101E0000209278019FCE019790936F0180936E018D
:101E100048CF89E491E00E9450070E94A7038823DD
:101E200009F490CED0920601C0920501109277017C
:101E3000109276011092750110927401109279013E
:101E4000109278017FCE8F929F92AF92BF92CF92E5
:101E5000DF92EF92FF92CF93DF93EC01688179815B
:101E60008A819B81611571058105910521F464E2E8
:101E700079ED8BE597E02DE133EF41E050E00E94F2
:101E8000DD0F49015A019B01AC01A7EAB1E40E94B0
:101E9000FC0F6B017C01ACEEB4EFA50194010E9434
:101EA0000A10C60ED71EE81EF91EF7FE06C081E016
:101EB000C81AD108E10880E8F80AC882D982EA8203
:101EC000FB82C701B6019F77DF91CF91FF90EF9022
:101ED000DF90CF90BF90AF909F908F9008958F929A
:101EE0009F92AF92BF92CF92DF92EF92FF9260915A
:101EF00013017091140180911501909116016115E3
:101F000071058105910521F464E279ED8BE597E097
:101F10002DE133EF41E050E00E94DD0F49015A010D
:101F20009B01AC01A7EAB1E40E94FC0F6B017C01AC
:101F3000ACEEB4EFA50194010E940A10C60ED71EA4
:101F4000E81EF91EF7FE06C081E0C81AD108E108B4
:101F500080E8F80AC0921301D0921401E0921501B2
:101F6000F0921601C701B6019F77FF90EF90DF90C6
:101F7000CF90BF90AF909F908F9008956093130182
:101F80007093140180931501909316010895F999A7
:101F9000FECF92BD81BDF89A992780B50895262F6E
:101FA000F999FECF1FBA92BD81BD20BD0FB6F8943E
:101FB000FA9AF99A0FBE01960895052E97FB1EF422
:101FC00000940E94F40F57FD07D00E940F1007FCE9
:101FD00003D04EF40C94F40F509540953095219514
:101FE0003F4F4F4F5F4F0895909580957095619545
:101FF0007F4F8F4F9F4F08950E943110A59F900DE6
:10200000B49F900DA49F800D911D11240895B7FFDA
:102010000C94FC0F0E94FC0F821B930B0895A1E20D
:102020001A2EAA1BBB1BFD010DC0AA1FBB1FEE1F52
:10203000FF1FA217B307E407F50720F0A21BB30B9D
:10204000E40BF50B661F771F881F991F1A9469F719
:1020500060957095809590959B01AC01BD01CF0175
:102060000895A29FB001B39FC001A39F700D811D71
:102070001124911DB29F700D811D1124911D089591
:10208000EE0FFF1F0590F491E02D0994F894FFCF17
:1020900010010001003E00FFFFFFFF00E100000013
:1020A0000000000100000000C1808100000000006D
:1020B000000011047C05320427047804360454041B
:1020C0000000000091060106FF06FE065469746CCC
:1020D000652053637265656E0057696E20536372A5
:1020E00065656E0047616D65204F766572205363AC
:0620F0007265656E000040
:00000001FF
